:100000000080001031120000611200006312000035
:100010006512000067120000691200000000000075
:100020000000000000000000000000006B12000053
:100030006D120000000000006F120000711200003D
:10004000731200007312000073120000731200009C
:10005000731200007312000073120000731200008C
:10006000731200007312000073120000731200007C
:10007000731200007312000073120000731200006C
:10008000731200007312000073120000731200005C
:10009000731200007312000073120000731200004C
:1000A000731200007312000073120000731200003C
:1000B000731200007312000073120000731200002C
:1000C000731200007312000073120000044B054805
:1000D0001B1A062B02D9044B03B11847704700BF07
:1000E0000304001000040010000000000549064849
:1000F000091A891001EBD171491002D0034B03B1E9
:1001000018477047000400100004001000000000B1
:1001100010B5064C237843B9FFF7D8FF044B13B151
:100120000448AFF300800123237010BD00040010C9
:1001300000000000C092000008B5084B1BB1084940
:100140000848AFF300800848036813B9BDE80840C9
:10015000CCE7064B002BF9D09847F7E700000000EA
:1001600004040010C0920000000400100000000011
:10017000154B002B08BF134B9D46A3F5803A002179
:100180008B460F461348144A121A02F006FE0F4B14
:10019000002B00D098470E4B002B00D09847002032
:1001A000002104000D000D48002802D00C48AFF3D8
:1001B000008002F057FD2000290000F0FFFF02F050
:1001C0007FFA00BF0000080000800010000000005F
:1001D0000000000000040010A8070010000000004C
:1001E000000000007047000010B50446064B403088
:1001F00003F1180240F8403C4C330260436001F0C8
:100200003FFF204610BD00BFF88C0000A0F1400069
:10021000EAE7A0F14400E7E710B5044602F013FA5C
:10022000204610BD2DE9F74F8046894692469B46F1
:100230000024444522DA00265E451DDAB700002579
:1002400000234D4512DA01930C9B5AF8240053F811
:10025000251050F82500C95908F0A6F8019B014661
:10026000184607F099FF01350346EAE70D9A013673
:1002700052F82410CB51DFE70134DAE703B0BDE8D0
:10028000F08F00002DE9F0414C4801F057FEDFF8F7
:10029000848100240820D8F8005002F0E7F9484E85
:1002A00028510820356802F0E1F92851454D082011
:1002B0002F6802F0DBF9444B385108201F6802F028
:1002C000D5F9424B385108201F6802F0CFF9404B56
:1002D000385104201F6802F0C9F93E4B3851042000
:1002E0001F6802F0C3F93C4B385104201F6802F02C
:1002F000BDF93A4B385108201F6802F0B7F9384B66
:10030000385108201F6802F0B1F9364B38510820E7
:100310001F6802F0ABF9344B385108201F6802F017
:10032000A5F9324B385108201F6802F09FF9304B75
:10033000385108201F6802F099F92E4B38510420DB
:100340001F6802F093F92C4B385104201F6802F00B
:100350008DF92A4B385104201F6802F087F9284B89
:10036000385104201F6802F081F9264B38510820CB
:100370001F6802F07BF938510434082C8AD13368A5
:10038000214A196821480A605A68214B53600023AA
:100390004B6013602A68116852680B6050604B60B4
:1003A00013601C4A4FF07E50126811685268086052
:1003B00050604B6000201360BDE8F081080500101C
:1003C00018050010D004001024040010900500103F
:1003D000280400101C050010B8040010D4040010FC
:1003E00020040010980400109C040010A0040010C9
:1003F000A4040010A8040010AC040010B004001005
:10040000B40400101C0400109F1EEB4400001041B7
:1004100064691A46D804001010B50F4801F09AFD1F
:1004200003F054FE07F06CFF4FF0405107F0BCFFA3
:100430000A4907F0B9FF4FF07C5107F0B5FF0749B3
:1004400007F0A8FE0446002007F05AFF01462046A8
:1004500007F0A2FE10BD00BF0805001000002041FB
:100460002DE970431149054608F05AF9D0B9044600
:100470000F4E56F8240007F0F1FA00220D4B07F05A
:100480007DFC80462846894607F0FAFA02460B466C
:100490004046494607F0BAFD08B10134E9E7601E5D
:1004A000BDE870833220BDE8708300BF0000984132
:1004B000CC0000100000594010B50021044608F09F
:1004C0002FF930B90021204608F00CF920B900209E
:1004D00010BD4FF07E5010BD004810BD000080BF21
:1004E00008B5FFF7BDFF024B53F8200008BD00BF61
:1004F0009801001038B5124801F02CFD114B196815
:1005000007F048FEFFF7ECFF054603F0DFFD07F0BC
:10051000F7FE4FF0405107F047FF0B4907F044FF4B
:100520004FF07C5107F040FF074907F033FE0446C7
:10053000284607F0E5FE0146204607F02DFE38BDAF
:1005400008050010040500100000204108B5FFF761
:1005500087FF024B53F8200008BD00BF6402001063
:10056000F8B515461A4C06460F462046194901F0C3
:1005700099FD2846FFF7B4FF07F0C2FE014630465A
:1005800007F008FE06462846FFF7E0FF07F0B8FE32
:100590000146384607F0FEFD0F490546304607F094
:1005A00003FF0146284607F0F7FDFFF785FF0546E4
:1005B0000A49204601F076FD4FF07E51284607F0AB
:1005C000EBFD4FF07C5107F0EFFE08F0B3F8F8BDFB
:1005D00078050010F8870000CDCCCC3D00880000E5
:1005E000012808B50DD10021114800F0EBFB0021D6
:1005F000104800F0E7FB00210F4800F0E3FB00216A
:1006000010E04FF07E510A4800F0DCFB4FF07E51C5
:10061000084800F0D7FB4FF07E51074800F0D2FBAE
:100620004FF07E510548BDE8084000F0CBBB00BF4D
:10063000DC040010F0040010BC040010840400105E
:100640002DE9F0470646884691469A460024B44272
:1006500012DA002545450DDA089B514653F82470FF
:1006600059F8243053F8250007F09EFE47F825007E
:100670000135EFE70134EAE7BDE8F0872DE9F047FF
:100680000646884691469A460024B44215DA00256B
:10069000454510DA089B5AF8242053F8247059F87D
:1006A000243052F8251053F8250007F075FD47F85F
:1006B00025000135ECE70134E7E7BDE8F087F0B548
:1006C00000248C4210DA4FEA840E0025854209DAB4
:1006D00052F8256056F80E7053F8246046F82570DD
:1006E0000135F3E70134ECE7F0BD2DE9F84F03687D
:1006F000D1F800A05D681E6843688946D3F804B04D
:10070000304659461C6807F04FFE804605F1004010
:10071000414607F049FE214607F046FE01460746DE
:10072000584607F0F5FE4146CAF80000284607F093
:100730003BFE214607F038FE01468046284607F07A
:10074000E7FE4146CAF80400204607F0E1FED9F86A
:10075000045039462860304607F0DAFE6860BDE88C
:10076000F88F00002DE9F04F9A4681460F4685B07C
:100770000E9B834E02930F9B824983481546039339
:1007800001F090FCD6F800804FF07E53D8F800209E
:100790007E4C1360D8F804304FF07E515960C2F897
:1007A00004A000221A60236800211A685B681160A7
:1007B0004846C3F800A0394607F0ECFC514607F064
:1007C000A7FE734B734F1B6802211A688346C2F859
:1007D00000905A68DFF8F0A110603A68084601926C
:1007E0004246DFF8E88100930123FFF71BFDD8F8AC
:1007F00000300121009322682B460220FFF720FFE2
:10080000654B664C1B6801210093D8F800303A68AC
:100810000220FFF733FF2368614D0193614B1B6892
:1008200000930223326819461846FFF7FBFC326832
:1008300002215D4E2B680846FFF741FF33680193A4
:100840002B685A4D00930223226819461846FFF779
:10085000E9FC2B6802210093554B3268554E08463F
:100860001B68FFF70BFF336802210093524B2A6885
:100870001B680846FFF702FFDAF800103068FFF740
:1008800034FF4E4B1B680193DAF80030DFF840A1CB
:10089000009302232A6819461846FFF7C3FCDAF8CA
:1008A000003001211A685B68C2F80090C3F800B0FC
:1008B000DFF820B1DFF82091DBF80030364A0093F2
:1008C00012684B460220FFF7BBFE3B6801210093F4
:1008D000DBF80030DAF800200220FFF7CFFED8F86E
:1008E0000030364A01933B680221009308460123F9
:1008F0001268FFF797FC264B01211B68022000932A
:10090000254BD8F800201B68FFF7B8FE204B029952
:100910001B682B4F1A685B6812680A601B68039A91
:100920004FF07E51136033681A685B6811600021D4
:1009300051604FF07E5219605A603B681F4A009325
:1009400002214B4608461268FFF77AFE236802210F
:1009500000933B6832680846FFF790FE114B1B6816
:1009600001932B6800930223194618462268FFF76B
:1009700059FC1449044805B0BDE8F04F01F092BBA2
:1009800024040010068800007805001028040010D8
:10099000B8040010A80400101C05001098040010F2
:1009A00090050010D80400109C040010D40400101E
:1009B000D0040010A004001018050010200400103E
:1009C000A4040010008800001C040010AC040010F7
:1009D000B0040010B4040010000080BF2DE9F04FF7
:1009E000304989B0304801F05DFB002404A802942E
:1009F000039401F093FA04A801F0A0FAA146A046DE
:100A00002646DFF8B0A00027BDB20523B5FBF3F3FF
:100A100003EB8303EB1A9BB2C3B9FFF76BFD002115
:100A2000834607F07DFE40B104A801F093FA8146A9
:100A300004A8B04601F09EFA5E460220FFF7ECFCE7
:100A40000021834607F06CFE00B15C4603AB0193C6
:100A500002AB009322464B4641463046FFF782FEEA
:100A60006422B5FBF2F302FB1355ADB2BDB90F48DA
:100A700001F070FADAF8001007F08CFB03990246D7
:100A80000298FFF76DFDFFF7ABFD094B5A6911683E
:100A90005A68114201D01B6900E0DB681A60013717
:100AA000B2E700BF0C8800007805001008050010B0
:100AB000200500100405001038B50F490F4801F05B
:100AC000F1FAFFF7DFFB00280FDB0D4D00241CB906
:100AD0000C4801F03FFA286001340B2CF7D10A4989
:100AE000064801F0DFFAFFF779FF0849034801F0F3
:100AF000D9FA4FF0FF3038BD1A8800007805001091
:100B000004050010080500103E8800002888000039
:100B100010B50446FFF768FB204601F094FD20461F
:100B200010BDA0F14000F3E7A0F14400F0E70000A1
:100B300070B54B4C4B4801F0F1F94B4E00234B4A3A
:100B40004B4920464B4D01F02BFA20464A4C324689
:100B5000294601F073FD0023484A4949204601F027
:100B60001FFA32462946204601F068FD45494648AD
:100B700000F014F94549464800F010F9454C464943
:100B8000464800F00BF94649464800F007F918229C
:100B90000021204602F001F94349204601F00CFBF8
:100BA000082001F063FD414B1860082001F05EFD54
:100BB0003F4B1860082001F059FD3E4B186008209B
:100BC00001F054FD3C4B1860082001F04FFD3B4BF9
:100BD0001860082001F04AFD394B1860082001F028
:100BE00045FD384B1860082001F040FD364B186079
:100BF000082001F03BFD354B1860082001F036FD60
:100C0000334B1860082001F031FD324B186008208A
:100C100001F02CFD304B1860082001F027FD2F4B10
:100C20001860082001F022FD2D4B1860082001F00B
:100C30001DFD2C4B1860082001F018FD2A4B186090
:100C4000082001F013FD294B1860082001F00EFD6B
:100C5000274B1860082001F009FD264B186070BD75
:100C60003805001008050010C800001003C0092056
:100C700002C00920E90100002C04001010C0092066
:100C80000FC0092045C00920DC04001044C0092021
:100C9000F00400102005001043C00920BC0400101F
:100CA00042C009208404001032C00920D80400107A
:100CB00018050010D0040010240400109005001046
:100CC000280400101C050010B8040010D404001003
:100CD00020040010980400109C040010A0040010D0
:100CE000A4040010A8040010AC040010B00400100C
:100CF000B40400101C0400102DE9F8438568064672
:100D000028460C4606F0BCFE02460B4606F05AFD8D
:100D100080462046894606F0B3FE00221E4B06F0B0
:100D20004FFD02460B464046494606F0FDFE07F0E1
:100D3000DDF905F100473946804607F0D3FC30B9AC
:100D40004146284607F0CEFC10B9454600E03D4636
:100D5000284606F095FE0EA3D3E9002306F032FDE7
:100D600007F0C4F90146304600F084FB002120461C
:100D700007F0B8FC40B94FF07E51204607F0D0FC98
:100D800018B14FF07E5400E000243461BDE8F883D0
:100D9000FA7E6ABC7493583F0000E03F10B50446E9
:100DA00000F012FB054B2046A360054B4FF07C5131
:100DB000E360FFF7A1FF204610BD00BF6F12033AAA
:100DC0000000344210B50446FFF796FF204610BDE0
:100DD00000B599B072B63B49684601F0EDF906A836
:100DE000394901F0E9F90CA8384901F0E5F912A8F0
:100DF000374901F0E1F932E0069B039A019901338A
:100E0000116059D00C9B0A9A0799013311604DD09B
:100E1000129B109A0D990133116041D0159B139AC2
:100E200096201A6001F0C4FA009B013332D0069B71
:100E3000049A01990133116026D00C9B099A0799F5
:100E4000013311601AD0129B0F9A0D990133116072
:100E50000ED0169B139A96201A6001F0A9FA009BF7
:100E60000133C9D11B481C49242201F075F9C3E79D
:100E700018481949242201F06FF9EAE71548164984
:100E8000242201F069F9DEE712481349242201F017
:100E900063F9D2E70F481049242201F05DF9C6E753
:100EA0000C480D49242201F057F9B7E709480A49CF
:100EB000242201F051F9ABE706480749242201F04A
:100EC0004BF99FE732C0092034C0092035C0092002
:100ED00037C0092048880000608800000C4B30B4FF
:100EE0009D689A682B46B2F1805F0CD2094AC435DE
:100EF00053F8044BAB4242F8044FF9D14FF0805203
:100F00001346034CA260103043F8201030BC7047E9
:100F100000ED00E0FCFFFF0F036870B51B690021C6
:100F2000012204469847431C06460ED023682046FB
:100F30001B690021022298472368054631461B6938
:100F4000204600229847284670BD70BD02480349DC
:100F5000034A00F037BE00BF9C07001002C0092002
:100F600003C00920084A094B10B4026003F58071E0
:100F7000002453F8042F824208BF1C608B42F8D132
:100F80005DF8044B704700BFE88800009005001032
:100F9000F0B50E4685B03649054603F0A6FA20B9ED
:100FA000344B1B6863B105B0F0BD2846324903F0ED
:100FB0009CFA78B92F4B1B6843B1012005B0F0BDF6
:100FC0000190FFF7C3FF019805B0F0BDFFF7BEFF2A
:100FD0000120E8E72846294903F087FA10B3284B97
:100FE000002402E00134402C21D053F8042F002AC1
:100FF000F8D12B783A2B33D0294602A800F0C0FE56
:1010000002A800F013FF90B102A800F0F5FE88B12D
:1010100002A800F0FBFE03464BB11A4AE01C42F85E
:101020002430C0E7134B1B68B3B10220BBE74FF07D
:10103000FF30B8E702A800F0CFFE05460028F6D042
:10104000036802A89F6800F0C5FE26F480320146BE
:101050002846B8470346DFE7FFF778FF0220A2E7FC
:101060002846094902AA03F0D1F9029BD4E700BF40
:10107000C888000098060010D8880000D0880000BA
:1010800090050010940500100C89000002280ADD6C
:10109000074AC31E52F82300002142F8231020B152
:1010A00003685B681847002070474FF0FF307047B7
:1010B00094050010022812DC0E4B70B51B680C461C
:1010C00016460BB9FFF742FFA51936B114F8011BFC
:1010D000094800F0C5FCAC42F8D1304670BD074B62
:1010E000033853F8200010B103681B6818474FF00D
:1010F000FF307047980600109C0700109405001000
:1011000002280DDC0C4B10B51B680C460BB9FFF721
:101110001DFF0A4800F062FC01232070184610BD34
:10112000074B033853F8200010B103689B68184739
:101130004FF0FF3318467047980600109C070010C8
:1011400094050010022807DD064B033853F82000F1
:1011500020B10368DB681847012070474FF0FF306B
:10116000704700BF94050010022807DD064B0338C6
:1011700053F8200020B103681B691847002070470E
:101180004FF0FF30704700BF94050010022808B5EB
:1011900004D84FF400534B60002008BD01F08AFAD8
:1011A000092303604FF0FF3008BD00BF08B50120E0
:1011B00001F086FA704700BF704700BF08B5FFF71F
:1011C000FBFFFFF7F7FFBDE80840FFF775BC00BF66
:1011D000074A13681918EFF30880814202D21846B3
:1011E00011607047034B0C221A604FF0FF307047BC
:1011F00030030010A40700100A4C08B52368054608
:10120000986801F07BFB2368D86801F077FB01F058
:101210001FF820B905B9FEE7FFF7DAFDFBE701F09B
:1012200073F8F7E7B4030010002102F0F1BF00BF2C
:101230000649074A074B9A42BEBF51F8040B42F8D1
:10124000040BF8E70448804704480047CC920000AC
:10125000C8000010000400107512000071010000A9
:10126000FEE7FEE7FEE7FEE7FEE7FEE7FEE7FEE756
:10127000FEE7FEE72B4A2023F0B4C2F8A031D2F8F3
:10128000A031980645D4274B002519460124AA20F1
:10129000552202270B26C3F80471C3F8A851C3F8DE
:1012A000AC51C3F80C41C3F88460C3F88C00C3F898
:1012B0008C20C3F88040C3F88C00C3F88C20D1F890
:1012C0008830184A5B01FAD511460324AA20552319
:1012D000C2F88040C2F88C00C2F88C30D1F8883057
:1012E000104A13F0407FF9D00F4900230520C2F8BF
:1012F0000801C2F8C410C2F8C8311368F0BC23F466
:10130000704323F03A0343F4405343F03A0313602D
:101310007047D2F8A0315906B5D4D2F8A031590699
:10132000F7D5B0E700C00F40DE87280470B50C4643
:1013300005460021204607F0D5F9F0B920464FF0C8
:101340007E5107F0EDF908B14FF07E540C4EB069B4
:1013500006F0D2FF214607F027F807F011FAB3692B
:10136000074983422B6808BF0130186028790A6D4D
:101370000123834013430B6570BD0024E6E700BFE3
:10138000008001400E4B0F4A1B6810B403FB01F1B3
:1013900002245460916193693BB1006803689269CB
:1013A00003FB01F1B1FBF2F10160064B09211A6D5B
:1013B0005DF8044B42F001021A655960704700BFA6
:1013C0009406001000800140F8B50E4605462049FD
:1013D000304600F07FFFC4B2FF2C33D01D4A1E49B7
:1013E000D2F8C43051F8241043F040032C71296026
:1013F000C2F8C430D2F8A811184B21F4405100278C
:101400000220C2F8A811DF605861D96C08340122AB
:10141000A2400A431249DA640B681249124AA1FB3E
:10142000031328461B0D44F620611360FFF7AAFF43
:1014300028460021FFF77AFF3046BDE8F84004490E
:1014400000F008BF09480A493C2200F085FEC5E7C4
:101450001C89000000C00F403803001000800140CC
:101460003403001083DE1B4394060010D089000073
:10147000E489000010B5044608460C4906F094FFC4
:1014800007F058F90A4B0B4A1B68926903FB00F0FE
:101490002368904208BF01300649186020790A6D20
:1014A0000123834013430B6510BD00BF0024744922
:1014B0009406001000800140144B9968C1F342016A
:1014C00001291BD0022917D1114AD16B013109D052
:1014D000916C106C086092F86E1019B9596821F07F
:1014E00001015960906B0A4B78B193F86E3023B1CB
:1014F000084B00211B68184770477047044B986BD6
:101500000028FAD0034B1B681847704700000140C1
:10151000A00600109C06001070B50368284CA3427A
:1015200047D03FDD274CA34229D004F58044A34295
:1015300042D1254C082632BB01290BD04268234CEE
:10154000C2EBC20204EBC20292F83640303252794A
:10155000D44213D1B1FA81F45D68012202FA01F19B
:1015600025EA01015960036864095B6802FA04F125
:10157000194203D1164BB240C3F8802070BD154C00
:101580000726002AD8D05A68012505FA01F10A4336
:1015900076B25A6021463046FFF7A0FC0C4BB540AE
:1015A0001D6070BDA4F58044A34205D10A4C0526F8
:1015B000C1E70A4C0626BEE700242646BBE700BF6B
:1015C0000000014000800940E1150000A006001065
:1015D00000E100E04D160000B1160000B914000053
:1015E000174B9968C1F3420101291FD002291BD171
:1015F000144AD2F8AC1001310BD0D2F8B810D2F89E
:10160000B000086092F8DE1019B9596821F00101A4
:101610005960D2F8A8000B4B80B193F8DE3023B1AB
:10162000094B00211B68184770477047054BD3F8DA
:10163000A8000028F9D0044B1B681847704700BF6A
:1016400000C00940A00600109C060010154B9968C8
:10165000C1F3420101291CD0022918D1124A516F4D
:1016600001310AD0D2F88010906F086092F8A6106D
:1016700019B9596821F001015960106F0A4B78B10E
:1016800093F8A63023B1094B00211B681847704717
:101690007047054B186F0028FAD0044B1B68184799
:1016A000704700BF00800940A00600109C06001093
:1016B000144B9968C1F3420101291BD0022917D1AB
:1016C000114A5168013109D011699068086092F897
:1016D000361019B9596821F00101596010680A4B98
:1016E00078B193F8363023B1084B00211B681847B6
:1016F00070477047044B18680028FAD0034B1B68EA
:101700001847704700C00040A00600109C0600105B
:101710002DE9F04F844A03688DB093420B908B46BD
:1017200000F3E680814A934200F0ED8040F3CD80E3
:101730007F4A934200F0A38002F5804293420CD18D
:101740007C4AD2F8AC1121F44021C2F8AC11D2F895
:10175000AC1141F48021C2F8AC1177494FEA0B1269
:101760000968B1FBF2F402FB14120891A4B2002A3A
:1017700000F0A9805E46DA46089B4FF001085A0047
:101780009900019300230A9209910594069202910F
:10179000CDF81080CDF81CB003935346DDF81C90B3
:1017A0000027CA469946BB465FFA88F5CDF8008007
:1017B000B846069F002F76DB029BB3FBFAF4009B32
:1017C00064090134C4F34F0403EB0B0E002C64D105
:1017D000BBF1000F00F0A5800224204600FB0EF0B4
:1017E000019BC000B3FBF0F00130C9EB500000F0EA
:1017F0004EFFB04206DA48455FD00646CDF80C8071
:10180000059404950BF1010B5FFA8BF8A845CA44C7
:10181000D0D3019B089ADDF80080134401930A9A03
:10182000069B08F1010813440693099A029BB8F13C
:10183000100F13440293079BCA464B440793ACD145
:10184000039B049A059C43EA02150B9BEDB21B68AF
:101850001A7BC4F3072142F080021A730B9AE4B298
:101860001368197113681C70136883F82850126884
:10187000137B03F07F0313730DB0BDE8F08F2D4A87
:10188000D2F8AC1121F44031C2F8AC11D2F8AC114D
:1018900041F48031C2F8AC115FE7BBF1000F9CD07E
:1018A000012C9AD898E7B7FBFAF4009B240901347D
:1018B000C4F34F0403EB0B0E88E70B9B48EA0515B6
:1018C000EDB21B68C4E71025C2E7A2F5804293423F
:1018D0007FF443AF174AD2F8A81121F0C001C2F833
:1018E000A811D2F8A81141F04001C2F8A81134E7BC
:1018F0009B221248124900F02FFC0B9B0B4A1B68DD
:1019000093427FF413AF0B4AD2F8A81121F440712F
:10191000C2F8A811D2F8A81141F48071C2F8A81138
:101920001BE70124204659E700C0094000000140A0
:101930000080094000C00F4034030010EC8A000012
:10194000088B0000F8B55F1E012F05460E461446B1
:1019500004D915481549FB2200F0FEFB053E032E75
:101960001CD8042C14D8013CE4B2032C0DD8104B25
:10197000082153F824000001C2B246EA87060E434C
:1019800032432B68D2B21A73F8BD00221146F4E735
:1019900008480649FE2200F0DFFBE4E70648034959
:1019A000FC2200F0D9FBDCE7708B0000088B000004
:1019B000708A0000BC8B0000988B0000436810B454
:1019C0000448054CC3EBC30344F8332001605DF8C1
:1019D000044B70479C060010A00600100268137D9F
:1019E000DB07FCD543680949C3EBC30301EBC30321
:1019F000596810780131C0B206D059699B680B60F4
:101A0000536843F001035360704700BFA006001005
:101A10004368124AC3EBC30302EBC303D969013124
:101A20000BD0196B1B6A0A681A4204D10368187D2F
:101A3000C0F380107047002070470268127D920644
:101A400006D493F834000F288CBF00200120704783
:101A5000002283F834200120704700BFA006001048
:101A600038B504460D462046FFF7D2FF0028FAD0CD
:101A70002368EDB21D706368054AC3EBC30302EB34
:101A8000C30393F83420013283F8342038BD00BFFB
:101A9000A00600102DE9F04F04464648256883B0A3
:101AA00085420F469146019343D0D4F804A0002507
:101AB0005346414E4FEACA08C3EBC303CAEB080EB4
:101AC000002006EBCE0E4FF0FF3B06EBC3030146B2
:101AD000024683F83500CEF81CB02046CEF804B09C
:101AE000FFF71AFD17B903B0BDE8F08F3349484638
:101AF00000F0E2FB32498346019800F0DDFBBB1E9B
:101B0000012B37D9012FEED1B9F1FF3FEBD0294B93
:101B1000226807219B45117213D195B148462B7C51
:101B2000264943F040032B7403B0BDE8F04F00F0AA
:101B300091BB2B7CD4F804A003F03F032B746368A3
:101B4000B7E7CAEB080806EBC80049460125043090
:101B5000002200F053FB20462A4663680021C3EBB5
:101B6000C30306EBC30686F8355003B0BDE8F04F5B
:101B7000FFF7D2BC019B01330AD00E4B98420DD027
:101B8000CAEB080006EBC00001991C3000F002FB14
:101B9000032FA8D1B9F1FF3FB9D1A4E7002DEFD0B1
:101BA0002B7C019843F080032B74054900F052FB15
:101BB000EEE700BF00000140A00600104C8A0000C4
:101BC000BC8C00002DE9F0470F46054608466149E8
:101BD000164600F07FFB60490446304600F07AFB71
:101BE0000146204600F056FB411C044600F0AB8045
:101BF0005A4B2860984200F0838053D9584B984242
:101C000076D003F58043984206D1564AD2F8C430C4
:101C100043F00073C2F8C4304FF0010984F8089013
:101C20002B684FF00008C3F8048028464FF4165183
:101C3000FFF76EFD42464B4628460821FFF782FE1D
:101C40003846444900F006FB3046434900F002FBA9
:101C50007A1C03D03846414600F02EFC731C03D09A
:101C60003046002100F028FC3C4B9C4250D025D946
:101C70003B4B9C4264D003F580439C424BD10323F1
:101C80006B60394CC3EBC3034FF0FF3604EBC30466
:101C90002846324633466660E6610021BDE8F047DB
:101CA000FFF7F8BEA3F580439842B5D12D4AD2F88C
:101CB000C43043F00803C2F8C430ADE7A3F5804355
:101CC0009C4228D1284E4FF0FF3400216960224603
:101CD000234628467460F461FFF7DCFE234B0124A1
:101CE00029461C6022480822BDE8F04701F04AB8A6
:101CF0001C4AD2F8C43043F08073C2F8C4308BE77A
:101D0000184AD2F8C43043F01003C2F8C43083E755
:101D100001236B60B5E76E68134BC6EBC6064FF048
:101D2000FF3703EBC6063A463B462846002177605C
:101D3000F761FFF7AFFE0F4B9C42CFD0BDE8F087B5
:101D400002236B609DE70C480C495C2200F004FA0A
:101D50002C6061E7508C0000808A00000000014088
:101D60000080094000C00F40A00600109806001037
:101D70009C07001000C00040408C0000088B000051
:101D800038B50023036043600A7804462F2A01D047
:101D9000204638BD4A78002AFAD0481C20604D7889
:101DA0002F2D13D085B1034600E06AB15D1A0133CF
:101DB00023601A782F2AF8D129460133236000F0D6
:101DC00085F86060204638BD2946F8E71946034685
:101DD000F3E700BF00687047436843B110B504469D
:101DE000184600F091F8012803D1606810BD00206A
:101DF0007047002010BD00BF406830B108B500F04A
:101E000083F8B0FA80F0400908BD704743684BB1D1
:101E100010B50446184600F077F828B9606818B184
:101E2000043810BD00207047002010BD406800300D
:101E300018BF0120704700BF094A8368026053B190
:101E4000084B1A68824201D106E01A465368834261
:101E5000FBD143685360704742681A60704700BF07
:101E6000E88C0000800700100C4A836810B5044617
:101E7000026053B10A4B1A68904201D10AE01A4637
:101E800053689C42FBD163685360204600F0DBFB43
:101E9000204610BD42681A60F7E700BFE88C0000DA
:101EA0008007001010B4074C0023027381600460A7
:101EB000436019B1044B1A68186042605DF8044B26
:101EC000704700BFE88C0000800700100D4B70B514
:101ED0001C6806460D4614B911E064687CB1A06820
:101EE0000028FAD031462A4602F011FB0028F4D12E
:101EF000A06802F004FBA842EFD1204670BD00208C
:101F000070BD00BF80070010007B704710B504460D
:101F1000C06800F033FA6368C01A10BD38B50025F8
:101F2000056045608560044600F02CFAE06000F032
:101F300025FAA5606060204638BD00BF036803B184
:101F4000704710B50446C06800F018FA01236060BD
:101F5000236010BD036810B5846813B1FFF7D6FF86
:101F60000346E01806F0CCF9014906F0D1FA10BD9D
:101F70000024744910B50446C06800F0FFF900233E
:101F80006060A36010BD00BF00F0DAB8A0F14000AF
:101F9000FFF7FABF00F0D8B8A0F14000FFF7FABF92
:101FA00038B504461D4600F0ADF8294604F140005E
:101FB00000F044F8054B204603F1080103F120022C
:101FC000543321602264636438BD00BFF08C00008C
:101FD00000207047F8B58E18B1420F460ED0054666
:101FE0000C4601E0A64207D02B6828465B6A14F82D
:101FF000011B98470130F5D1E01BF8BD0C46FBE70B
:10200000F8B58E18B1420F460ED005460C4603E0D7
:1020100004F8010BA64205D02B6828469B6A984716
:10202000431CF5D1E01BF8BD0C46FBE700207047D0
:1020300000207047002070470020704710B504460C
:1020400084B000F0D5FA0B4B002203F108013C33B9
:1020500084E80A00626101A82246074902F0B2F949
:10206000064901A800F04AFD6061FFF7DDF820464F
:1020700004B010BD508D00000C890000948D00004C
:1020800010B50446064B406903F108023C3384E86E
:102090000C0000F07BFB204600F0BEFA204610BD8D
:1020A000508D00000EB430B5044682B005AB53F835
:1020B000045B4069019300F021FC29466069019AA4
:1020C00001F050F802B0BDE8304003B0704700BFE7
:1020D0004A1C02EB420200EBC202936853B101EBCF
:1020E0004101C9004218D2681AB1014410311046AA
:1020F0001847704701EB410300EBC301CB68002B8D
:10210000F7D0184770B504460B4E0023251D4FF439
:102110001650E06363602846A360E3602362636255
:10212000A3632660FFF74EFD284622460349FFF7CA
:1021300045FC204670BD00BFA08D0000D1200000EE
:102140000430FFF74BBC00BF10B50C460430FFF75E
:1021500087FC204610BD00BF10B40C461346014654
:10216000224602485DF8044B00F002B8A88D00003A
:102170000FB400B5064A83B004AB53F8041B1068D3
:102180001A46C068019300F0EDFF012000F098FAB4
:10219000B403001038B50D46044600F027F90135A8
:1021A00009D02046002100F03DF92046BDE8384026
:1021B000032100F033B938BD38B50D46044600F0B0
:1021C00015F901350FD0236801330DD023696268FA
:1021D00020461A60012100F025F92046BDE838406C
:1021E000022100F01BB938BD024803492422FFF741
:1021F000B3FFEBE7488800006088000070B50D462B
:102200001646044600F0F2F8013514D02368013375
:1022100012D066B9236962681A602046012100F075
:1022200001F92046BDE87040022100F0F7B8E368EC
:1022300062681A60F1E770BD034804492422FFF781
:102240008BFF002EE6D0F2E748880000608800008F
:1022500000F066B8431C10B5044618D00B68581C33
:1022600004D10FE051F80C3F5A1C0BD09C42F9D11D
:102270002046896800F0F8F82046BDE810400221A9
:1022800000F01AB90248BDE81040FFF771BF10BD59
:10229000DC8D000088420AD0421C09D0013106D0F2
:1022A00008B50448FFF764FF4FF0FF3008BD7047E2
:1022B00008467047F08D00000B685A1C04D107E0F7
:1022C00051F80C3F5A1C03D08342F9D1486870473B
:1022D00018467047421C0ED008B50B685A1C04D132
:1022E0000AE051F80C3F5A1C06D09842F9D14868D0
:1022F000411C01D008BD70470248FFF739FF4FF07D
:10230000FF30F7E7048E000030B585B018246D4625
:1023100020462946ABBE0446204605B030BD00BF6E
:10232000024B186800F00100704700BFF0ED00E0BC
:10233000036870B5DB68054698476B685B6883B1D6
:102340002A681C6853689847201A00286A680DDCC0
:1023500050681168836853600029F0D0406888474E
:10236000EBE72B68BDE870409B6818472B68526804
:102370001B691068BDE87040184700BF03685B68C0
:10238000184700BF00487047588E00000148FFF70B
:10239000CFBF00BF588E000038B5054600F002F9E7
:1023A000044600F0FFF8001BA842FAD338BD00BF76
:1023B0004FF47A7303FB00F0FFF7EEBF431C10B538
:1023C000044608D02046002100F04EF804F01F0417
:1023D0000120A04010BD034803491522FFF7BCFEB1
:1023E000F0E700BF608E0000748E00004A1C0160A0
:1023F00013D038B50C4605460846FFF7DFFF24F03A
:102400001F0101F1180401F11C0201F114036860BD
:10241000A960EC602A616B6138BD7047006800F00C
:102420004BB800BF38B50368044601330D4610D0E1
:1024300045B1012D05D1A268636811680B43136093
:1024400038BD38BDA2686168136823EA01031360D0
:1024500038BD034803492C22FFF77EFEE8E700BFA2
:1024600048880000748E000038B5431C04460D46B1
:1024700018D004F16040A0F51C2003099B0003F173
:10248000804303F5303300F00F0019684000032249
:10249000824021EA02021A601A68854045EA020178
:1024A000196038BD024803491522FFF755FEE0E7E1
:1024B000608E0000DC8E000038B5431C05460C46DB
:1024C0002BD005F16040A0F51C2043099B0003F1CF
:1024D000804303F53033996E00F01F02C4F380058A
:1024E00005FA02F221EA02019966996E0A439A6698
:1024F00095B903099B0003F1804303F5303300F0E5
:102500000F00196C40000322824021EA02021A6483
:102510001A6C844014431C6438BD034803492022CC
:10252000FFF71AFECDE700BF608E0000DC8E0000D2
:1025300038B51249124B01241C60D1F8C430114A3D
:1025400043F4000310480025C1F8C4301567036840
:1025500001F1437101F5F45103319B08A1FB031311
:102560009B0C013B022151600420D3600749546059
:10257000FEF7B4FC064B10221A6038BD00C00F40B5
:102580008C07001000400940340300108D23000028
:1025900000E100E0024B1B6803B17047FFF7C8BFC2
:1025A0008C07001008B5044B1B680BB9FFF7C0FF80
:1025B000024B986808BD00BF8C070010004009401E
:1025C000034B98615A6942F001025A61704700BF9B
:1025D00000400940024A536923F0010353617047E8
:1025E00000400940014B01221A6070470040094039
:1025F00010B50446064B002240F8043BFFF752FC9E
:10260000044B204603F10802343384E80C0010BD6B
:10261000E8880000408F000010B50446064B03F127
:1026200008023433226040F8043FFFF705FC2046DF
:10263000FEF798FC204610BD408F00000B46014677
:10264000184600F029B800F087BB10B5002814BF69
:1026500004460124204600F077FB30B900F008F86A
:1026600008B900F00DF88047F4E710BDFFF7EDBFA3
:10267000024B1868BFF35F8F704700BF90070010D0
:1026800008B5062001F082FE0120FEF7B5FD002806
:10269000B8BF40427047000010B5054C13462CB13E
:1026A0000A4601460220AFF3008010BD204610BD4F
:1026B00000000000014B1868704700BFB403001011
:1026C00008B5074B044613B10021AFF30080054B5A
:1026D0001868836A03B198472046FEF78DFD00BF56
:1026E00000000000E08F000070B505460C4609B9F7
:1026F000002070BD18B183690BB900F051F9204B6F
:102700009C4201D16C6808E01E4B9C4201D1AC6830
:1027100003E01D4B9C4208BFEC68B4F90C30002B61
:10272000E6D02146284600F039F8236B064633B13F
:10273000216A284698470028B8BF4FF0FF36A38982
:102740001B0603D52169284600F030FB616B41B1BF
:1027500004F14403994202D0284600F027FB0023ED
:102760006363A16C21B1284600F020FB0023A36421
:1027700000F082F90023A38100F07FF9304670BD9C
:102780007C8F00009C8F0000BC8F0000024B014634
:102790001868FFF7A9BF00BFB40300108A892DE9AC
:1027A000F041054610070C4659D44B68002B02DC5B
:1027B0000B6C002B17DDE66AAEB102F480520023E9
:1027C00092B22F682B600AB1606D15E0216A012377
:1027D0002846B047411C0FD12B686BB11D2B01D08F
:1027E000162B03D12F600020BDE8F081A38943F0B0
:1027F0004003A381BDE8F081A3895A0705D563682A
:10280000C01A636B0BB1236CC01A00230246E66A40
:10281000216A2846B047431CA38906D129681D298F
:1028200039D8204ACA40D60735D5002262602269CD
:10283000D904226004D5421C01D12B6803B960651C
:10284000616B2F600029CED004F14403994202D07D
:10285000284600F0ABFA00206063BDE8F0810F6904
:10286000002FC0D093070E680CBF4B690023C7EB45
:1028700006080F608B6002E00744C0EB0808B8F15F
:10288000000FB0DD43463A46216A2846A66AB047A3
:102890000028F1DCA38943F04003A3814FF0FF300F
:1028A000BDE8F0810100402038B50B6905460C46B3
:1028B000DBB118B183690BB900F072F80C4B9C4284
:1028C00001D16C6808E00B4B9C4201D1AC6803E07D
:1028D000094B9C4208BFEC68B4F90C302BB121467F
:1028E0002846BDE83840FFF759BF002038BD00BF7B
:1028F0007C8F00009C8F0000BC8F0000014620B937
:10290000044B0549186800F08FB9044B1868FFF7AD
:10291000CBBF00BFE08F0000A9280000B403001067
:10292000014900F081B900BFA928000010B5044694
:10293000002303604360836081814366C281036139
:1029400043618361194608225C3000F026FA054B8A
:1029500024626362044BA362044BE362044B23636F
:1029600010BD00BF6144000087440000BF44000068
:10297000E344000070B568234D1E5D430E4605F12B
:10298000740100F057FA044640B1002180E842008B
:102990000C30A06005F1680200F0FFF9204670BD20
:1029A000836910B5044633BB8364C3640365124B6B
:1029B000124A1B688262984204BF0123836100F0BF
:1029C0001FF86060204600F01BF8A060204600F071
:1029D00017F80022E06004216068FFF7A7FF0122DA
:1029E0000921A068FFF7A2FF02221221E068FFF789
:1029F0009DFF0123A36110BDE08F0000212900008D
:102A0000F8B51C4B07461E68B36913B93046FFF78B
:102A1000C7FF4836B4687368013B04D4B4F90C505E
:102A20007DB16834F8E733680BB13668F2E704210A
:102A30003846FFF79FFF30600028F6D10C233B603B
:102A4000F8BD4FF6FF73E3810123A381656625601E
:102A5000A560656025616561A5610822294604F1CC
:102A60005C0000F09AF96563A563A564E5642046FF
:102A7000F8BD00BFE08F000070477047F7B50F4604
:102A8000114601AA054603F0BFFB064608B900201F
:102A900029E02846FFF7B4FF04460028F7D04FF49A
:102AA000DB73019A3946284601F0FEFA002806DA5F
:102AB0000025FFF7E1FFA581FFF7DFFFE7E70B4BFD
:102AC000E08163620A4BA681A3620A4B2462E3623F
:102AD000094B2363F30505D502230022214628462E
:102AE00000F014F8204603B0F0BD00BF61440000C0
:102AF00087440000BF440000E3440000024B0A4644
:102B000001461868FFF7BABFB403001000F000B820
:102B10002DE9F8430C4690461E46054618B18369D8
:102B20000BB9FFF73DFF3D4B9C4201D16C6808E0BB
:102B30003B4B9C4201D1AC6803E03A4B9C4208BF3E
:102B4000EC68A38903F48473B3F5847F03D1214631
:102B50002846FFF7A9FEE76A0FB91D232BE0012ED7
:102B600004D0022E2BD056B3162324E0214628464B
:102B7000FFF79AFEA28902F4805292B20AB1606D08
:102B800005E0216A33462846B847411C14D0A38982
:102B90005A0706D56368C01A636B4BB1236CC01A21
:102BA00006E01B0704D5236813B122699B1A184459
:102BB0008044002603E02B604FF0FF392BE02369AF
:102BC0001BB92146284600F073F821462846FFF736
:102BD0006BFE81460028EFD133464246216A2846E3
:102BE000B8470130E8D0616B41B104F14403994228
:102BF00002D0284600F0DAF800236363236900213D
:102C00002360A389616023F40263A381082204F195
:102C10005C0000F0C2F84846BDE8F8837C8F0000F5
:102C20009C8F0000BC8F00002DE9F8438046894648
:102C300000F14804002694B1A5686768013F0CD4F0
:102C4000AB89012B07D9B5F90E30013303D02946E2
:102C50004046C84706436835F0E72468EBE730464E
:102C6000BDE8F8830E4B70B51E460E4C0025E41AE5
:102C7000A410A54204D056F8253098470135F8E74E
:102C800005F0AEFD084B094C1E46E41AA4100025C1
:102C9000A54204D056F8253098470135F8E770BDB5
:102CA000F4030010F4030010F4030010FC03001000
:102CB000F0B58B8991B09D0706460C4625D4B1F935
:102CC0000E10002908DAA389002513F0800F14BF25
:102CD00040274FF480670DE001AA03F0CDFA0028E9
:102CE000F1DB029D4FF4806705F47045A5F50051B6
:102CF0004D424D413946304600F09CF860B9A389F9
:102D00009A051DD443F00203A38104F14703236015
:102D100023610123636113E00A4BB362A38920603E
:102D200043F08003A381206167614DB1B4F90E10B7
:102D3000304603F0D1FD18B1A38943F00103A3810C
:102D400011B0F0BD21290000024B0146186800F0C7
:102D500071B800BFB4030010024B0146186800F0C0
:102D600025B800BFB403001010B5C9B202449042A8
:102D7000034605D01C7801308C42F8D1184610BDAE
:102D8000002010BD10B5431E0A44914204D011F832
:102D9000014B03F8014FF8E710BD0346024493428C
:102DA00002D003F8011BFAE77047000030B5002994
:102DB0003CD051F8042C0B1F1D49002AB8BF9B18AA
:102DC0000A680C4612B95A600B6030BD9A420DD9A0
:102DD00019685818824201BF1068526809181960B2
:102DE0005A60236030BD994203D80A4651680029D1
:102DF000F9D1146815199D420AD11B682344D018D3
:102E00008142136012D10868034413604B680CE0E0
:102E100002D90C23036030BD18681C18A14201BF01
:102E20000C684968001918605960536030BD00BFD4
:102E30009807001070B5CD1C25F0030508350C2D42
:102E400038BF0C25002D064603DA0C233360002022
:102E500070BDA942F9D81F4B1C681A462146A1B182
:102E60000B685B1B0ED40B2B03D90B60CC18CD5019
:102E70001EE08C420BBF63684B681360636018BF31
:102E80000C4615E00C464968E9E7134C23681BB96A
:102E9000304601F07DF920602946304601F078F98E
:102EA000431CD2D0C41C24F00304A0420AD12560E4
:102EB00004F10B00231D20F00700C31A09D05A4269
:102EC000E25070BD211A304601F062F90130EED1B6
:102ED000BBE770BD9807001094070010936810B40A
:102EE000013B002B936008DA9469A34202DBCBB26A
:102EF0000A2B02D110BC02F081BA1368581C106072
:102F00001970C8B210BC7047F8B506460F46144693
:102F1000D518AC4208D03A4614F8011B3046FFF7EA
:102F2000DDFF431CF5D100E00020F8BD2DE9F04F96
:102F30009DB00C4617460393064618B183690BB93A
:102F4000FFF72EFD7F4B9C4201D1746808E07E4B59
:102F50009C4201D1B46803E07C4B9C4208BFF468FA
:102F6000A38918070CD5236953B1002309932023A3
:102F70008DF8293030238DF82A30DFF8D4B144E0C1
:102F80002146304602F0A0FA0028EED04FF0FF3084
:102F9000D5E0039A111D12680391002A80F28C80FB
:102FA000524243F002000792049098F800302E2B12
:102FB00000F08480032298F800106548FFF7D4FEE3
:102FC00048B14023CBEB000003FA00F0049B08F16A
:102FD00001081843049098F8001006225D4808F193
:102FE00001078DF82810FFF7BFFE002800F095803C
:102FF000594B002B40F08880039B073323F00703D5
:1030000008330393099B53440993B846454615F882
:10301000013B1BB9B8EB07090FD003E0252BF9D012
:10302000A846F3E74B463A4621463046FFF76CFF89
:1030300001307FD0099B4B44099398F80030002B56
:1030400078D000234FF0FF32049307930592069344
:103050008DF853301A930127052229783F48FFF74E
:1030600083FE05F10108049B38B13C4A4546801AAD
:1030700007FA00F018430490EEE7D90644BF202277
:103080008DF853201A0744BF2B228DF853202A783D
:103090002A2A3FF47EAF079A00210A20A84698F812
:1030A00000300135303B092B03D800FB02320121EF
:1030B000F4E700293FF479AF079276E798F80130FA
:1030C0002A2B0BD1039B08F102081A1D1B680392DF
:1030D000002BB8BF4FF0FF3305936BE70023194671
:1030E000059308F101000A25804698F80020013078
:1030F000303A092A03D805FB01210123F4E7002B0C
:103100003FF458AF059155E703AB00932246144BAB
:1031100004A9304600F0C2F807E003AB0093224652
:103120000F4B04A9304600F065FBB0F1FF3F82462B
:103130007FF468AFA3895B063FF528AF09981DB0FF
:10314000BDE8F08F7C8F00009C8F0000BC8F0000DA
:10315000EA8F0000EE8F00009D320000E48F000037
:10316000092F000013460A46014602480068FFF78F
:10317000DDBE00BFB40300102DE9F04788B0149FF6
:10318000002B1E461299B8BF03F1004327F0200719
:10319000B6BF1E4600232D23462F1446109DDDF892
:1031A0004CA00B7003D0452F03D1013501E0032360
:1031B00000E0022307AA049206AA03928DE82804DD
:1031C0002246334602F088FA472F804602D1119BEF
:1031D000DB0728D5462F08EB050911D198F80030F8
:1031E000302B0AD1002200232046314604F004FF90
:1031F00018B9C5F10105CAF80050DAF80030994451
:10320000002200232046314604F0F6FE08B93022A1
:1032100002E0CDF81C9006E0079B994503D9591CA4
:1032200007911A70F8E74046079B159AC8EB03030D
:10323000136008B0BDE8F087034673B50029B8BF36
:10324000494203F8022BB4BF2D222B2209294270D8
:103250001ADD0DF1070216460A2591FBF5F405FB70
:103260001411092C01F1300102F8011D2146F4DC92
:103270003031541E02F8011CB4421A460AD214F826
:10328000012B03F8012BF7E71A463024214402F8FA
:10329000024B5970101A02B070BD00002DE9F04FBA
:1032A0008FB00C4616461F46DDF86080054603F0D9
:1032B00023FBD0F800B0584601F021F900230C930D
:1032C000D8F800300890073323F0070303F1080211
:1032D00094F81890C8F80020D3E90023C4E9122319
:1032E000D4E9120100F02CFF012819D1D4E9120110
:1032F0000022002304F08AFE10B12D2384F843300D
:103300009A4B9B4AB9F1470F8CBF904698460323CE
:103310002361236823F0040323604FF0000A93E045
:10332000D4E9120100F00CFF236848B9914A924990
:10333000B9F1470F8CBF8846904603222261E9E726
:10334000D4F804E0D4E91201BEF1FF3F01D1062216
:103350000AE0B9F1670F02D0B9F1470F05D1BEF10C
:10336000000F40F0B68101226260002243F48063C6
:1033700006920CAA2360059201930BAA636803923C
:103380000DF12B020292009302460B46CDF81090ED
:103390002846FFF7F1FE09F0DF03472B804609D1ED
:1033A0000B9BD81C02DB6268934230DDA9F1020955
:1033B0005FFA89F9B9F1650F0B9912D801394A46BC
:1033C00004F150000B91FFF737FF0C9A82468318E7
:1033D000012A236102DC2268D1072FD50133236142
:1033E0002CE0B9F1660F14D10029636807DD216173
:1033F00013B92268D2071DD501330B4419E013B964
:103400002268D00701D5023313E0012311E04FF009
:1034100067090B9B0C9A934205DB22682361D10755
:1034200008D5013305E0002BD4BFC3F1020301230B
:10343000134423610B9B4FF0000AA3659DF82B30CA
:1034400013B12D2384F84330009733460DAA21464B
:10345000284600F059F9013002D14FF0FF3050E119
:1034600023685A0501D4236965E0B9F1650F40F27C
:10347000D580D4E912010022002304F0BDFD78B309
:1034800001233E4A31462846B8470130E5D00C9B1F
:103490000B9A9A420BDB2368D80708D423689B0752
:1034A00040F111814FF0000804F1190906E1089B71
:1034B0005A4631462846B8470130CED04FF0000872
:1034C00004F11A090C9B013B9845E7DA01234A46AF
:1034D00031462846B8470130BFD008F10108F1E76E
:1034E0000B9B002B29DC0123244A31462846B84790
:1034F0000130B2D00B9B23B90C9B13B92368D907B9
:10350000CCD5089B5A4631462846B8470130A4D04E
:103510004FF0000904F11A0A0B9B5B42994509DA46
:103520000123524631462846B847013095D009F16B
:103530000109F1E70C9B4246A7E00C9AA36D9A4261
:10354000A8BF1A46002A914607DC04F11A034FF07F
:10355000000A29EAE97909931CE0134631464246FC
:103560002846B8470130F0D177E700BFF58F00005B
:10357000F98F0000FD8F0000019000004E900000C8
:103580000123099A31462846B84701303FF465AF18
:103590000AF1010AA36DC9EB03029245F0DB08EBC7
:1035A00003090B9A0C9B9A420FDB2368DA070CD4B1
:1035B0000C9B0B9A9844C9EB08089B1A9845A8BF26
:1035C0009846B8F1000F08DC0FE0089B5A463146D8
:1035D0002846B8470130EBD13FE743464A463146DB
:1035E0002846B84701303FF438AF4FF0000928EAC9
:1035F000E87804F11A0A09E00123524631462846C8
:10360000B84701303FF429AF09F101090B9A0C9B2F
:103610009B1AC8EB03039945EEDB3FE70C9A012A9E
:1036200001DCDB0738D50123424631462846B8473E
:1036300001303FF412AF089B5A4631462846B8473E
:1036400001303FF40AAFD4E912010022002304F054
:10365000D3FC20B14FF0000804F11A090EE00C9BD6
:1036600008F10102013B19E001234A463146284690
:10367000B84701303FF4F1AE08F101080C9B013B63
:103680009845F1DB534604F1500231462846B847CD
:1036900001307FF403AFE0E642460123314628467D
:1036A000B8470130EED1D8E601234A4631462846D4
:1036B000B84701303FF4D1AE08F10108E3680D9A34
:1036C0009B1A9845F0DBE0680D9B9842B8BF1846FE
:1036D00017E0002206920CAA05920BAA43F480631D
:1036E00003920DF12B022360029201930246CDF862
:1036F0001090CDF800E00B462846FFF73DFD8046D0
:103700004EE60FB0BDE8F08F2DE9F04791461F4619
:103710000A698B6806469342B8BF1346C9F8003061
:1037200091F843200C46DDF8208012B10133C9F82E
:1037300000302368990642BFD9F800300233C9F837
:103740000030256815F0060510D104F1190A07E0CC
:103750000123524639463046C04701301AD0013560
:10376000E368D9F800209B1A9D42F1DB94F84330BE
:103770002268003318BF012392060FD5E1183020CC
:1037800081F843005A1C94F845102244023382F811
:10379000431003E04FF0FF30BDE8F08704F143022F
:1037A00039463046C0470130F4D02268D9F800507D
:1037B000E36802F00602042A08BF5D1B2269A368C1
:1037C0000CBF25EAE57500259342C4BF9B1AED188E
:1037D0004FF000091A344D4509D0012322463946DD
:1037E0003046C0470130D5D009F10109F3E7002088
:1037F000BDE8F0872DE9F04317460A7E85B06E2AB2
:10380000984606460C460C9B01F1430E00F0AE8034
:1038100011D8632A22D009D8002A00F0BB80582A88
:1038200040F0CA8081F84520834955E0642A1ED0C3
:10383000692A1CD0C0E0732A00F0B08009D86F2A32
:103840002ED0702A40F0B8800A6842F020020A6048
:103850003EE0752A24D0782A3AD0ADE01A6801F10A
:103860004205111D1960136884F84230A8E02168F0
:103870001A6811F0800F02D0111D196008E011F0D4
:10388000400F02F10401196002D0B2F9003000E0EB
:103890001368002B3CDA2D225B4284F8432037E08A
:1038A00021681A6811F0800F02D0111D196007E01D
:1038B00011F0400F02F10401196001D0138800E0FB
:1038C0001368227E5C496F2A14BF0A2208221BE07B
:1038D00078225A4984F845202268186812F0800F2F
:1038E00000F104051D6003D1550601D5038800E0F1
:1038F0000368D00744BF42F0200222601BB922684F
:1039000022F0200222601022002084F8430001E00F
:1039100049490A226568002DA56008DB206820F06F
:10392000040020602BB9002D7DD175460CE0002BE2
:1039300079D07546B3FBF2F002FB1033CB5C05F88F
:10394000013D03460028F5D1082A0BD12368DA0788
:1039500008D5236962689A42DEBF302305F8013C2E
:1039600005F1FF35C5EB0E0323612EE008681A68E8
:1039700010F0800F496903D0101D1860136808E02B
:1039800010F0400F02F104001860136801D0198094
:1039900000E0196000232361754616E01A68111DC6
:1039A00019601568002162682846FFF7DDF908B143
:1039B000401B6060636804E004F1420584F8422023
:1039C00001232361002384F84330CDF800803B4677
:1039D00003AA21463046FFF797FE013002D14FF08F
:1039E000FF3026E023692A4639463046C047013079
:1039F000F5D023689B0710D5002504F1190907E0CD
:103A000001234A4639463046C0470130E7D00135E8
:103A1000E368039A9B1A9D42F2DBE068039B98429D
:103A2000B8BF184605E00B7804F1420584F842302F
:103A30008AE705B0BDE8F08305900000169000000D
:103A40002DE9F04F9A468B6816465A1EB2F5AE7FA6
:103A500088BF6FF4AE7287B082BF9B18019340F2AB
:103A60005D13884696BF00238B6001930B684FF06F
:103A7000000B43F4F06348F81C3B07460C464546F0
:103A80005A46D946CDF810B0CDF80CB0CDF808B0F4
:103A9000A168002900F0E58033681B78492B70D0BD
:103AA00016D8392B0DD8312B40D22D2B46D002D829
:103AB0002B2B43D0D5E02E2B00F09280302B23D03F
:103AC000CFE0452B00F09580462B77D0412B0CE0C2
:103AD000652B00F08E800AD8542B75D002D84E2B5F
:103AE00034D0BEE0592B75D0612B46D0B9E06E2B97
:103AF0002CD004D8662B61D0692B42D0B1E0742B56
:103B000062D0792B66D0ACE0206810F4807F0DD0B5
:103B1000019B20F08000206009F10109002B00F0DA
:103B20008780013B01310193A16081E012EB0B0F13
:103B300040F09780216821F4C07105E021680806F3
:103B400040F18F8021F0800121606FE06AB9B9F106
:103B5000000F0CD1216801F4E060B0F5E06F06D1F0
:103B600021F4F0612160012260E0022A5DD0BBF106
:103B7000010F1ED0BBF1040F1AE0012A71D10222FD
:103B800054E0BBF1000F0ED1B9F1000F6CD12168E8
:103B900001F4E060B0F5E06F6AD121F4F0612160DA
:103BA0004FF0010B42E0BBF1030F02D0BBF1050F58
:103BB00057D10BF1010B5FFA8BFB37E0BBF1020F22
:103BC0004FD14FF0030B31E0BBF1060F49D14FF05D
:103BD000070B2BE0BBF1070F43D14FF0080B25E09B
:103BE000216888053DD521F420712160CDF8089029
:103BF0001CE0216801F4A060B0F5806F04D0480596
:103C00002FD5B9F1000F33D0880558BF029821F4A1
:103C1000F06158BFC0EB090041F4C0715CBF039074
:103C2000049521604FF0000900E003222B7001355C
:103C3000A368013BA3602369013323617368013BDF
:103C4000002B736003DD33680133336020E7D4F861
:103C500080313146384605929847059A00283FF44E
:103C600017AFB9F1000F03D0236823F480732360EA
:103C7000013A012A0ED845450AD9D4F87C3132469A
:103C800015F8011D384698472369013B2361F2E787
:103C90000126AAE00BF1FF33062B22D8BBF1020F5D
:103CA00012D9ABF1030B5FFA8BFBCBEB050B5D4538
:103CB00017D0D4F87C31324615F8011D38469847A4
:103CC0002369013B2361F2E74545E1D9D4F87C3112
:103CD000324615F8011D384698472369013B236198
:103CE000F2E72368DA052CD55B050CD54545CFD91D
:103CF000D4F87C31324615F8011D384698472369BF
:103D0000013B2361F2E715F8011C2369652903F1E2
:103D1000FF3305F1FF3B23610DD045290BD0D4F8CB
:103D20007C31324638469847236915F8021C013B1E
:103D3000A5F1020B2361D4F87C313246384698470E
:103D40005D46266816F010064ED12E70236803F4E7
:103D5000C063B3F5806F05D1029BC3EB09035A42E0
:103D600063B915E0039B9BB104990A2332460131E4
:103D7000384601F005FA039B049DC21A04F26F1342
:103D80009D4228BF04F5B7751A49284600F01AFB72
:103D900000224146384600F0F3FB2268804612F0CC
:103DA000020F8946DAF8003003D01A1DCAF8002045
:103DB00006E012F0040F03F10402CAF8002003D059
:103DC0001B68C3E900890BE01D6800F0B9F910B960
:103DD00000F0AEFA03E04046494604F087F9286057
:103DE000E3680133E36000E00026304607B0BDE839
:103DF000F08F00BF279000002DE9F84315468A6830
:103E000080460C4632B98A69002A0CBF01224FF065
:103E1000FF328A602268DFF8A890D10658BF1A687E
:103E20004FF000065EBF111D19601768A069F8B950
:103E300023680136DA065EBF2B681B783B702A6860
:103E40006B6802F101022A60A26803F1FF3302F1FC
:103E5000FF326B6058BF0137A260E2B1002BE5DC96
:103E6000D4F880312946404698470028DED012E039
:103E7000012806D12B681A7863699B5C002BD7D187
:103E800019E0022807D12B68D9F800201B781344C9
:103E90005B781B07CCD5236813F0100305D1E268CB
:103EA0000132E260A26902B13B70236900201E4426
:103EB0002661BDE8F883002EEDD1BDE8F88300BF90
:103EC000B80300102DE9F04F0C469A46724B87B0AC
:103ED0008346164693E8070003ABA76883E807000C
:103EE0006E4BA1696E4A04F11C09032918BF1A46DA
:103EF0007B1EB3F5AE7F84BF40F25D13A3602368E1
:103F000088BF6FF4AE7543F4506323604B46009254
:103F10008CBF7F1900274FF000083168019303AB75
:103F200053F8280002220978FEF71EFF019B0028A3
:103F300033D0B8F1010F0BD162682AB90822626050
:103F4000226842F400722260226822F4A0620CE02F
:103F5000B8F1020F0AD1226802F4C061B1F5007F06
:103F60001BD11021616042F480722260A268511E50
:103F7000A16092B132685D1C511C316012781A70D8
:103F80007368013B002B736006DCD4F88031314646
:103F900058469847002841D12B4608F10108B8F14E
:103FA000030FBAD162680AB90A22626062683D49A9
:103FB0006069891A019300F0FBF8019B4FF000083B
:103FC0001D46A36863B3316860690A78805C38B3C2
:103FD000302A226808D1100506D508F1010857B12A
:103FE0000133013FA36006E022F4106222600B78E7
:103FF000013505F8013C7368013B002B736003DD5C
:1040000033680133336005E0D4F8803131465846D7
:10401000984728B9A368013BA360D2E74FF0000896
:104020002368D9050CD54D4508D915F8011C6F1E1C
:10403000D4F87C313246584698473D464D4527D006
:10404000226812F010021BD12A7063684946584654
:10405000009EB0472268DAF8003012F0200F07D136
:10406000D20705D51A1DCAF800201B68188004E085
:104070001A1DCAF800201B681860E3680133E3606A
:104080002369C9EB050545441D442561002000E076
:10409000012007B0BDE8F08F2C9000008D52000089
:1040A000815100004890000038B5074C054608468D
:1040B0001146002222601A46FCF76AFF431C02D117
:1040C000236803B12B6038BDA4070010194B10B54D
:1040D0001C68A36BD3B91820FEF736FE43F20E33EB
:1040E000A06303804AF6CD33438041F234238380BA
:1040F0004EF26D63C3804DF6EC630381052343816B
:104100000B23838101220023C0E90423A16B0A4C05
:104110000B6948695C43094A02FB0040A3FB022388
:104120000132034443F10003C1E9042323F00040BA
:1041300010BD00BFB40300102DF451582D7F954CD5
:1041400031F0004310B51BD00F4AA1F58014944202
:1041500010D901F1FF410C4A01F5E001914209D962
:10416000B3F5801F08D3094A934207D1B0FA80F013
:10417000400910BD042010BD032010BD002010BD5B
:104180000028E6D1022010BDFFFFDF7F0000F07F96
:1041900038B5064C0023054608462360FDF718F89D
:1041A000431C02D1236803B12B6038BDA407001063
:1041B00070B50B78441E5E2B13BF4A1C8A1C4B78CB
:1041C000002108BF012100F1FF0504F8011FAC42E6
:1041D000FBD10BB9501E70BD81F001041146C454CF
:1041E0000D784A1C2D2D06D05D2D0FD00DB12B461C
:1041F000F4E7084670BD4E785D2EF8D0B342F6DC89
:10420000023101339E42C454FBDCE9E7104670BD25
:1042100000294FF480630CBF0222002200F000B896
:104220002DE9F0411D463D4B04461E680F46904661
:1042300026B1B36913B93046FEF7B2FB384B9C4246
:1042400001D1746808E0374B9C4201D1B46803E0A7
:10425000354B9C4208BFF468B8F1020F59D8002DC5
:1042600057DB21463046FEF71FFB00236360A36146
:10427000A3891B0603D521693046FEF797FDA38964
:10428000B8F1020F23F08303A38112D037BB002DB6
:1042900008BF4FF480652846FEF756FD0746C8B9AB
:1042A0004FF48060FEF750FD074688B94FF0FF30AD
:1042B00000E00020A38943F00203A3810023A36050
:1042C00004F147032360236101236361BDE8F081AA
:1042D0004FF48065A38943F08003A381B8F1010FF7
:1042E00005D1A38943F00103A3816B42A3610F4B66
:1042F000B362A389276003F0080080B2276165617B
:1043000048B113F0030F18BF0025A5600020BDE8D9
:10431000F0814FF0FF30BDE8F08100BFB403001022
:104320007C8F00009C8F0000BC8F000021290000C2
:10433000004870470000C07F1F2938B504460D466D
:1043400004D9162303604FF0FF3038BD426C12B120
:1043500052F821304BB9204600F032F82A46014687
:104360002046BDE8384000F019B8012B0CD0591C8C
:1043700003D116230360012038BD0024284642F8EB
:1043800025409847204638BD002038BD024B0146E5
:104390001868FFF7D1BF00BFB403001038B5074C51
:1043A0000023054608461146236004F011FA431C19
:1043B00002D1236803B12B6038BD00BFA4070010F1
:1043C00004F0FEB90EB400B54FF402719CB0ADF824
:1043D00014106FF00041049107914FF6FF711DAB6F
:1043E00002900690084853F8042BADF816100068A8
:1043F00002A9019302F026FF029B00221A701CB052
:104400005DF804EB03B07047B40300100EB430B590
:104410009CB01FAC4FF4017254F8045BADF814204B
:104420000290069000F06BF80B4B03900B93002367
:104430000F9314934FF6FF7307900848ADF81630AA
:104440002A46234602A90068019403F04BF81CB0E9
:10445000BDE8304003B0704783440000B40300104F
:1044600010B50C46B1F90E1003F08AF90028ABBF65
:10447000636DA3891B1823F48053ACBF6365A381CC
:1044800010BD002070472DE9F0411F468B8905467D
:10449000DB050C46164605D502230022B1F90E10A5
:1044A00002F02EFAA389324623F48053A381B4F993
:1044B0000E103B462846BDE8F04100F0F3BF10B5B2
:1044C0000C46B1F90E1002F01BFA431CA38915BF6C
:1044D000606523F4805343F48053A38118BFA38104
:1044E00010BDB1F90E1001F05BB810F8012B11F8F6
:1044F000013B012A28BF9A42F7D0D01A70470346E1
:1045000013F8012B002AFBD1181A0138704730B577
:1045100082B1451E013915F8013F11F8014FA34240
:1045200006D1EC431444E04201D0002BF3D11C46E9
:10453000181B30BD104630BD2DE9F0410F469046A6
:1045400002F0D0FC04460D46B8F1000F11D0C7F3BD
:104550000A53C3F16B03002B0BDD1B0503F17F55E1
:10456000002405F5401522462B4603F0DDFABDE890
:10457000F08120462946BDE8F081000000000000DF
:104580002DE9F04F82460C469DB0002313921893FC
:104590004FF000084FF000091791179B1A780D2A69
:1045A00005D8092A13D2002A00F0AD8112E02B2A87
:1045B00004D02D2A04D0202A0CD108E0002200E0EB
:1045C00001220C925A1C17925B782BB99BE10133A4
:1045D0001793E2E700230C93179D2B78302B5CD1C7
:1045E0006B78582B01D0782B4CD10C9BA84A0193A7
:1045F00018AB009317A919AB504601F09AFE10F0C2
:104600000706044600F08585062E05D101350023F6
:1046100017950C9300F07DBD189A3AB135211AA870
:1046200002F047FD1899504602F0CCF9062E22D828
:10463000DFE806F0040D08181D0D04004FF0000916
:10464000C84618E0DDF86880DDF86C9013E01B9B2D
:10465000199A23F4801302F23342DDF8688043EAAA
:10466000025908E0DFF82C924FF0000803E06FF0E9
:1046700000494FF0FF38210740F14B8549F00049D0
:1046800000F047BD179B5A1C17925B78302BF9D06E
:10469000002B00F03E85012300E000230593179BCB
:1046A0000A22069300239B4602930493179D2E78BB
:1046B000A6F13003D9B2092911D8BBF1080FD5BF33
:1046C0000499029902FB013302FB013305F1010554
:1046D000D4BF049302930BF1010B1795E6E7504604
:1046E00002F00AF90768504602F006F90068FFF781
:1046F00006FF394602462846FFF709FF074628B15C
:10470000002033465D46024601465AE0504602F01C
:10471000F3F80068FFF7F3FE179B1A1817921B5C5B
:10472000BBF1000F45D15846302B05D1179B013006
:104730005A1C17925B78F7E7A3F13102082A46D892
:10474000179A0692024600200546303B00F101010F
:1047500029D00A44294605EB000C0A2661450FD0F2
:10476000013101F1FF3EBEF1080F03DC049F7743E6
:104770000497F3E71029DEBF029F77430297EDE726
:104780002844082800F1010505DC04980A2101FBF2
:104790000033049306E0102DDFBF02980A2101FBCD
:1047A000003302930021179B581C17905B78084632
:1047B00002E05D4638463A46A3F130010929C4D9E2
:1047C0000121652B01D0452B4FD16DB904E0652B3C
:1047D00040F0AD840022012128B9059B002B00F098
:1047E0009280054600E00025179C631C17936378B0
:1047F0002B2B06D02D2B02D00026039606E001239A
:1048000000E000230393A31C1793A378A3F13006C1
:10481000092E29D8302B04D1179B5E1C17965B7884
:10482000F8E7A3F13106082E1FD8A3F1300E179B2D
:104830001F46179B5E1C17965B78A3F1300CBCF1EA
:10484000090F05D80A2606FB0E3EAEF1300EF0E742
:10485000F61B082E44F61F6602DC7645A8BF764696
:10486000039F1FB1764201E017940026002D52D11C
:10487000002840F04E84059A002A40F04A8400291E
:1048800041D14E2B20D007DC492B0AD03BE000BFA2
:10489000689000000000F07F692B02D06E2B13D0CF
:1048A00031E0AA4917A801F075FF60B3179BA8492A
:1048B000013B17A8179301F06DFF10B9179B013347
:1048C0001793DFF8A8921AE0A24917A801F062FF37
:1048D000C8B1179B1B78282B0FD11AAA9E4917A87D
:1048E00001F06BFF052808D11B9BDDF8688043F0C1
:1048F000FF4949F4E00900F00CBCDFF874924FF076
:10490000000800F006BC139B1794002B00F00C84E9
:1049100000230C93FFE32C46BBF1000F08BFAB460E
:104920000498102DA8BF1024B71A03F087F8092C9B
:104930008046894613DD894B03EBC40353E91223F8
:1049400003F0F2F880460298894603F077F80246B1
:104950000B464046494602F035FF804689460F2DFA
:1049600033DC002F00F0D58322DD162F07DC7B4DD2
:10497000424605EBC7014B46D1E9000113E0C5F102
:1049800025039F4221DC754CC5F10F0504EBC501E1
:104990007D1B4246D1E900014B4604EBC50403F000
:1049A000C3F8D4E9002303F0BFF880468946B0E39A
:1049B00017F1160F09DB694D4046A5EBC703D3E994
:1049C0000023494603F0DAF9EFE72C1B3C44002CA6
:1049D0005DDD14F00F010AD0604B424603EBC101CC
:1049E000D1E900014B4603F09FF88046894634F038
:1049F0000F0400F0C180B4F59A7F0FDD4FF0000B7B
:104A0000CDF808B0CDF814B0CDF810B02223CAF814
:104A10000030DFF858914FF0000889E140464946E0
:104A200000234F4E24110293012C0CDDE20704D524
:104A3000D6E9002303F078F80123029A64100132CA
:104A400002920836F0E70BB180468946444B029A41
:104A5000A9F1547903EBC201D1E9000142464B466A
:104A600003F062F821F0004389460A461B0D3D49D8
:104A70001B058B428046C1D8A1F580118B4286BFB1
:104A8000DFF8F0904FF0FF3802F1547974E073D002
:104A9000644214F00F020AD0304B404603EBC203CD
:104AA0004946D3E9002303F069F980468946241179
:104AB00062D01F2C08DD4FF0000BCDF808B0CDF808
:104AC00014B0CDF810B02CE14046494614F0100F58
:104AD0000CBF00236A23244E03930023002C09DD1E
:104AE000E20704D5D6E9002303F01EF80123641081
:104AF0000836F3E70BB180468946039BEBB1C9F357
:104B00000A53C3F16B03002B494616DD1F2B0EDD44
:104B1000342BDEBF203B4FF0FF3202FA03F34FF09D
:104B20000008CCBF4FF05C7903EA010905E04FF0C3
:104B3000FF3202FA03F303EA08080022002340468A
:104B4000494603F059FA0028B5D117E0FA8F000062
:104B5000AC9100000290000054900000C091000051
:104B6000989200000000A07C809000000000F07F80
:104B70000000F8FFFFFFEF7F00230393049B5A46DA
:104B8000009306992B46504601F06EFF05900028D1
:104B90003FF434AF002FC7F10003A8BF00230D93EB
:104BA0004FF0000B27EAE7731293CDF808B0059B8E
:104BB0005046596801F0D1FE049000283FF426AF1A
:104BC000059B0C301A6903F10C0102329200FEF7CA
:104BD000D9F81AAB019319AB009342464B465046A5
:104BE000CDE9088902F0EFF9189000283FF40EAFE4
:104BF0000121504601F0C3FF029000283FF406AFA8
:104C0000199B0399002BACBF0D9A129A1A9CACBF4A
:104C1000D618D21AA3EB01032344B14903F1FF33A1
:104C2000ACBF129A0D9E8B42C4F1360480F285808F
:104C3000C91A1F29C8BFAB4D4FF00107D4BF07FAEF
:104C400001F3ED1AA4EB0104D9BF0793002507FA7D
:104C500005F507973719039BBE4214441C4433469D
:104C6000A8BF3B46A342A8BF2346002BC2BFFF1AE2
:104C7000E41AF61A0D9B002B63D1002F7ADC129BED
:104C8000002B40F08180002C00F38880002E00F380
:104C90008F80049A1899504602F0C5F88346002880
:104CA0003FF4B4AEC3680024C4600299069302F0D6
:104CB0009EF8A04280F28B80069B002B40F002827F
:104CC000B8F1000F40F0FE81C9F31303002B40F050
:104CD000F98129F000431B0D1B05B3F1D66F40F29B
:104CE000F181DBF81430002B6CD05946012250467C
:104CF00002F02CF80299834602F079F8002840F37C
:104D0000E18129F00043039A1B0D1B05002A00F0E6
:104D10008D80B3F1D66F00F38980B3F15C7F00F32F
:104D2000D38122234FF000084FF00009CAF8003069
:104D3000059B002B40F0D981EBE10123002507936F
:104D400088E71A460299504601F0B2FF0290002807
:104D50003FF45CAE0146189A504601F019FF0690E8
:104D600000283FF453AE1899504601F02BFE069BE5
:104D7000189382E73A461899504601F0E7FF1890D9
:104D800000287FF47CAF41E6129A0499504601F066
:104D90008FFF049000287FF476AF37E6224604990F
:104DA000504601F0D3FF049000287FF46FAF2DE64A
:104DB00032460299504601F0C9FF029000287FF464
:104DC00068AF23E6DBF81030012B8EDC7AE161D18D
:104DD000069AC9F3130322B343494A468B422ED1A4
:104DE000039B414663B1414B1340B3F1D46F07D8E5
:104DF0001B0DC3F16B034FF0FF3000FA03F301E02A
:104E00004FF0FF338B421AD139498A4202D1013324
:104E10003FF4FCAD354B4FF00008134003F580190B
:104E200050E163B9B8F1000F09D16AE7A3F5801327
:104E30006FEA13594FF0FF386FEA095942E115B193
:104E400015EA090F02E0079B13EA080F00F03A8108
:104E5000069B039A4046494653B1FFF76DFB024655
:104E60000B46DDE9080102F0ADFC8046894629E1E8
:104E7000FFF762FB02460B46DDE9080102F0A0FCE9
:104E8000002200238046894603F0B6F800287FF40C
:104E900048AF17E10299584602F0E3F800224FF0BC
:104EA000804306460F4603F0BBF800283FD0069B20
:104EB00013B100260F4F10E0B8F1000F03D1C9F372
:104EC00013033BB91AE0B8F1010F03D1B9F1000F98
:104ED0003FF427AF084F00260024064D3CE000BFFA
:104EE00002FCFFFFE2FBFFFFFFFF0F000000F07F6F
:104EF000FFFFEF7F0000F03F0000F0BF00229A4B61
:104F00003046394603F082F840B90022974B3046CC
:104F1000394602F009FE04460D4601E0069C934D19
:104F200005F1004314941593DDE9146714E08F4BE9
:104F300000223046394602F0F7FD069B04460D4636
:104F400023B901F100430E900F9303E002460B4694
:104F5000CDE90E23DDE90E6729F000431B0D1B058B
:104F60000793079A824B9A422BD1DDE90823A9F1D6
:104F7000547940464946CDE90A2301F0B3FF024681
:104F80000B463046394602F0CFFD42464B4602F012
:104F900019FC21F000431B0D764A1B059342804605
:104FA0000CD9754B0B9A9A4203D10A9B01333FF4FB
:104FB0002DADDFF8C4914FF0FF3872E001F1547964
:104FC00039E0039B3BB3079BB3F1D46F23D85EA3B7
:104FD000D3E900232046294603F022F8B8B1294638
:104FE000204603F063F8002808BF012002F026FDE8
:104FF000069B04460D4623B901F10043109011931E
:1050000003E002460B46CDE91023DDE91067079A5D
:1050100007F1D6639F1ADDE9080101F063FF02463C
:105020000B463046394602F07FFDDDE9082302F0E9
:10503000C9FB80468946039B9BBB29F000431B0D9F
:10504000079A1B059A424E462BD12946204603F06B
:1050500005F802F003FD0B4602462946204602F001
:10506000AFFB069B04460D462BB9B8F1000F02D1E9
:10507000C9F313067EB136A3D3E90023204629469F
:1050800002F0C4FF88BB34A3D3E90023204629469D
:1050900002F0DAFF04E032A3D3E9002302F0B6FF06
:1050A00018BB1899504601F08DFC0499504601F048
:1050B00089FC0299504601F085FC5946504601F0A2
:1050C00081FC74E5039B83B12C4B40460B9300237A
:1050D0000A934946DDE90A2302F026FD8046894607
:1050E00019B910B92223CAF800301899504601F0B6
:1050F00069FC0499504601F065FC0299504601F0A4
:1051000061FC0599504601F05DFC5946504601F09E
:1051100059FC139B13B1179B139A13600C9B1BB183
:10512000424609F1004307E042464B4604E00025B1
:105130002A460121FFF747BB104619461DB0BDE8BE
:10514000F08F00BFAFF300800000C0FFFFFFDF4122
:105150009535A094FFFFDF3F35E5AF350000E03F18
:105160009535A094FFFFCF3F0000F03F0000E03FE7
:105170000000E07FFFFF9F7CFFFFEF7F00005039C2
:105180002DE9F0470F4680463F48D0F800903D4655
:1051900015F8014B09EB0400407800F0080000F01E
:1051A000FF0608B12F46F2E72D2C03D1BD1C7C78F9
:1051B000012603E02B2C04BF7C78BD1C13B1102BFF
:1051C0000AD15BE0302C57D1287800F0DF00582856
:1051D0004DD16C7810230235002E14BF4FF0004CD7
:1051E0006FF0004CBCFBF3FA0027384603FB1ACCE7
:1051F00009EB040E9EF801E01EF0040F01D0303CD4
:105200000BE01EF0030E1BD0BEF1010F0CBF4FF0E0
:10521000370E4FF0570ECEEB0404A34210DDB7F16A
:10522000FF3F0AD0504506D801D1644503DC03FB9B
:105230000040012701E04FF0FF3715F8014BD7E799
:105240007B1C0CD1002E4FF0220314BF4FF0004006
:105250006FF00040C8F800302AB9BDE8F08706B109
:10526000404272B107B1691E1160BDE8F087302479
:10527000002BB1D10823AFE70A23ADE7302CA3D030
:10528000AAE7BDE8F08700BFB80300102DE9F0479A
:105290000E4680463B48D0F80090354615F8014B45
:1052A00009EB0400407800F0080000F0FF0708B1A7
:1052B0002E46F2E72D2C03D1B51C7478012703E0AC
:1052C0002B2C04BF7478B51C13B1102B0AD153E0FA
:1052D000302C4FD1287800F0DF00582845D16C7869
:1052E000102302354FF0FF3CBCFBF3FC03FB0CFA30
:1052F00000266FEA0A0A304609EB040E9EF801E028
:105300001EF0040F01D0303C0BE01EF0030E1AD04B
:10531000BEF1010F0CBF4FF0370E4FF0570ECEEB22
:105320000404A3420FDD002E08DB604506D801D13E
:10533000544503DC03FB0040012601E04FF0FF363B
:1053400015F8014BD8E7002E07DA2223C8F8003001
:105350004FF0FF302AB9BDE8F08707B1404272B183
:1053600006B1691E1160BDE8F0873024002BB9D169
:105370000823B7E70A23B5E7302CABD0B2E7BDE886
:10538000F08700BFB80300102DE9F0410C46496BCF
:1053900004F1440399421AD14FF48061FDF74AFDAC
:1053A00018B94FF0FF30BDE8F0814FF48063A3637C
:1053B00094F84630606380F8FF3394F8453000F28B
:1053C000FD30437094F844300370206012E0A66B07
:1053D00077003A4601F0B7FE05460028E1D000EB21
:1053E0000608014632464046FDF7CCFCC4F8008072
:1053F0006563A7630020BDE8F0810000F8B50F46A3
:105400001446064618B183690BB9FDF7C9FA224B59
:105410009C4201D1746808E0204B9C4201D1B468E1
:1054200003E01F4B9C4208BFF468A369A360A389F3
:105430001A0709D523693BB123682069FDB2181A00
:10544000636998420FDB08E02146304600F03CF8E3
:105450000028F1D04FF0FF30F8BD21463046FDF76F
:1054600023FA0028F6D1A368013BA36023685A1CE5
:1054700022601F706269431C934204D0A389DB073A
:1054800007D50A2D05D121463046FDF70DFA002833
:10549000E0D12846F8BD00BF7C8F00009C8F000043
:1054A000BC8F000038B5074C05460846114600225F
:1054B00022601A46FBF7FEFD431C02D1236803B1AC
:1054C0002B6038BDA4070010314B70B51D6806462F
:1054D0000C4625B1AB6913B92846FDF761FA2D4B8F
:1054E0009C4201D16C6808E02B4B9C4201D1AC6816
:1054F00003E02A4B9C4208BFEC68A3899AB21107CB
:105500001DD4D50602D40922326038E0500712D5E6
:10551000616B41B104F14403994202D03046FDF77A
:1055200045FC00236363A38923F02403A3810023A4
:10553000636023692360A38943F00803A38123697F
:105540004BB9A38903F42073B3F5007F03D0214640
:105550003046FDF7ADFBA38913F0010205D0002210
:10556000A26062695242A26103E0990758BF626972
:10557000A26022694AB903F0800080B230B143F0E2
:105580004003A3814FF0FF3070BD002070BD00BF0D
:10559000B40300107C8F00009C8F0000BC8F0000C3
:1055A00038B5064C0023054608462360FBF76EFD20
:1055B000431C02D1236803B12B6038BDA40700103F
:1055C0002DE9F74F03690C6980469C427FDC013C62
:1055D00001F114074FEA840E00F1140606EB0E03E6
:1055E00057F82450019356F824300135B3FBF5F5F4
:1055F00007EB0E09C5B34FF0000A3846B446D34650
:1056000050F8043B9AB205FB02A21B0C4FEA124A67
:1056100005FB03A392B2C2EB0B0BBCF800204FEAD0
:10562000134A5A441FFA83FBDCF800308145CBEB68
:10563000134303EB224392B242EA03424FEA234B65
:105640004CF8042BDCD256F80E306BB9019B043BAE
:105650009E421A4602D3C8F8104005E01268043B87
:10566000002AF8D1013CF3E7404601F0C0FB0028D6
:105670002BDB304601354FF0000E57F8042B036842
:1056800091B2C1EB0E0E120C99B27144C2EB1343EE
:1056900003EB214389B24FEA234EB94541EA034364
:1056A00040F8043BE9D256F8242006EB840362B9A3
:1056B000043B9E421A4602D3C8F8104005E0126827
:1056C000043B002AF8D1013CF3E7284600E0002023
:1056D00003B0BDE8F08F00002DE9F04F456A95B0AA
:1056E0008246219CCDE9022345B91020FDF72CFB11
:1056F000CAF82400456085600560C560DAF824308A
:10570000196859B15A68012393404A608B6050462A
:1057100001F058F9DAF8243000221A60039BA04AFD
:10572000002BBDBF01232360039B0023BCBF23F0DC
:1057300000430393DDF80C80A8BF236028F00043EA
:105740001B0D1B0593421DD142F20F73209A13606B
:10575000029B43B9934A944BC8F31300002814BF2B
:105760001846104600E09048229B002B00F046852A
:10577000C37813B100F1080300E0C31C229A136040
:1057800000F03CBDDDE90245002200232046294609
:1057900002F032FC074658B1209A01231360229B85
:1057A000002B00F01E8581481860013800F026BDEE
:1057B00012AB019313AB009322462B46504601F0E7
:1057C00002FCC8F30A56049056B1C5F3130343F024
:1057D0007F51204641F44011A6F2FF3611971DE09B
:1057E000139B129E1E4406F23243202B0ADD029ABE
:1057F00006F21240C3F1400322FA00F008FA03F364
:10580000184304E0C3F12000029B03FA00F002F009
:1058100015F90123A1F1F871013E11930022644BA7
:1058200001F0CEFF58A3D3E9002302F07DF958A37D
:10583000D3E9002301F0C6FF044630460D4602F0CE
:105840000DF955A3D3E9002302F06EF902460B4689
:105850002046294601F0B6FF04460D4602F0FEFB45
:105860000022834600232046294602F0CFFB58B190
:10587000584602F0F3F802460B462046294602F04D
:10588000BBFB08B90BF1FF3BBBF1160F0DD8DDE9EF
:105890000223484901EBCB01D1E9000102F0D4FB1E
:1058A00030B10BF1FF3B002300E00123109300E037
:1058B0001090129B9E1B731E079343BFC3F10008F9
:1058C000002307934FF00008BBF1000F06DB079B96
:1058D000CDF82CB05B440793002705E00023CBEB09
:1058E0000808CBF100070B931E9B092B28D8052B2A
:1058F000C4BF043B1E931E9BC8BF0025A3F1020337
:10590000D8BF0125032B20D8DFE803F0060E0204E0
:10591000012302E0012308E000230A931F9B002BD0
:105920001DDD9946059321E000230A931F9B0BEB95
:10593000030909F10103012B0593B8BF012315E009
:10594000012500231E930A9501E001230A934FF0DD
:10595000FF390022CDF8149012231F9206E04FF079
:1059600001094B46CDF81490CDF87C90DAF824402C
:1059700000226260042101F114029A421CD862687C
:10598000490001326260F6E761436F63A787D23F47
:10599000B3C8608B288AC63FFB799F501344D33F1E
:1059A0000000F07FA9910000B29100004F9000002C
:1059B0000000F83FC09100006168504600F0CDFF44
:1059C000DAF8243020601B680693059B0E2B00F24A
:1059D0005B81002D00F05881DDE90234BBF1000F3E
:1059E000CDE90E3430DD9F4A0BF00F034FEA2B1543
:1059F00002EBC303E80618CBCDE908340CD5DDE98A
:105A00000E01994B05F00F05D3E9082302F0B6F912
:105A10000324CDE9020100E00224934E6DB1E907B1
:105A200008D5DDE90801D6E9002302F07DF8CDE9CB
:105A3000080101346D100836F0E7DDE90823DDE9DF
:105A4000020102F09BF920E0CBF1000505B3DDE98E
:105A50000E01844B05F00F0203EBC203D3E90023D0
:105A600002F062F8CDE902017F4E2D1100230224DD
:105A700055B1EA0705D5D6E9002302F055F80134FF
:105A800001236D100836F3E71BB1CDE9020100E0F8
:105A90000224109BE3B1DDE902560022734B284635
:105AA000314602F0B3FA98B1059B8BB1B9F1000F02
:105AB00040F3E6800BF1FF330893314600226C4B34
:105AC000284602F031F80134CDE902014E4602E0E9
:105AD000059ECDF820B0204601F0C0FFDDE902238D
