:1000000000800010451600007516000077160000ED
:10001000791600007B1600007D160000000000002D
:100020000000000000000000000000007F1600003B
:1000300081160000000000008316000085160000F5
:10004000871600008716000087160000871600003C
:10005000871600008716000087160000871600002C
:10006000871600008716000087160000871600001C
:10007000871600008716000087160000871600000C
:1000800087160000871600008716000087160000FC
:1000900087160000871600008716000087160000EC
:1000A00087160000871600008716000087160000DC
:1000B00087160000871600008716000087160000CC
:1000C000871600008716000087160000044B0548BD
:1000D0001B1A062B02D9044B03B11847704700BF07
:1000E0002F2E00102C2E001000000000054906489D
:1000F000091A891001EBD171491002D0034B03B1E9
:10010000184770472C2E00102C2E00100000000005
:1001100010B5064C237843B9FFF7D8FF044B13B151
:100120000448AFF300800123237010BD2C2E001073
:100130000000000078A0000008B5084B1BB108497A
:100140000848AFF300800848036813B9BDE80840C9
:10015000CCE7064B002BF9D09847F7E700000000EA
:10016000302E001078A000002C2E0010000000009F
:10017000154B002B08BF134B9D46A3F5803A002179
:100180008B460F461348144A121A03F06CFA0F4BB1
:10019000002B00D098470E4B002B00D09847002032
:1001A000002104000D000D48002802D00C48AFF3D8
:1001B000008003F0BDF92000290001F007FA02F0E9
:1001C00095FE00BF00000800008000100000000045
:1001D000000000002C2E0010F03100100000000084
:1001E000000000007047000010B50446064B403088
:1001F00003F1180240F8403C4C330260436002F0C7
:10020000ABF9204610BD00BFB8990000A0F1400036
:10021000EAE7A0F14400E7E710B5044602F025FE46
:10022000204610BD2DE9F74F8046894692469B46F1
:100230000024444522DA00265E451DDAB700002579
:1002400000234D4512DA01930C9B5AF8240053F811
:10025000251050F82500C95908F09AFD019B014668
:10026000184608F08DFC01350346EAE70D9A013681
:1002700052F82410CB51DFE70134DAE703B0BDE8D0
:10028000F08F000030B51F4987B01F4802F080F999
:100290001422002101A803F0E6F91C4802F0C6F977
:1002A00048B300252C46194802F0C0F990B118480F
:1002B00002F064F9C0B20A2801D0142C04D101A8BC
:1002C00002F0FBFD0546EEE706AB234403F8140CF1
:1002D0000134E8E7284608F007FD0E4908F058FD0C
:1002E000044608F0C1F802460B4607480A4902F0E6
:1002F0004FF9204604E00949034802F049F908484B
:1003000007B030BDE0910000C02F0010542E001047
:10031000942E0010BF0E9C3EEC910000F491000062
:10032000000080BFF0B5064687B00F461548164955
:1003300002F02EF904AB02AA6946144800F0ECFD65
:10034000022E06D0032E07D0012E07D1009D019C5E
:1003500004E0029D039C01E0049D059C0FB104F1A3
:1003600000442146284608F0B5FB044608F07CF816
:1003700002460B460348064902F00AF9204607B038
:10038000F0BD00BFC02F001002920000C02E001070
:10039000A29200002DE970431149054608F0B4FE11
:1003A000D0B904460F4E36F9140008F04BF800227D
:1003B0000D4B08F0D7F980462846894608F054F8D6
:1003C00002460B464046494608F014FB08B101348A
:1003D000E9E7601EBDE870833220BDE8708300BF8E
:1003E00000009841CC0000100000594010B50021D9
:1003F000044608F089FE30B90021204608F066FE68
:1004000020B9002010BD4FF07E5010BD004810BD37
:10041000000080BF0000000008B5FFF7BBFF084BDD
:1004200033F9100008F00EF803A3D3E9002308F015
:100430006FF808F04FFB08BD7250C24CDBBFF93FAC
:10044000A60F00100000000008B5FFF7A3FF084B3F
:1004500033F9100007F0F6FF03A3D3E9002308F0F7
:1004600057F808F037FB08BD7250C24CDBBFF93FAC
:10047000801E0010F8B51546184C06460F4620465B
:10048000174902F085F82846FFF7C6FF01463046B7
:1004900008F074FB06462846FFF7D6FF01463846AB
:1004A00008F06CFB0F490546304608F071FC014628
:1004B000284608F065FBFFF799FF05460A492046E4
:1004C00002F066F84FF07E51284608F059FB4FF0D5
:1004D0007C5108F05DFC08F021FEF8BDC02F001033
:1004E0006F920000CDCCCC3D77920000012808B57A
:1004F0000DD10021114800F06DFE0021104800F0E0
:1005000069FE00210F4800F065FE002110E04FF069
:100510007E510A4800F05EFE4FF07E51084800F020
:1005200059FE4FF07E51074800F054FE4FF07E51C7
:100530000548BDE8084000F04DBE00BFF82E001091
:100540000C2F0010202F0010AC2E00102DE9F041D0
:100550004E4801F05FFF0020FFF7C8FFDFF88481FD
:1005600000240820D8F8005002F092FC484E285190
:100570000820356802F08CFC2851464D08202F6871
:1005800002F086FC444B385108201F6802F080FCC2
:10059000424B385108201F6802F07AFC404B38511A
:1005A00004201F6802F074FC3E4B385104201F6881
:1005B00002F06EFC3C4B385104201F6802F068FCCE
:1005C0003A4B385108201F6802F062FC384B385112
:1005D00008201F6802F05CFC364B385108201F6869
:1005E00002F056FC344B385108201F6802F050FCD2
:1005F000324B385108201F6802F04AFC304B38510A
:1006000008201F6802F044FC2E4B385104201F685C
:1006100002F03EFC2C4B385104201F6802F038FCDD
:100620002A4B385104201F6802F032FC284B385105
:1006300004201F6802F02CFC264B385108201F684C
:1006400002F026FC38510434082C8AD13368224A3F
:10065000196822480A605A68214B536000234B6096
:1006600013602A68116852680B6050604B60136019
:100670001C4A4FF07E501268116852680860506042
:100680004B6000201360BDE8F08100BF4C2F0010CC
:10069000F42E0010342F0010602F0010E42E0010F4
:1006A000502E0010642F0010382F0010402F001023
:1006B0004C2E00105C2F0010D82E0010DC2E0010E5
:1006C000E02E0010482F0010E82E0010EC2E001035
:1006D000F02E0010482E00109F1EEB440000104129
:1006E00064691A46442F00102DE9F04706468846F3
:1006F00091469A460024B44212DA002545450DDAA7
:10070000089B514653F8247059F8243053F82500BB
:1007100008F03EFB47F825000135EFE70134EAE732
:10072000BDE8F0872DE9F0470646884691469A468F
:100730000024B44215DA0025454510DA089B5AF822
:10074000242053F8247059F8243052F8251053F817
:10075000250008F015FA47F825000135ECE70134CB
:10076000E7E7BDE8F087F0B500248C4210DA4FEAE5
:10077000840E0025854209DA52F8256056F80E707D
:1007800053F8246046F825700135F3E70134ECE7AF
:10079000F0BD2DE9F84F0368D1F800A05D681E6830
:1007A00043688946D3F804B0304659461C6808F0BF
:1007B000EFFA804605F10040414608F0E9FA21468B
:1007C00008F0E6FA01460746584608F095FB414610
:1007D000CAF80000284608F0DBFA214608F0D8FAEB
:1007E00001468046284608F087FB4146CAF80400C7
:1007F000204608F081FBD9F804503946286030467D
:1008000008F07AFB6860BDE8F88F00002DE9F04F32
:100810001E4689B0129B904D0593139B90460693FC
:100820002B684FF07E541A685B6814605C608B4CD8
:10083000566000221A6022680027136883461F60F2
:100840005368DFF85CA21E6008F098F9314608F0A2
:1008500053FB8146304607F007FE064648460F46E2
:1008600007F002FECDE90201584607F0FDFD3246D1
:10087000CDE900013B467A497A4801F089FE7A4B7E
:100880007A4F1B6802211A680846C2F800B05A68FD
:10089000774EC2F800903A68009301922A680123CB
:1008A000FFF7C0FCDAF800300121009322684346CC
:1008B0000220FFF719FF6F4B6F4C1B68012100935B
:1008C0003A68DAF800300220FFF72CFF2368DFF8DF
:1008D000D4810193694B1B68009302232A6819464F
:1008E0001846FFF79FFC0221D8F800302A68084616
:1008F000FFF739FF3368624D0193D8F80030DFF815
:10090000A88100930223226819461846FFF78AFC43
:100910002B68022100935B4B32685B4E08461B68D4
:10092000FFF700FF336802210093584B2A680846FE
:100930001B68FFF7F7FE564B306819680793FFF7FF
:1009400028FFD8F80020079B01921B680093022320
:100950002A6819461846FFF765FC4E4B01211B68B3
:1009600002201A685B68C2F800B0DFF840B1C3F833
:100970000090DBF80030DFF838913E4A00931268AF
:100980004B46FFF7B1FE3B68424A0093DBF800306C
:10099000126801210220FFF7C5FEDAF800300221BB
:1009A00001933B6808460093D8F800200123FFF725
:1009B00039FC2D4BDAF800201B68012100932D4BE8
:1009C00002201B68FFF7AEFE274B05991B68324FCC
:1009D0001A685B6812680A601B68069A4FF07E51BD
:1009E000136033681A685B681160002151604FF032
:1009F0007E5219605A603B6802210093D8F80020AB
:100A00004B460846FFF770FE2368022100933B68BF
:100A100032680846FFF786FE184B1B6801932B6867
:100A200000930223226819461846FFF7FBFB059B3B
:100A3000186807F019FD04460D46069B186807F074
:100A400013FD22462B46CDE912011449054809B091
:100A5000BDE8F04F01F09CBD602F0010502E00103B
:100A60007D920000C02F0010382F0010482F00107A
:100A7000D82E0010642F00105C2F0010442F00109F
:100A8000402F0010342F0010DC2E0010F42E001028
:100A9000482E0010EC2E0010E02E0010999200005D
:100AA000E82E0010E42E00104C2E0010F02E001046
:100AB000000080BF2DE9F04F89B0002404A8029403
:100AC000039401F097FC04A801F0A4FC2646A0467C
:100AD0002546DFF8AC900027FFF7D4FB00211FFA72
:100AE00087FA834608F010FB40B104A801F09EFC91
:100AF000064604A8A84601F0A9FC5D460021032093
:100B0000FFF710FC0021834608F0FEFA00B15C46B6
:100B10000021304608F0D0FA48B903AB019302AB8C
:100B200000932246334641462846FFF76FFE0A22CD
:100B3000BAFBF2F302FB13A39BB2BBB90E4801F060
:100B400075FCD9F8001008F019F8039902460298CC
:100B5000FFF790FCFFF7CAFC084B5A6911685A6806
:100B6000114201D1DB6800E01B691A60642001F0CA
:100B700099FE0137B0E700BF4C2F0010682F00101E
:100B80003C2F00100000000038B51949194801F049
:100B9000FFFCFFF7DBFC00281DDB174D00240021C4
:100BA0000320FFF7BFFB07F05FFC0FA3D3E900238F
:100BB00007F034FF08B90446F1E71CB90F4801F00B
:100BC00035FC286001340A2CE9DD0D49094801F0A3
:100BD000DFFCFFF76FFF0B49064801F0D9FC4FF02F
:100BE000FF3038BDAFF300801F85EB51B89E334016
:100BF000A6920000C02F00103C2F00104C2F0010B8
:100C0000CA920000B492000010B50446FFF7ECFA57
:100C1000204602F02AF9204610BDA0F14000F3E77B
:100C2000A0F14400F0E7000070B5514D514801F0CB
:100C3000E1FB514C0023514A51492846514E01F0E5
:100C40001BFC2846504D2246314602F009F900238C
:100C50004E4A4F49284601F00FFC28464D4D22468A
:100C6000314602F0FDF84C4B4C4A4D49284600F005
:100C700011FA22464B49284602F0F2F84A494B48FD
:100C800000F094FA4A494B4800F090FA4A4C4B491C
:100C90004B4800F08BFA4B494B4800F087FA18227A
:100CA0000021204602F0DFFC4849204601F0FEFC0E
:100CB000082002F0EDF8464B1860082002F0E8F832
:100CC000444B1860082002F0E3F8434B18600820FA
:100CD00002F0DEF8414B1860082002F0D9F8404BD2
:100CE0001860082002F0D4F83E4B1860082002F08B
:100CF000CFF83D4B1860082002F0CAF83B4B186053
:100D0000082002F0C5F83A4B1860082002F0C0F83D
:100D1000384B1860082002F0BBF8374B18600820E9
:100D200002F0B6F8354B1860082002F0B1F8344BE9
:100D30001860082002F0ACF8324B1860082002F06E
:100D4000A7F8314B1860082002F0A2F82F4B18606A
:100D5000082002F09DF82E4B1860082002F098F849
:100D60002C4B1860082002F093F82B4B186070BDD4
:100D7000802F00104C2F0010C800001003C0092065
:100D800002C00920E9010000542E001010C0092003
:100D90000FC00920C02E0010A086010001C009204C
:100DA00000C009201D0E000045C00920F82E0010CB
:100DB00044C009200C2F0010682F001043C00920E8
:100DC000202F001042C00920AC2E001032C0092094
:100DD000442F0010F42E0010342F0010602F00104C
:100DE000E42E0010502E0010642F0010382F001039
:100DF000402F00104C2E00105C2F0010D82E001039
:100E0000DC2E0010E02E0010482F0010E82E0010FD
:100E1000EC2E0010F02E0010482E00107047037DBD
:100E2000427D012B14BF4FF480634023012A03D07D
:100E3000022A02D19B1000E05B10184670471FB5D4
:100E400000238DF80C108DF80D20009303AA0223C7
:100E50003A2101F0CDF905B05DF804FB0B7882B0C2
:100E60008DF807304B788DF80630BDF9060000117B
:100E700002B07047F0B585B00124164604AA02F806
:100E8000011D1F46009423463A21054601F0B0F9A2
:100E900038B900903B4632463A21284601F0C2F963
:100EA00000E0204605B0F0BD037D0A46022B06D0C7
:100EB000002B14BF032306230121FFF7DBBF012012
:100EC0007047F7B50F466946164604461D46FFF7BC
:100ED000EBFF0246E0B9237D83B969462046FFF760
:100EE000BDFF0DF1020138602046FFF7B7FF01A9F1
:100EF00030602046FFF7B2FF28600AE09DF900301D
:100F00003B609DF9013033609DF902302B6000E0B9
:100F10000122104603B0F0BD2DE9F04385B09046A4
:100F20001D46002204AB0192029243F8042D89462B
:100F300002AA01A90646FFF7C4FF044610BB3046CB
:100F4000FFF76DFF07F07EFA06460F46019807F09F
:100F500079FA32463B4607F005FCC9E900010298E0
:100F600007F070FA32463B4607F0FCFBC8E9000187
:100F7000039807F067FA32463B4607F0F3FBC5E9F2
:100F8000000100E00124204605B0BDE8F083012304
:100F9000FFF770BFF7B51746002402AA02F8014D0B
:100FA00005460E46FFF7F3FF48B99DF80720314686
:100FB0003A4028468DF80720FFF741FF00E0204621
:100FC00003B0F0BDFE222A21FFF7E4BFF7B51746B4
:100FD000002402AA02F8014D05460E46FFF7D7FF8E
:100FE00048B99DF8072031463A4328468DF8072036
:100FF000FFF725FF00E0204603B0F0BD01222A21C3
:10100000FFF7E4BF2DE9F341089D04460E469046E4
:101010001F464DB902AA002302F8013D3146204681
:10102000FFF7B5FF20B905E0FFF7CCFF0028F1D0AE
:10103000012013E09DF80720314608EA02023A43F6
:1010400020468DF80720FFF7FAFE0028F0D12DB1D9
:101050002046FFF7D3FF003018BF012002B0BDE8E3
:10106000F08107B50B46417500920E21FC22FFF777
:10107000C9FF03B05DF804FB07B54B00017503F031
:10108000FE0300922A21FD22FFF7BCFF03B05DF8AA
:1010900004FB000070B504461D4601F081F8A56010
:1010A000144D154E1549284601F072FA314628466E
:1010B00001F06EFAA168204601F082F83B23E3605C
:1010C0003A23236102232375012200212046FFF7E2
:1010D000D3FF03236375012200212046FFF7C1FFE0
:1010E0000749284601F054FA3146284601F050FAE3
:1010F000204670BDC02F0010E5920000D492000081
:10110000E8920000000000002DE9F84385680646DB
:1011100028460C4607F0A8F902460B4607F046F8A9
:1011200080462046894607F09FF900221E4B07F0B3
:101130003BF802460B464046494607F0E9F907F0FE
:10114000C9FC05F100473946804607F0BFFF30B9BA
:101150004146284607F0BAFF10B9454600E03D4633
:10116000284607F081F90EA3D3E9002307F01EF803
:1011700007F0B0FC0146304600F086FB0021204617
:1011800007F0A4FF40B94FF07E51204607F0BCFFA6
:1011900018B14FF07E5400E000243461BDE8F883BC
:1011A000FA7E6ABC7493583F0000E03F10B50446D5
:1011B00000F014FB054B2046A360054B4FF07C511B
:1011C000E360FFF7A1FF204610BD00BF6F12033A96
:1011D0000000344210B50446FFF796FF204610BDCC
:1011E00000B599B072B63B49684601F05FFA06A8AF
:1011F000394901F05BFA0CA8384901F057FA12A8F6
:10120000374901F053FA32E0069B039A0199013302
:10121000116059D00C9B0A9A0799013311604DD087
:10122000129B109A0D990133116041D0159B139AAE
:1012300096201A6001F036FB009B013332D0069BEA
:10124000049A01990133116026D00C9B099A0799E1
:10125000013311601AD0129B0F9A0D99013311605E
:101260000ED0169B139A96201A6001F01BFB009B70
:101270000133C9D11B481C49242201F0E7F9C3E717
:1012800018481949242201F0E1F9EAE715481649FE
:10129000242201F0DBF9DEE712481349242201F091
:1012A000D5F9D2E70F481049242201F0CFF9C6E75B
:1012B0000C480D49242201F0C9F9B7E709480A4949
:1012C000242201F0C3F9ABE706480749242201F0C4
:1012D000BDF99FE732C0092034C0092035C009207C
:1012E00037C00920049500001C9500000C4B30B459
:1012F0009D689A682B46B2F1805F0CD2094AC435CA
:1013000053F8044BAB4242F8044FF9D14FF08052EE
:101310001346034CA260103043F8201030BC7047D5
:1013200000ED00E0FCFFFF0F036870B51B690021B2
:10133000012204469847431C06460ED023682046E7
:101340001B690021022298472368054631461B6924
:10135000204600229847284670BD70BD02480349C8
:10136000034A00F03FBE00BFE431001002C0092074
:1013700003C00920084A094B10B4026003F58071CC
:10138000002453F8042F824208BF1C608B42F8D11E
:101390005DF8044B704700BFA8950000D42F0010E3
:1013A000F0B50E4685B03649054603F086FD20B9F6
:1013B000344B1B6863B105B0F0BD2846324903F0D9
:1013C0007CFD78B92F4B1B6843B1012005B0F0BDFF
:1013D0000190FFF7C3FF019805B0F0BDFFF7BEFF16
:1013E0000120E8E72846294903F067FD10B3284BA0
:1013F000002402E00134402C21D053F8042F002AAD
:10140000F8D12B783A2B33D0294602A800F024FFDC
:1014100002A800F077FF90B102A800F059FF88B150
:1014200002A800F05FFF03464BB11A4AE01C42F8E5
:101430002430C0E7134B1B68B3B10220BBE74FF069
:10144000FF30B8E702A800F033FF05460028F6D0C9
:10145000036802A89F6800F029FF26F48032014645
:101460002846B8470346DFE7FFF778FF0220A2E7E8
:101470002846094902AA03F0B1FC029BD4E700BF49
:1014800084950000DC300010949500008C950000DD
:10149000D42F0010D82F0010CC95000002280ADDB0
:1014A000074AC31E52F82300002142F8231020B13E
:1014B00003685B681847002070474FF0FF307047A3
:1014C000D82F0010022812DC0E4B70B51B680C469A
:1014D00016460BB9FFF742FFA51936B114F8011BE8
:1014E000094800F0CDFCAC42F8D1304670BD074B46
:1014F000033853F8200010B103681B6818474FF0F9
:10150000FF307047DC300010E4310010D82F00109D
:1015100002280DDC0C4B10B51B680C460BB9FFF70D
:101520001DFF0A4800F064FC01232070184610BD1E
:10153000074B033853F8200010B103689B68184725
:101540004FF0FF3318467047DC300010E4310010D4
:10155000D82F0010022807DD064B033853F820006F
:1015600020B10368DB681847012070474FF0FF3057
:10157000704700BFD82F0010022807DD064B033844
:1015800053F8200020B103681B69184700207047FA
:101590004FF0FF30704700BFD82F0010022808B569
:1015A00004D84FF400534B60002008BD01F098FCB4
:1015B000092303604FF0FF3008BD00BF08B50120CC
:1015C00001F094FC704700BF704700BF08B5FFF7FB
:1015D000FBFFFFF7F7FFBDE80840FFF7D5BA00BFF4
:1015E000074A13681918EFF30880814202D218469F
:1015F00011607047034B0C221A604FF0FF307047A8
:101600005C2D0010EC3100100A4C08B5236805462B
:10161000986801F089FD2368D86801F085FD01F024
:1016200091F820B905B9FEE7FFF7DAFDFBE701F015
:10163000E5F8F7E7E02D0010002103F0D1BA00BF74
:1016400001F0B0BD0649074A074B9A42BEBF51F8A8
:10165000040B42F8040BF8E70448804704480047AD
:1016600084A00000C80000102C2E00108916000075
:1016700071010000FEE7FEE7FEE7FEE7FEE7FEE79A
:10168000FEE7FEE7FEE7FEE72B4A2023F0B4C2F8B0
:10169000A031D2F8A031980645D4274B0025194631
:1016A0000124AA20552202270B26C3F80471C3F88F
:1016B000A851C3F8AC51C3F80C41C3F88460C3F817
:1016C0008C00C3F88C20C3F88040C3F88C00C3F8AA
:1016D0008C20D1F88830184A5B01FAD511460324D2
:1016E000AA205523C2F88040C2F88C00C2F88C3082
:1016F000D1F88830104A13F0407FF9D00F49002309
:101700000520C2F80801C2F8C410C2F8C831136835
:10171000F0BC23F4704323F03A0343F4405343F006
:101720003A0313607047D2F8A0315906B5D4D2F805
:10173000A0315906F7D5B0E700C00F40DE87280476
:1017400070B50C4605460021204607F0BFFCF0B9F5
:1017500020464FF07E5107F0D7FC08B14FF07E5481
:101760000C4EB06907F0BCFA214607F011FB07F0F8
:10177000FBFCB369074983422B6808BF013018603E
:1017800028790A6D0123834013430B6570BD002443
:10179000E6E700BF008001400E4B0F4A1B6810B403
:1017A00003FB01F102245460916193693BB100682D
:1017B0000368926903FB01F1B1FBF2F10160064B92
:1017C00009211A6D5DF8044B42F001021A65596057
:1017D000704700BFD830001000800140F8B50E46B9
:1017E00005462049304600F0EFFFC4B2FF2C33D04D
:1017F0001D4A1E49D2F8C43051F8241043F040036A
:101800002C712960C2F8C430D2F8A811184B21F409
:10181000405100270220C2F8A811DF605861D96C3E
:1018200008340122A2400A431249DA640B681249C3
:10183000124AA1FB031328461B0D44F620611360D6
:10184000FFF7AAFF28460021FFF77AFF3046BDE8E0
:10185000F840044900F078BF09480A493C2200F0EA
:10186000F5FEC5E7DC95000000C00F40642D0010B8
:1018700000800140602D001083DE1B43D830001033
:1018800090960000A496000010B5044608460C4946
:1018900007F07EFA07F042FC0A4B0B4A1B6892697C
:1018A00003FB00F02368904208BF0130064918602E
:1018B00020790A6D0123834013430B6510BD00BFDF
:1018C00000247449D830001000800140144B9968FE
:1018D000C1F3420101291BD0022917D1114AD16B52
:1018E000013109D0916C106C086092F86E1019B932
:1018F000596821F001015960906B0A4B78B193F857
:101900006E3023B1084B00211B68184770477047A1
:10191000044B986B0028FAD0034B1B68184770479C
:1019200000000140E4300010E030001070B50368A2
:10193000284CA34247D03FDD274CA34229D004F5D1
:101940008044A34242D1254C082632BB01290BD04A
:101950004268234CC2EBC20204EBC20292F836404A
:1019600030325279D44213D1B1FA81F45D68012248
:1019700002FA01F125EA01015960036864095B6814
:1019800002FA04F1194203D1164BB240C3F8802089
:1019900070BD154C0726002AD8D05A68012505FAD3
:1019A00001F10A4376B25A6021463046FFF79EFCA9
:1019B0000C4BB5401D6070BDA4F58044A34205D119
:1019C0000A4C0526C1E70A4C0626BEE70024264637
:1019D000BBE700BF0000014000800940F51900008E
:1019E000E430001000E100E0611A0000C51A0000B8
:1019F000CD180000174B9968C1F3420101291FD08F
:101A000002291BD1144AD2F8AC1001310BD0D2F804
:101A1000B810D2F8B000086092F8DE1019B9596811
:101A200021F001015960D2F8A8000B4B80B193F866
:101A3000DE3023B1094B00211B68184770477047FF
:101A4000054BD3F8A8000028F9D0044B1B681847B1
:101A5000704700BF00C00940E4300010E0300010C3
:101A6000154B9968C1F3420101291CD0022918D1F4
:101A7000124A516F01310AD0D2F88010906F08607D
:101A800092F8A61019B9596821F001015960106F38
:101A90000A4B78B193F8A63023B1094B00211B689B
:101AA000184770477047054B186F0028FAD0044B51
:101AB0001B681847704700BF00800940E4300010E1
:101AC000E0300010144B9968C1F3420101291BD08A
:101AD000022917D1114A5168013109D01169906862
:101AE000086092F8361019B9596821F0010159605F
:101AF00010680A4B78B193F8363023B1084B0021B7
:101B00001B68184770477047044B18680028FAD0C4
:101B1000034B1B681847704700C00040E4300010BA
:101B2000E03000102DE9F04F844A03688DB09342F5
:101B30000B908B4600F3E680814A934200F0ED80E3
:101B400040F3CD807F4A934200F0A38002F58042AB
:101B500093420CD17C4AD2F8AC1121F44021C2F856
:101B6000AC11D2F8AC1141F48021C2F8AC11774924
:101B70004FEA0B120968B1FBF2F402FB1412089150
:101B8000A4B2002A00F0A9805E46DA46089B4FF016
:101B900001085A009900019300230A9209910594C3
:101BA00006920291CDF81080CDF81CB003935346F5
:101BB000DDF81C900027CA469946BB465FFA88F5B7
:101BC000CDF80080B846069F002F76DB029BB3FB62
:101BD000FAF4009B64090134C4F34F0403EB0B0EC9
:101BE000002C64D1BBF1000F00F0A5800224204638
:101BF00000FB0EF0019BC000B3FBF0F00130C9EB1D
:101C0000500001F056F9B04206DA48455FD006466A
:101C1000CDF80C80059404950BF1010B5FFA8BF85D
:101C2000A845CA44D0D3019B089ADDF8008013442C
:101C300001930A9A069B08F1010813440693099A36
:101C4000029BB8F1100F13440293079BCA464B4402
:101C50000793ACD1039B049A059C43EA02150B9BA6
:101C6000EDB21B681A7BC4F3072142F080021A739D
:101C70000B9AE4B21368197113681C70136883F827
:101C800028501268137B03F07F0313730DB0BDE877
:101C9000F08F2D4AD2F8AC1121F44031C2F8AC11CA
:101CA000D2F8AC1141F48031C2F8AC115FE7BBF15E
:101CB000000F9CD0012C9AD898E7B7FBFAF4009B50
:101CC00024090134C4F34F0403EB0B0E88E70B9B8C
:101CD00048EA0515EDB21B68C4E71025C2E7A2F576
:101CE000804293427FF443AF174AD2F8A81121F003
:101CF000C001C2F8A811D2F8A81141F04001C2F801
:101D0000A81134E79B221248124900F09FFC0B9B5C
:101D10000B4A1B6893427FF413AF0B4AD2F8A81109
:101D200021F44071C2F8A811D2F8A81141F48071D1
:101D3000C2F8A8111BE70124204659E700C009405A
:101D4000000001400080094000C00F40602D0010DD
:101D5000AC970000C8970000F8B55F1E012F05463C
:101D60000E46144604D915481549FB2200F06EFCB6
:101D7000053E032E1CD8042C14D8013CE4B2032CDD
:101D80000DD8104B082153F824000001C2B246EAD6
:101D900087060E4332432B68D2B21A73F8BD002275
:101DA0001146F4E708480649FE2200F04FFCE4E73C
:101DB00006480349FC2200F049FCDCE730980000AB
:101DC000C8970000309700007C98000058980000E9
:101DD000436810B40448054CC3EBC30344F83320F4
:101DE00001605DF8044B7047E0300010E4300010F3
:101DF0000268137DDB07FCD543680949C3EBC303C5
:101E000001EBC303596810780131C0B206D059699B
:101E10009B680B60536843F001035360704700BF39
:101E2000E43000100368187D00F00100704700BF27
:101E30004368124AC3EBC30302EBC303D969013100
:101E40000BD0196B1B6A0A681A4204D10368187D0B
:101E5000C0F380107047002070470268127D920620
:101E600006D493F834000F288CBF0020012070475F
:101E7000002283F834200120704700BFE4300010B6
:101E800038B504460D462046FFF7D2FF0028FAD0A9
:101E90002368EDB21D706368054AC3EBC30302EB10
:101EA000C30393F83420013283F8342038BD00BFD7
:101EB000E43000102DE9F04F04464648256883B011
:101EC00085420F469146019343D0D4F804A00025E3
:101ED0005346414E4FEACA08C3EBC303CAEB080E90
:101EE000002006EBCE0E4FF0FF3B06EBC30301468E
:101EF000024683F83500CEF81CB02046CEF804B078
:101F0000FFF714FD17B903B0BDE8F08F3349484619
:101F100000F04CFC32498346019800F047FCBB1EA0
:101F2000012B37D9012FEED1B9F1FF3FEBD0294B6F
:101F3000226807219B45117213D195B148462B7C2D
:101F4000264943F040032B7403B0BDE8F04F00F086
:101F5000FBBB2B7CD4F804A003F03F032B74636815
:101F6000B7E7CAEB080806EBC8004946012504306C
:101F7000002200F0BDFB20462A4663680021C3EB27
:101F8000C30306EBC30686F8355003B0BDE8F04F37
:101F9000FFF7CCBC019B01330AD00E4B98420DD009
:101FA000CAEB080006EBC00001991C3000F06CFB86
:101FB000032FA8D1B9F1FF3FB9D1A4E7002DEFD08D
:101FC0002B7C019843F080032B74054900F0BCFB87
:101FD000EEE700BF00000140E43000100C97000065
:101FE0007C9900002DE9F0470F46054608466149F7
:101FF000164600F0E9FB60490446304600F0E4FB79
:102000000146204600F0C0FB411C044600F0AB80B6
:102010005A4B2860984200F0838053D9584B98421D
:1020200076D003F58043984206D1564AD2F8C430A0
:1020300043F00073C2F8C4304FF0010984F80890EF
:102040002B684FF00008C3F8048028464FF416515F
:10205000FFF768FD42464B4628460821FFF77CFE05
:102060003846444900F070FB3046434900F06CFBB1
:102070007A1C03D03846414600F030FE731C03D072
:102080003046002100F02AFE3C4B9C4250D025D91E
:102090003B4B9C4264D003F580439C424BD10323CD
:1020A0006B60394CC3EBC3034FF0FF3604EBC30442
:1020B0002846324633466660E6610021BDE8F047B7
:1020C000FFF7F8BEA3F580439842B5D12D4AD2F868
:1020D000C43043F00803C2F8C430ADE7A3F5804331
:1020E0009C4228D1284E4FF0FF34002169602246DF
:1020F000234628467460F461FFF7DCFE234B01247D
:1021000029461C6022480822BDE8F04701F0A0BA29
:102110001C4AD2F8C43043F08073C2F8C4308BE755
:10212000184AD2F8C43043F01003C2F8C43083E731
:1021300001236B60B5E76E68134BC6EBC6064FF024
:10214000FF3703EBC6063A463B4628460021776038
:10215000F761FFF7AFFE0F4B9C42CFD0BDE8F08791
:1021600002236B609DE70C480C495C2200F06EFA7C
:102170002C6061E7109900004097000000000140CA
:102180000080094000C00F40E4300010DC30001037
:10219000E431001000C0004000990000C897000022
:1021A00038B50446044B00250560436000F0D6FBBB
:1021B000024B20461C6038BDA0860100C4310010CF
:1021C00010B50446416000F02FFC014B1C6010BDAF
:1021D000C431001038B5054D2A68824204D0044647
:1021E000416800F021FC2C6038BD00BFC4310010F4
:1021F0002DE9F0411D460F461646804682B09DF8F7
:102200002040FFF7E7FF84F0010400944046394680
:1022100032462B4600F0C6FC281A18BF012002B037
:10222000BDE8F0812DE9F0411D460F461646804677
:1022300082B09DF82040FFF7CDFF84F001040094A8
:102240004046394632462B4600F0FAFB281A18BFA2
:10225000012002B0BDE8F08138B50023036043607F
:102260000A7804462F2A01D0204638BD4A78002A31
:10227000FAD0481C20604D782F2D13D085B103462D
:1022800000E06AB15D1A013323601A782F2AF8D171
:1022900029460133236000F085F86060204638BD90
:1022A0002946F8E719460346F3E700BF0068704780
:1022B000436843B110B50446184600F091F8012870
:1022C00003D1606810BD00207047002010BD00BF22
:1022D000406830B108B500F083F8B0FA80F04009EA
:1022E00008BD704743684BB110B50446184600F06E
:1022F00077F828B9606818B1043810BD002070471D
:10230000002010BD4068003018BF0120704700BF9A
:10231000094A8368026053B1084B1A68824201D1AE
:1023200006E01A4653688342FBD143685360704706
:1023300042681A60704700BFA8990000C8310010B9
:102340000C4A836810B50446026053B10A4B1A6800
:10235000904201D10AE01A4653689C42FBD163685F
:102360005360204600F081FD204610BD42681A608F
:10237000F7E700BFA8990000C831001010B4074C5F
:102380000023027381600460436019B1044B1A6832
:10239000186042605DF8044B704700BFA8990000C8
:1023A000C83100100D4B70B51C6806460D4614B9B7
:1023B00011E064687CB1A0680028FAD031462A4652
:1023C00002F08DFD0028F4D1A06802F080FDA84243
:1023D000EFD1204670BD002070BD00BFC831001095
:1023E000007B704710B50446C06800F041FA63688E
:1023F000C01A10BD38B500250560456085600446EB
:1024000000F03AFAE06000F033FAA5606060204620
:1024100038BD00BF036803B1704710B50446C068FB
:1024200000F026FA01236060236010BD036810B538
:10243000846813B1FFF7D6FF0346E01806F054FC9A
:10244000014906F059FD10BD0024744910B5044639
:10245000C06800F00DFA00236060A36010BD00BFEB
:1024600000F0E8B8A0F14000FFF7FABF00F0E6B8CE
:10247000A0F14000FFF7FABF38B504461D4600F052
:10248000B7F8294604F1400000F044F8054B204617
:1024900003F1080103F120025433216022646364D4
:1024A00038BD00BFB099000000207047F8B58E1805
:1024B000B1420F460ED005460C4601E0A64207D0B9
:1024C0002B6828465B6A14F8011B98470130F5D148
:1024D000E01BF8BD0C46FBE7F8B58E18B1420F467D
:1024E0000ED005460C4603E004F8010BA64205D0C9
:1024F0002B6828469B6A9847431CF5D1E01BF8BD22
:102500000C46FBE700207047002070470020704712
:102510000020704710B5044684B000F07BFC0B4BE4
:10252000002203F108013C3384E80A00626101A83B
:102530002246074902F02EFC064901A800F028FFB8
:102540006061FFF779F8204604B010BD109A0000D2
:10255000CC950000549A000010B50446064B406923
:1025600003F108023C3384E80C0000F025FD20460E
:1025700000F064FC204610BD109A000010B504461F
:10258000406900F0D1FD6069BDE81040FFF758B820
:102590000EB430B5044682B005AB53F8045B406915
:1025A000019300F0C1FD29466069019A01F040FAEB
:1025B00002B0BDE8304003B0704700BF4A1C02EBD8
:1025C000420200EBC202936853B101EB4101C90022
:1025D0004218D2681AB101441031104618477047AA
:1025E00001EB410300EBC301CB68002BF7D0184788
:1025F00070B504460B4E0023251D4FF41650E063C2
:1026000063602846A360E36023626362A36326607D
:10261000FFF7E8FC284622460349FFF7D9FB20468E
:1026200070BD00BF609A0000BD2500000430FFF7B8
:10263000F9BB00BF0430FFF7DBBB00BF10B50C4691
:102640000430FFF71DFC204610BD00BF10B40C463F
:1026500013460146224602485DF8044B00F002B8DA
:10266000689A00000FB400B5064A83B004AB53F873
:10267000041B10681A46C068019301F0D9F90120C3
:1026800000F034FCE02D001038B50D46044600F093
:1026900027F9013509D02046002100F03DF92046F8
:1026A000BDE83840032100F033B938BD38B50D46D8
:1026B000044600F015F901350FD0236801330DD021
:1026C0002369626820461A60012100F025F920463E
:1026D000BDE83840022100F01BB938BD024803496B
:1026E0002422FFF7B3FFEBE7049500001C950000E0
:1026F00070B50D461646044600F0F2F8013514D0C8
:102700002368013312D066B9236962681A602046D3
:10271000012100F001F92046BDE87040022100F0DF
:10272000F7B8E36862681A60F1E770BD03480449CE
:102730002422FFF78BFF002EE6D0F2E7049500007D
:102740001C95000000F066B8431C10B5044618D074
:102750000B68581C04D10FE051F80C3F5A1C0BD0E9
:102760009C42F9D12046896800F090FA2046BDE8E5
:102770001040022100F0B2BA0248BDE81040FFF755
:1027800071BF10BD9C9A000088420AD0421C09D03B
:10279000013106D008B50448FFF764FF4FF0FF3061
:1027A00008BD704708467047B09A00000B685A1C75
:1027B00004D107E051F80C3F5A1C03D08342F9D1F1
:1027C0004868704718467047421C0ED008B50B6821
:1027D0005A1C04D10AE051F80C3F5A1C06D098420A
:1027E000F9D14868411C01D008BD70470248FFF785
:1027F00039FF4FF0FF30F7E7C49A000030B585B0DD
:1028000018246D4620462946ABBE0446204605B036
:1028100030BD00BF024B186800F00100704700BFD8
:10282000F0ED00E0036870B5DB68054698476B681B
:102830005B6883B12A681C6853689847201A00288F
:102840006A680DDC50681168836853600029F0D015
:1028500040688847EBE72B68BDE870409B681847E5
:102860002B6852681B691068BDE87040184700BFAC
:1028700003685B68184700BF00487047189B00005A
:102880000148FFF7CFBF00BF189B000038B50546D1
:1028900000F09AFA044600F097FA001BA842FAD317
:1028A00038BD00BF4FF47A7303FB00F0FFF7EEBFB3
:1028B000431C10B5044608D02046002100F0E6F97C
:1028C00004F01F040120A04010BD03480349152255
:1028D000FFF7BCFEF0E700BF209B0000349B000028
:1028E0004A1C016013D038B50C4605460846FFF770
:1028F000DFFF24F01F0101F1180401F11C0201F1B6
:1029000014036860A960EC602A616B6138BD704790
:10291000006800F0E3B900BF38B50368044601332E
:102920000D4610D045B1012D05D1A268636811682C
:102930000B43136038BD38BDA2686168136823EA91
:102940000103136038BD034803492C22FFF77EFEC4
:10295000E8E700BF04950000349B0000F8B5064688
:102960000D46084628491446FFF72EFF274907461B
:102970002046FFF729FF01463846FFF705FF421CB6
:102980000346306039D0224A93422ED002F5882285
:10299000934222D0A2F50422934216D01D4A1E492A
:1029A00012683C27120AA1FB0212402692095A61C2
:1029B00028461A6114499F611E60FFF7C5FE204634
:1029C000BDE8F8401149FFF7BFBE1449D1F8C42053
:1029D00042F08002C1F8C420E0E71049D1F8C420D9
:1029E00042F08062C1F8C420D8E70C49D1F8C42075
:1029F00042F40022C1F8C420D0E709480949632203
:102A0000FFF724FE3368BEE79C9B0000549C000047
:102A100000C00540602D0010632D3E0500C00F4032
:102A2000D89B0000EC9B0000044B49001B68026827
:102A30009B08B3FBF1F1516111617047602D0010EB
:102A40002DE9F04304683C2507462420A561A646ED
:102A50002060534D01E0013D02D026683607FAD5CB
:102A6000606820251028A56110D008280ED01023FA
:102A7000082223604A4BA26101E0013B02D0226898
:102A8000D506FAD46FF00100BDE8F08341F00101F2
:102A90000820A1604249A06101E0013902D0256807
:102AA0002807FAD5616840290ED010230822236038
:102AB0003B4BA26101E0013B02D02268D606FAD46A
:102AC0004FF0FF30BDE8F083581E0028D8BF4FF00C
:102AD000000C1FDD844602F1FF3E00264FF0040982
:102AE0004FF00808C4F800902D49C4F8188001E0A0
:102AF000013902D025682D07FAD5A56861685029EB
:102B00002CD1013686420EF8015F01D03C68E9E71E
:102B1000D7F800E004210824CEF818102049CEF898
:102B2000184001E0013903D0DEF800402507F9D54F
:102B3000DEF80840DEF8041058291DD010230822C2
:102B4000CEF80030164BCEF8182001E0013B11D032
:102B5000DEF80020D406F9D4BDE8F0831023082263
:102B600023600F4BA26101E0013B02D02268D7062F
:102B7000FAD43046BDE8F08302F80C40079A5AB107
:102B80003868102208210260054A816101E0013A9B
:102B900002D00168C906FAD41846BDE8F08300BF28
:102BA000A186010070B404683C252420A561364D3F
:102BB000206001E0013D02D026683007FAD5606848
:102BC00020251028A56110D008280ED01023082237
:102BD00023602D4BA26101E0013B02D02268D606A2
:102BE000FAD46FF0010070BC704701F0FE010820BC
:102BF000A1602549A06101E0013902D025682D07B7
:102C0000FAD5616818290ED01023082223601E4BC4
:102C1000A26101E0013B02D02268D006FAD44FF055
:102C2000FF3070BC7047002B13DD551E00200826B6
:102C300015F8011F144AA160A66101E0013A02D013
:102C400021680907FAD56268282A11D10130984213
:102C5000EED1039A52B11022082122600A4AA161E2
:102C600001E0013A02D02168C906FAD41846BAE751
:102C7000102308222360044BA26101E0013BB2D083
:102C80002268D506FAD4AEE7A186010038B5431C08
:102C900004460D4618D004F16040A0F51C2003093D
:102CA0009B0003F1804303F5303300F00F001968F7
:102CB00040000322824021EA02021A601A6885401D
:102CC00045EA0201196038BD024803491522FFF7A1
:102CD000BDFCE0E7209B0000909C000038B5431C41
:102CE00005460C462BD005F16040A0F51C20430999
:102CF0009B0003F1804303F53033996E00F01F020F
:102D0000C4F3800505FA02F221EA02019966996E80
:102D10000A439A6695B903099B0003F1804303F5C2
:102D2000303300F00F00196C40000322824021EA8A
:102D300002021A641A6C844014431C6438BD0348B0
:102D400003492022FFF782FCCDE700BF209B000053
:102D5000909C000038B51249124B01241C60D1F838
:102D6000C430114A43F4000310480025C1F8C430B0
:102D70001567036801F1437101F5F45103319B08B4
:102D8000A1FB03139B0C013B022151600420D36083
:102D900007495460FEF7AAFA064B10221A6038BDA4
:102DA00000C00F40D431001000400940602D0010D9
:102DB0008128000000E100E0024B1B6803B170476E
:102DC000FFF7C8BFD431001008B5044B1B680BB91E
:102DD000FFF7C0FF024B986808BD00BFD431001058
:102DE00000400940034B98615A6942F001025A6160
:102DF000704700BF00400940024A536923F00103B5
:102E00005361704700400940014B01221A6070472E
:102E10000040094010B50446064B002240F8043B30
:102E2000FFF7ACFA044B204603F10802343384E880
:102E30000C0010BDA8950000F89C000010B50446D9
:102E4000064B03F108023433226040F8043FFFF7D9
:102E50005FFA2046FEF78EFA204610BDF89C00006F
:102E60000B460146184600F02DB800F0DBBB10B54C
:102E7000002814BF04460124204600F0CBFB30B9E3
:102E800000F008F808B900F00DF88047F4E710BD2D
:102E9000FFF7EDBF024B1868BFF35F8F704700BFAD
:102EA000D831001008B5062001F058FF0120FEF7C8
:102EB000ABFB0028B8BF404270470A22002102F055
:102EC000CDBE000010B5054C13462CB10A46014694
:102ED0000220AFF3008010BD204610BD00000000AE
:102EE000014B1868704700BFE02D001008B5074B74
:102EF000044613B10021AFF30080054B1868836AC4
:102F000003B198472046FEF77FFB00BF000000009A
:102F1000989D000070B505460C4609B9002070BDAB
:102F200018B183690BB900F085F9204B9C4201D19F
:102F30006C6808E01E4B9C4201D1AC6803E01D4B5D
:102F40009C4208BFEC68B4F90C30002BE6D0214657
:102F5000284600F039F8236B064633B1216A28462B
:102F600098470028B8BF4FF0FF36A3891B0603D54A
:102F70002169284600F080FB616B41B104F14403F4
:102F8000994202D0284600F077FB00236363A16CCE
:102F900021B1284600F070FB0023A36400F0B6F9CD
:102FA0000023A38100F0B3F9304670BD349D0000CA
:102FB000549D0000749D0000024B01461868FFF705
:102FC000A9BF00BFE02D00108A892DE9F041054618
:102FD00010070C4659D44B68002B02DC0B6C002BFD
:102FE00017DDE66AAEB102F48052002392B22F6878
:102FF0002B600AB1606D15E0216A01232846B047B5
:10300000411C0FD12B686BB11D2B01D0162B03D1A6
:103010002F600020BDE8F081A38943F04003A38125
:10302000BDE8F081A3895A0705D56368C01A636BB0
:103030000BB1236CC01A00230246E66A216A2846B7
:10304000B047431CA38906D129681D2939D8204AD5
:10305000CA40D60735D5002262602269D9042260B1
:1030600004D5421C01D12B6803B96065616B2F60E8
:103070000029CED004F14403994202D0284600F042
:10308000FBFA00206063BDE8F0810F69002FC0D01B
:1030900093070E680CBF4B690023C7EB06080F604F
:1030A0008B6002E00744C0EB0808B8F1000FB0DD08
:1030B00043463A46216A2846A66AB0470028F1DC12
:1030C000A38943F04003A3814FF0FF30BDE8F081B6
:1030D0000100402038B50B6905460C46DBB118B13C
:1030E00083690BB900F0A6F80C4B9C4201D16C68C7
:1030F00008E00B4B9C4201D1AC6803E0094B9C42B9
:1031000008BFEC68B4F90C302BB121462846BDE865
:103110003840FFF759BF002038BD00BF349D000084
:10312000549D0000749D0000014620B9044B0549E0
:10313000186800F0DFB9044B1868FFF7CBBF00BF79
:10314000989D0000D5300000E02D001038B50C46E9
:10315000054618B183690BB900F06CF80E4B9C4220
:1031600001D16C6808E00D4B9C4201D1AC6803E0D2
:103170000B4B9C4208BFEC686368013B002B63600B
:1031800005DA21462846BDE8384001F095BC2368A1
:103190005A1C2260187838BD349D0000549D0000F0
:1031A000749D0000024B01461868FFF7CFBF00BFB7
:1031B000E02D0010014900F09DB900BFD53000009E
:1031C00010B5044600230360436083608181436639
:1031D000C281036143618361194608225C3000F0BB
:1031E00042FA054B24626362044BA362044BE36220
:1031F000044B236310BD00BF314E0000574E00004A
:103200008F4E0000B34E000070B568234D1E5D4325
:103210000E4605F1740100F073FA044640B1002136
:1032200080E842000C30A06005F1680200F01BFA53
:10323000204670BD836910B5044633BB8364C36404
:103240000365124B124A1B688262984204BF012335
:10325000836100F01FF86060204600F01BF8A0605A
:10326000204600F017F80022E06004216068FFF7B4
:10327000A7FF01220921A068FFF7A2FF0222122165
:10328000E068FFF79DFF0123A36110BD989D00003A
:10329000B5310000F8B51C4B07461E68B36913B979
:1032A0003046FFF7C7FF4836B4687368013B04D463
:1032B000B4F90C507DB16834F8E733680BB1366867
:1032C000F2E704213846FFF79FFF30600028F6D16F
:1032D0000C233B60F8BD4FF6FF73E3810123A3810C
:1032E00065662560A560656025616561A561082248
:1032F000294604F15C0000F0B6F96563A563A56496
:10330000E5642046F8BD00BF989D000070477047F7
:10331000F7B50F46114601AA054603F069FC0646BB
:1033200008B9002029E02846FFF7B4FF044600282A
:10333000F7D04FF4DB73019A3946284601F01AFBA7
:10334000002806DA0025FFF7E1FFA581FFF7DFFF80
:10335000E7E70B4BE08163620A4BA681A3620A4B4D
:103360002462E362094B2363F30505D5022300229F
:103370002146284600F014F8204603B0F0BD00BFF7
:10338000314E0000574E00008F4E0000B34E00003B
:10339000024B0A4601461868FFF7BABFE02D00103D
:1033A00000F000B82DE9F8430C4690461E4605464D
:1033B00018B183690BB9FFF73DFF3D4B9C4201D12A
:1033C0006C6808E03B4B9C4201D1AC6803E03A4B8F
:1033D0009C4208BFEC68A38903F48473B3F5847F2F
:1033E00003D121462846FFF775FEE76A0FB91D2372
:1033F0002BE0012E04D0022E2BD056B3162324E04E
:1034000021462846FFF766FEA28902F4805292B256
:103410000AB1606D05E0216A33462846B847411C71
:1034200014D0A3895A0706D56368C01A636B4BB1E1
:10343000236CC01A06E01B0704D5236813B1226968
:103440009B1A18448044002603E02B604FF0FF399C
:103450002BE023691BB92146284600F08FF821464E
:103460002846FFF737FE81460028EFD13346424613
:10347000216A2846B8470130E8D0616B41B104F1B8
:103480004403994202D0284600F0F6F80023636313
:10349000236900212360A389616023F40263A3816F
:1034A000082204F15C0000F0DEF84846BDE8F8832D
:1034B000349D0000549D0000749D00002DE9F041F2
:1034C000884600F1480400268CB1A5686768013F72
:1034D0000BD4AB89012B06D9B5F90E30013302D0DC
:1034E0002846C04706436835F1E72468ECE73046D4
:1034F000BDE8F0812DE9F8438046894600F1480493
:10350000002694B1A5686768013F0CD4AB89012BF4
:1035100007D9B5F90E30013303D029464046C847D4
:1035200006436835F0E72468EBE73046BDE8F883EA
:103530000E4B70B51E460E4C0025E41AA410A54291
:1035400004D056F8253098470135F8E705F03CFEE1
:10355000084B094C1E46E41AA4100025A54204D0CD
:1035600056F8253098470135F8E770BD202E001039
:10357000202E0010202E0010282E0010F0B58B8970
:1035800091B09D0706460C4625D4B1F90E100029CE
:1035900008DAA389002513F0800F14BF40274FF4E9
:1035A00080670DE001AA03F05BFB0028F1DB029DC0
:1035B0004FF4806705F47045A5F500514D424D412B
:1035C0003946304600F09CF860B9A3899A051DD4AD
:1035D00043F00203A38104F1470323602361012325
:1035E000636113E00A4BB362A389206043F0800358
:1035F000A381206167614DB1B4F90E10304603F02C
:103600005FFE18B1A38943F00103A38111B0F0BD9F
:10361000B5310000024B0146186800F071B800BFD8
:10362000E02D0010024B0146186800F025B800BFDD
:10363000E02D001010B5C9B202449042034605D0F7
:103640001C7801308C42F8D1184610BD002010BD06
:1036500010B5431E0A44914204D011F8014B03F8FF
:10366000014FF8E710BD03460244934202D003F82D
:10367000011BFAE77047000030B500293CD051F833
:10368000042C0B1F1D49002AB8BF9B180A680C4662
:1036900012B95A600B6030BD9A420DD9196858189A
:1036A000824201BF10685268091819605A6023608D
:1036B00030BD994203D80A4651680029F9D11468EF
:1036C00015199D420AD11B682344D018814213600A
:1036D00012D10868034413604B680CE002D90C2334
:1036E000036030BD18681C18A14201BF0C6849680E
:1036F000001918605960536030BD00BFE031001000
:1037000070B5CD1C25F0030508350C2D38BF0C25F0
:10371000002D064603DA0C233360002070BDA94259
:10372000F9D81F4B1C681A462146A1B10B685B1BD8
:103730000ED40B2B03D90B60CC18CD501EE08C425D
:103740000BBF63684B681360636018BF0C4615E0DD
:103750000C464968E9E7134C23681BB9304601F071
:10376000FFF920602946304601F0FAF9431CD2D017
:10377000C41C24F00304A0420AD1256004F10B000C
:10378000231D20F00700C31A09D05A42E25070BD31
:10379000211A304601F0E4F90130EED1BBE770BDEB
:1037A000E0310010DC310010936810B4013B002BB5
:1037B000936008DA9469A34202DBCBB20A2B02D1F0
:1037C00010BC02F00DBB1368581C10601970C8B211
:1037D00010BC7047F8B506460F461446D518AC42E3
:1037E00008D03A4614F8011B3046FFF7DDFF431CB2
:1037F000F5D100E00020F8BD2DE9F04F9DB00C465A
:1038000017460393064618B183690BB9FFF712FDFB
:103810007F4B9C4201D1746808E07E4B9C4201D1F1
:10382000B46803E07C4B9C4208BFF468A389180786
:103830000CD5236953B10023099320238DF8293037
:1038400030238DF82A30DFF8D4B144E021463046E9
:1038500002F02CFB0028EED04FF0FF30D5E0039AA9
:10386000111D12680391002A80F28C80524243F0AD
:1038700002000792049098F800302E2B00F084800C
:10388000032298F800106548FFF7D4FE48B14023A2
:10389000CBEB000003FA00F0049B08F10108184389
:1038A000049098F8001006225D4808F101078DF891
:1038B0002810FFF7BFFE002800F09580594B002B21
:1038C00040F08880039B073323F0070308330393FA
:1038D000099B53440993B846454615F8013B1BB96B
:1038E000B8EB07090FD003E0252BF9D0A846F3E782
:1038F0004B463A4621463046FFF76CFF01307FD0F9
:10390000099B4B44099398F80030002B78D0002392
:103910004FF0FF3204930793059206938DF85330CE
:103920001A930127052229783F48FFF783FE05F106
:103930000108049B38B13C4A4546801A07FA00F05A
:1039400018430490EEE7D90644BF20228DF8532097
:103950001A0744BF2B228DF853202A782A2A3FF4D5
:103960007EAF079A00210A20A84698F8003001355A
:10397000303B092B03D800FB02320121F4E7002978
:103980003FF479AF079276E798F801302A2B0BD1F4
:10399000039B08F102081A1D1B680392002BB8BF95
:1039A0004FF0FF3305936BE700231946059308F1A9
:1039B00001000A25804698F800200130303A092A93
:1039C00003D805FB01210123F4E7002B3FF458AF96
:1039D000059155E703AB00932246144B04A93046EA
:1039E00000F0C2F807E003AB009322460F4B04A996
:1039F000304600F065FBB0F1FF3F82467FF468AFD0
:103A0000A3895B063FF528AF09981DB0BDE8F08F8C
:103A1000349D0000549D0000749D0000A29D000094
:103A2000A69D0000693B00009C9D0000D53700006A
:103A300013460A46014602480068FFF7DDBE00BF94
:103A4000E02D00102DE9F04788B0149F002B1E4692
:103A50001299B8BF03F1004327F02007B6BF1E46F6
:103A600000232D23462F1446109DDDF84CA00B702B
:103A700003D0452F03D1013501E0032300E00223E9
:103A800007AA049206AA03928DE828042246334628
:103A900002F016FB472F804602D1119BDB0728D589
:103AA000462F08EB050911D198F80030302B0AD1C8
:103AB000002200232046314604F092FF18B9C5F1D8
:103AC0000105CAF80050DAF80030994400220023BA
:103AD0002046314604F084FF08B9302202E0CDF8D8
:103AE0001C9006E0079B994503D9591C07911A7051
:103AF000F8E74046079B159AC8EB0303136008B02C
:103B0000BDE8F087034673B50029B8BF494203F802
:103B1000022BB4BF2D222B22092942701ADD0DF190
:103B2000070216460A2591FBF5F405FB1411092C32
:103B300001F1300102F8011D2146F4DC3031541E40
:103B400002F8011CB4421A460AD214F8012B03F8F9
:103B5000012BF7E71A463024214402F8024B597032
:103B6000101A02B070BD00002DE9F04F8FB00C4666
:103B700016461F46DDF86080054603F0B1FBD0F81D
:103B800000B0584601F0A3F900230C93D8F8003098
:103B90000890073323F0070303F1080294F8189004
:103BA000C8F80020D3E90023C4E91223D4E91201A4
:103BB00000F0AEFF012819D1D4E912010022002340
:103BC00004F018FF10B12D2384F843309A4B9B4A20
:103BD000B9F1470F8CBF90469846032323612368B1
:103BE00023F0040323604FF0000A93E0D4E91201AC
:103BF00000F08EFF236848B9914A9249B9F1470F06
:103C00008CBF8846904603222261E9E7D4F804E09D
:103C1000D4E91201BEF1FF3F01D106220AE0B9F159
:103C2000670F02D0B9F1470F05D1BEF1000F40F088
:103C3000B68101226260002243F4806306920CAADE
:103C40002360059201930BAA636803920DF12B0286
:103C50000292009302460B46CDF810902846FFF7DB
:103C6000F1FE09F0DF03472B804609D10B9BD81CDE
:103C700002DB6268934230DDA9F102095FFA89F93B
:103C8000B9F1650F0B9912D801394A4604F1500079
:103C90000B91FFF737FF0C9A82468318012A2361A4
:103CA00002DC2268D1072FD5013323612CE0B9F162
:103CB000660F14D10029636807DD216113B92268FA
:103CC000D2071DD501330B4419E013B92268D00780
:103CD00001D5023313E0012311E04FF067090B9B7C
:103CE0000C9A934205DB22682361D10708D5013382
:103CF00005E0002BD4BFC3F1020301231344236169
:103D00000B9B4FF0000AA3659DF82B3013B12D23B8
:103D100084F84330009733460DAA2146284600F028
:103D200059F9013002D14FF0FF3050E123685A05B4
:103D300001D4236965E0B9F1650F40F2D580D4E97B
:103D400012010022002304F04BFE78B301233E4A07
:103D500031462846B8470130E5D00C9B0B9A9A4271
:103D60000BDB2368D80708D423689B0740F1118137
:103D70004FF0000804F1190906E1089B5A46314644
:103D80002846B8470130CED04FF0000804F11A0998
:103D90000C9B013B9845E7DA01234A463146284609
:103DA000B8470130BFD008F10108F1E70B9B002BA9
:103DB00029DC0123244A31462846B8470130B2D0D5
:103DC0000B9B23B90C9B13B92368D907CCD5089B4F
:103DD0005A4631462846B8470130A4D04FF0000972
:103DE00004F11A0A0B9B5B42994509DA01235246FA
:103DF00031462846B847013095D009F10109F1E76D
:103E00000C9B4246A7E00C9AA36D9A42A8BF1A46A3
:103E1000002A914607DC04F11A034FF0000A29EA50
:103E2000E97909931CE01346314642462846B847D3
:103E30000130F0D177E700BFAD9D0000B19D0000DB
:103E4000B59D0000B99D0000069E00000123099A5F
:103E500031462846B84701303FF465AF0AF1010A00
:103E6000A36DC9EB03029245F0DB08EB03090B9A43
:103E70000C9B9A420FDB2368DA070CD40C9B0B9A3D
:103E80009844C9EB08089B1A9845A8BF9846B8F112
:103E9000000F08DC0FE0089B5A4631462846B84719
:103EA0000130EBD13FE743464A4631462846B84702
:103EB00001303FF438AF4FF0000928EAE87804F108
:103EC0001A0A09E00123524631462846B847013014
:103ED0003FF429AF09F101090B9A0C9B9B1AC8EB1F
:103EE00003039945EEDB3FE70C9A012A01DCDB076F
:103EF00038D50123424631462846B84701303FF4C1
:103F000012AF089B5A4631462846B84701303FF465
:103F10000AAFD4E912010022002304F061FD20B1B0
:103F20004FF0000804F11A090EE00C9B08F10102A1
:103F3000013B19E001234A4631462846B847013083
:103F40003FF4F1AE08F101080C9B013B9845F1DB11
:103F5000534604F1500231462846B84701307FF4F9
:103F600003AFE0E64246012331462846B847013018
:103F7000EED1D8E601234A4631462846B8470130FB
:103F80003FF4D1AE08F10108E3680D9A9B1A9845F9
:103F9000F0DBE0680D9B9842B8BF184617E000229E
:103FA00006920CAA05920BAA43F4806303920DF1CA
:103FB0002B022360029201930246CDF81090CDF8B7
:103FC00000E00B462846FFF73DFD80464EE60FB069
:103FD000BDE8F08F2DE9F04791461F460A698B68CE
:103FE00006469342B8BF1346C9F8003091F8432003
:103FF0000C46DDF8208012B10133C9F80030236887
:10400000990642BFD9F800300233C9F8003025685C
:1040100015F0060510D104F1190A07E001235246F4
:1040200039463046C04701301AD00135E368D9F827
:1040300000209B1A9D42F1DB94F843302268003344
:1040400018BF012392060FD5E118302081F84300F4
:104050005A1C94F845102244023382F8431003E0BE
:104060004FF0FF30BDE8F08704F143023946304697
:10407000C0470130F4D02268D9F80050E36802F05C
:104080000602042A08BF5D1B2269A3680CBF25EA4B
:10409000E57500259342C4BF9B1AED184FF0000947
:1040A0001A344D4509D00123224639463046C047CF
:1040B0000130D5D009F10109F3E70020BDE8F08710
:1040C0002DE9F04317460A7E85B06E2A98460646CB
:1040D0000C460C9B01F1430E00F0AE8011D8632A10
:1040E00022D009D8002A00F0BB80582A40F0CA80AC
:1040F00081F84520834955E0642A1ED0692A1CD0E6
:10410000C0E0732A00F0B08009D86F2A2ED0702A40
:1041100040F0B8800A6842F020020A603EE0752A4A
:1041200024D0782A3AD0ADE01A6801F14205111D79
:104130001960136884F84230A8E021681A6811F009
:10414000800F02D0111D196008E011F0400F02F13C
:104150000401196002D0B2F9003000E01368002BAE
:104160003CDA2D225B4284F8432037E021681A684C
:1041700011F0800F02D0111D196007E011F0400FFF
:1041800002F10401196001D0138800E01368227E57
:104190005C496F2A14BF0A2208221BE078225A4980
:1041A00084F845202268186812F0800F00F1040599
:1041B0001D6003D1550601D5038800E00368D007D0
:1041C00044BF42F0200222601BB9226822F0200284
:1041D00022601022002084F8430001E049490A22AD
:1041E0006568002DA56008DB206820F004002060D1
:1041F0002BB9002D7DD175460CE0002B79D075468A
:10420000B3FBF2F002FB1033CB5C05F8013D034633
:104210000028F5D1082A0BD12368DA0708D52369CD
:1042200062689A42DEBF302305F8013C05F1FF3594
:10423000C5EB0E0323612EE008681A6810F0800FAA
:10424000496903D0101D1860136808E010F0400F92
:1042500002F104001860136801D0198000E01960B1
:1042600000232361754616E01A68111D1960156850
:10427000002162682846FFF7DDF908B1401B606045
:10428000636804E004F1420584F8422001232361BD
:10429000002384F84330CDF800803B4603AA214632
:1042A0003046FFF797FE013002D14FF0FF3026E095
:1042B00023692A4639463046C0470130F5D0236885
:1042C0009B0710D5002504F1190907E001234A4690
:1042D00039463046C0470130E7D00135E368039ADC
:1042E0009B1A9D42F2DBE068039B9842B8BF1846D8
:1042F00005E00B7804F1420584F842308AE705B006
:10430000BDE8F083BD9D0000CE9D00002DE9F04F7B
:104310009A468B6816465A1EB2F5AE7F88BF6FF478
:10432000AE7287B082BF9B18019340F25D1388463E
:1043300096BF00238B6001930B684FF0000B43F492
:10434000F06348F81C3B07460C4645465A46D9469A
:10435000CDF810B0CDF80CB0CDF808B0A1680029A8
:1043600000F0E58033681B78492B70D016D8392BC4
:104370000DD8312B40D22D2B46D002D82B2B43D039
:10438000D5E02E2B00F09280302B23D0CFE0452BB0
:1043900000F09580462B77D0412B0CE0652B00F088
:1043A0008E800AD8542B75D002D84E2B34D0BEE064
:1043B000592B75D0612B46D0B9E06E2B2CD004D888
:1043C000662B61D0692B42D0B1E0742B62D0792B7F
:1043D00066D0ACE0206810F4807F0DD0019B20F007
:1043E0008000206009F10109002B00F08780013B6B
:1043F00001310193A16081E012EB0B0F40F0978037
:10440000216821F4C07105E02168080640F18F8021
:1044100021F0800121606FE06AB9B9F1000F0CD181
:10442000216801F4E060B0F5E06F06D121F4F0619D
:104430002160012260E0022A5DD0BBF1010F1ED095
:10444000BBF1040F1AE0012A71D1022254E0BBF142
:10445000000F0ED1B9F1000F6CD1216801F4E060BA
:10446000B0F5E06F6AD121F4F06121604FF0010BEB
:1044700042E0BBF1030F02D0BBF1050F57D10BF1A6
:10448000010B5FFA8BFB37E0BBF1020F4FD14FF00E
:10449000030B31E0BBF1060F49D14FF0070B2BE0C6
:1044A000BBF1070F43D14FF0080B25E021688805C9
:1044B0003DD521F420712160CDF808901CE02168E1
:1044C00001F4A060B0F5806F04D048052FD5B9F194
:1044D000000F33D0880558BF029821F4F06158BF0F
:1044E000C0EB090041F4C0715CBF039004952160EA
:1044F0004FF0000900E003222B700135A368013B57
:10450000A3602369013323617368013B002B73604F
:1045100003DD33680133336020E7D4F8803131465E
:10452000384605929847059A00283FF417AFB9F12D
:10453000000F03D0236823F480732360013A012A1B
:104540000ED845450AD9D4F87C31324615F8011DFC
:10455000384698472369013B2361F2E70126AAE028
:104560000BF1FF33062B22D8BBF1020F12D9ABF1AE
:10457000030B5FFA8BFBCBEB050B5D4517D0D4F833
:104580007C31324615F8011D384698472369013BB6
:104590002361F2E74545E1D9D4F87C31324615F87C
:1045A000011D384698472369013B2361F2E72368E0
:1045B000DA052CD55B050CD54545CFD9D4F87C312F
:1045C000324615F8011D384698472369013B23619F
:1045D000F2E715F8011C2369652903F1FF3305F1A2
:1045E000FF3B23610DD045290BD0D4F87C313246F6
:1045F00038469847236915F8021C013BA5F1020BC8
:104600002361D4F87C313246384698475D462668A7
:1046100016F010064ED12E70236803F4C063B3F574
:10462000806F05D1029BC3EB09035A4263B915E0C1
:10463000039B9BB104990A2332460131384601F0AD
:1046400087FA039B049DC21A04F26F139D4228BF90
:1046500004F5B7751A49284600F09CFB0022414634
:10466000384600F075FC2268804612F0020F894639
:10467000DAF8003003D01A1DCAF8002006E012F064
:10468000040F03F10402CAF8002003D01B68C3E939
:1046900000890BE01D6800F03BFA10B900F030FB18
:1046A00003E04046494604F015FA2860E368013308
:1046B000E36000E00026304607B0BDE8F08F00BFA1
:1046C000DF9D00002DE9F84315468A6880460C46B8
:1046D00032B98A69002A0CBF01224FF0FF328A608A
:1046E0002268DFF8A890D10658BF1A684FF000067C
:1046F0005EBF111D19601768A069F8B923680136FB
:10470000DA065EBF2B681B783B702A686B6802F183
:1047100001022A60A26803F1FF3302F1FF326B60ED
:1047200058BF0137A260E2B1002BE5DCD4F880313C
:104730002946404698470028DED012E0012806D1DD
:104740002B681A7863699B5C002BD7D119E002288B
:1047500007D12B68D9F800201B7813445B781B071E
:10476000CCD5236813F0100305D1E2680132E26072
:10477000A26902B13B70236900201E442661BDE896
:10478000F883002EEDD1BDE8F88300BFE42D0010C2
:104790002DE9F04F0C469A46724B87B08346164679
:1047A00093E8070003ABA76883E807006E4BA16995
:1047B0006E4A04F11C09032918BF1A467B1EB3F583
:1047C000AE7F84BF40F25D13A360236888BF6FF49F
:1047D000AE7543F4506323604B4600928CBF7F1943
:1047E00000274FF000083168019303AB53F828000D
:1047F00002220978FEF71EFF019B002833D0B8F192
:10480000010F0BD162682AB908226260226842F463
:1048100000722260226822F4A0620CE0B8F1020F5C
:104820000AD1226802F4C061B1F5007F1BD11021CA
:10483000616042F480722260A268511EA16092B150
:1048400032685D1C511C316012781A707368013B2C
:10485000002B736006DCD4F8803131465846984707
:10486000002841D12B4608F10108B8F1030FBAD155
:1048700062680AB90A22626062683D496069891A01
:10488000019300F07DF9019B4FF000081D46A368DD
:1048900063B3316860690A78805C38B3302A226873
:1048A00008D1100506D508F1010857B10133013FC1
:1048B000A36006E022F4106222600B78013505F84F
:1048C000013C7368013B002B736003DD33680133E7
:1048D000336005E0D4F8803131465846984728B90E
:1048E000A368013BA360D2E74FF000082368D90515
:1048F0000CD54D4508D915F8011C6F1ED4F87C3134
:104900003246584698473D464D4527D0226812F01A
:1049100010021BD12A70636849465846009EB04772
:104920002268DAF8003012F0200F07D1D20705D53F
:104930001A1DCAF800201B68188004E01A1DCAF866
:1049400000201B681860E3680133E3602369C9EB4A
:10495000050545441D442561002000E0012007B005
:10496000BDE8F08FE49D0000715C0000515B000029
:10497000009E000038B5074C054608461146002247
:1049800022601A46FCF70CFD431C02D1236803B1D8
:104990002B6038BDEC310010838903F00903092B2B
:1049A00001D1FEF7C1BB002070470000F8B50C46EE
:1049B000054618B183690BB9FEF73CFC394B9C42A4
:1049C00001D16C6808E0384B9C4201D1AC6803E02F
:1049D000364B9C4208BFEC68A2890023636093B207
:1049E0009E065AD458071AD4D90605D4092342F092
:1049F00040022B60A28150E01A070BD521462846C1
:104A0000FEF768FB002848D1A389A06023F00803C3
:104A1000A381A061A38943F00403A38110E0616B2B
:104A200071B104F14403994202D02846FEF724FEF6
:104A3000236C00206063636013B1E36B2360F8BDF7
:104A400023691BB921462846FEF798FDA789BEB207
:104A5000B3070FD00123A381154B1649186806F040
:104A60000906FEF72BFD092EA78103D12146284612
:104A7000FEF7AAFA2269666A22606369216A2846FB
:104A8000B047002860600BDCA38917BF002243F009
:104A9000200343F040036260A3814FF0FF30F8BD74
:104AA0000020F8BD349D0000549D0000749D00005E
:104AB000989D00009949000038B50C46054618B18C
:104AC00083690BB9FEF7B6FB0E4B9C4201D16C68B3
:104AD00008E00D4B9C4201D1AC6803E00B4B9C42BB
:104AE00008BFEC6821462846FFF760FF38B96368C5
:104AF000013B636023685A1C2260187838BD4FF070
:104B0000FF3038BD349D0000549D0000749D0000AE
:104B100031F0004310B51BD00F4AA1F58014944228
:104B200010D901F1FF410C4A01F5E001914209D988
:104B3000B3F5801F08D3094A934207D1B0FA80F039
:104B4000400910BD042010BD032010BD002010BD81
:104B50000028E6D1022010BDFFFFDF7F0000F07FBC
:104B600038B5064C0023054608462360FCF738FD9F
:104B7000431C02D1236803B12B6038BDEC31001017
:104B800070B50B78441E5E2B13BF4A1C8A1C4B78F1
:104B9000002108BF012100F1FF0504F8011FAC420C
:104BA000FBD10BB9501E70BD81F001041146C454F5
:104BB0000D784A1C2D2D06D05D2D0FD00DB12B4642
:104BC000F4E7084670BD4E785D2EF8D0B342F6DCAF
:104BD000023101339E42C454FBDCE9E7104670BD4C
:104BE00000294FF480630CBF0222002200F000B8BD
:104BF0002DE9F0411D463D4B04461E680F46904688
:104C000026B1B36913B93046FEF714FB384B9C420A
:104C100001D1746808E0374B9C4201D1B46803E0CD
:104C2000354B9C4208BFF468B8F1020F59D8002DEB
:104C300057DB21463046FEF74DFA00236360A3613F
:104C4000A3891B0603D521693046FEF715FDA3890C
:104C5000B8F1020F23F08303A38112D037BB002DDC
:104C600008BF4FF480652846FEF7D4FC0746C8B954
:104C70004FF48060FEF7CEFC074688B94FF0FF3056
:104C800000E00020A38943F00203A3810023A36076
:104C900004F147032360236101236361BDE8F081D0
:104CA0004FF48065A38943F08003A381B8F1010F1D
:104CB00005D1A38943F00103A3816B42A3610F4B8C
:104CC000B362A389276003F0080080B227616561A1
:104CD00048B113F0030F18BF0025A5600020BDE800
:104CE000F0814FF0FF30BDE8F08100BFE02D0010F3
:104CF000349D0000549D0000749D0000B5310000FB
:104D0000004870470000C07F1F2938B504460D4693
:104D100004D9162303604FF0FF3038BD426C12B146
:104D200052F821304BB9204600F032F82A460146AD
:104D30002046BDE8384000F019B8012B0CD0591CB2
:104D400003D116230360012038BD0024284642F811
:104D500025409847204638BD002038BD024B01460B
:104D60001868FFF7D1BF00BFE02D001038B5074C21
:104D70000023054608461146236004F01DFA431C33
:104D800002D1236803B12B6038BD00BFEC310010A5
:104D900004F00ABA0EB400B54FF402719CB0ADF83D
:104DA00014106FF00041049107914FF6FF711DAB95
:104DB00002900690084853F8042BADF816100068CE
:104DC00002A9019302F032FF029B00221A701CB06C
:104DD0005DF804EB03B07047E02D00100EB430B561
:104DE0009CB01FAC4FF4017254F8045BADF8142072
:104DF0000290069000F06BF80B4B03900B9300238E
:104E00000F9314934FF6FF7307900848ADF81630D0
:104E10002A46234602A90068019403F057F81CB003
:104E2000BDE8304003B07047534E0000E02D001045
:104E300010B50C46B1F90E1003F096F90028ABBF7F
:104E4000636DA3891B1823F48053ACBF6365A381F2
:104E500010BD002070472DE9F0411F468B890546A3
:104E6000DB050C46164605D502230022B1F90E10CB
:104E700002F03AFAA389324623F48053A381B4F9AD
:104E80000E103B462846BDE8F04100F0FDBF10B5CE
:104E90000C46B1F90E1002F027FA431CA38915BF86
:104EA000606523F4805343F48053A38118BFA3812A
:104EB00010BDB1F90E1001F065B810F8012B11F812
:104EC000013B012A28BF9A42F7D0D01A7047034607
:104ED00013F8012B002AFBD1181A0138704730B59E
:104EE00082B1451E013915F8013F11F8014FA34267
:104EF00006D1EC431444E04201D0002BF3D11C4610
:104F0000181B30BD104630BD2DE9F0410F469046CC
:104F100002F0DCFC04460D46B8F1000F11D0C7F3D7
:104F20000A53C3F16B03002B0BDD1B0503F17F5507
:104F3000002405F5401522462B4603F0E9FABDE8AA
:104F4000F08120462946BDE8F08100000000000005
:104F50002DE9F04F82460C469DB000231392189322
:104F60004FF000084FF000091791179B1A780D2A8F
:104F700005D8092A13D2002A00F0AD8112E02B2AAD
:104F800004D02D2A04D0202A0CD108E0002200E011
:104F900001220C925A1C17925B782BB99BE10133CA
:104FA0001793E2E700230C93179D2B78302B5CD1ED
:104FB0006B78582B01D0782B4CD10C9BA84A0193CD
:104FC00018AB009317A919AB504601F0A6FE10F0DC
:104FD0000706044600F08585062E05D1013500231D
:104FE00017950C9300F07DBD189A3AB135211AA897
:104FF00002F053FD1899504602F0D8F9062E22D837
:10500000DFE806F0040D08181D0D04004FF000093C
:10501000C84618E0DDF86880DDF86C9013E01B9B53
:10502000199A23F4801302F23342DDF8688043EAD0
:10503000025908E0DFF82C924FF0000803E06FF00F
:1050400000494FF0FF38210740F14B8549F00049F6
:1050500000F047BD179B5A1C17925B78302BF9D094
:10506000002B00F03E85012300E000230593179BF1
:105070000A22069300239B4602930493179D2E78E1
:10508000A6F13003D9B2092911D8BBF1080FD5BF59
:105090000499029902FB013302FB013305F101057A
:1050A000D4BF049302930BF1010B1795E6E750462A
:1050B00002F016F90768504602F012F90068FFF78F
:1050C00006FF394602462846FFF709FF074628B182
:1050D000002033465D46024601465AE0504602F043
:1050E000FFF80068FFF7F3FE179B1A1817921B5C76
:1050F000BBF1000F45D15846302B05D1179B01302D
:105100005A1C17925B78F7E7A3F13102082A46D8B8
:10511000179A0692024600200546303B00F1010135
:1051200029D00A44294605EB000C0A2661450FD018
:10513000013101F1FF3EBEF1080F03DC049F77430C
:105140000497F3E71029DEBF029F77430297EDE74C
:105150002844082800F1010505DC04980A2101FB18
:105160000033049306E0102DDFBF02980A2101FBF3
:10517000003302930021179B581C17905B78084658
:1051800002E05D4638463A46A3F130010929C4D908
:105190000121652B01D0452B4FD16DB904E0652B62
:1051A00040F0AD840022012128B9059B002B00F0BE
:1051B0009280054600E00025179C631C17936378D6
:1051C0002B2B06D02D2B02D00026039606E00123C0
:1051D00000E000230393A31C1793A378A3F13006E8
:1051E000092E29D8302B04D1179B5E1C17965B78AB
:1051F000F8E7A3F13106082E1FD8A3F1300E179B54
:105200001F46179B5E1C17965B78A3F1300CBCF110
:10521000090F05D80A2606FB0E3EAEF1300EF0E768
:10522000F61B082E44F61F6602DC7645A8BF7646BC
:10523000039F1FB1764201E017940026002D52D142
:10524000002840F04E84059A002A40F04A84002944
:1052500041D14E2B20D007DC492B0AD03BE000BFC8
:10526000209E00000000F07F692B02D06E2B13D02F
:1052700031E0AA4917A801F081FF60B3179BA84944
:10528000013B17A8179301F079FF10B9179B013361
:105290001793DFF8A8921AE0A24917A801F06EFF51
:1052A000C8B1179B1B78282B0FD11AAA9E4917A8A3
:1052B00001F077FF052808D11B9BDDF8688043F0DB
:1052C000FF4949F4E00900F00CBCDFF874924FF09C
:1052D000000800F006BC139B1794002B00F00C8410
:1052E00000230C93FFE32C46BBF1000F08BFAB4635
:1052F0000498102DA8BF1024B71A03F093F8092CB6
:105300008046894613DD894B03EBC40353E912231E
:1053100003F0FEF880460298894603F083F80246BF
:105320000B464046494602F041FF804689460F2D14
:1053300033DC002F00F0D58322DD162F07DC7B4DF8
:10534000424605EBC7014B46D1E9000113E0C5F128
:1053500025039F4221DC754CC5F10F0504EBC50107
:105360007D1B4246D1E900014B4604EBC50403F026
:10537000CFF8D4E9002303F0CBF880468946B0E3A8
:1053800017F1160F09DB694D4046A5EBC703D3E9BA
:105390000023494603F0E6F9EFE72C1B3C44002CC0
:1053A0005DDD14F00F010AD0604B424603EBC101F2
:1053B000D1E900014B4603F0ABF88046894634F052
:1053C0000F0400F0C180B4F59A7F0FDD4FF0000BA1
:1053D000CDF808B0CDF814B0CDF810B02223CAF83B
:1053E0000030DFF858914FF0000889E14046494607
:1053F00000234F4E24110293012C0CDDE20704D54B
:10540000D6E9002303F084F80123029A64100132E4
:1054100002920836F0E70BB180468946444B029A67
:10542000A9F1547903EBC201D1E9000142464B4690
:1054300003F06EF821F0004389460A461B0D3D49F2
:105440001B058B428046C1D8A1F580118B4286BFD7
:10545000DFF8F0904FF0FF3802F1547974E073D028
:10546000644214F00F020AD0304B404603EBC203F3
:105470004946D3E9002303F075F980468946241193
:1054800062D01F2C08DD4FF0000BCDF808B0CDF82E
:1054900014B0CDF810B02CE14046494614F0100F7E
:1054A0000CBF00236A23244E03930023002C09DD44
:1054B000E20704D5D6E9002303F02AF8012364109B
:1054C0000836F3E70BB180468946039BEBB1C9F37D
:1054D0000A53C3F16B03002B494616DD1F2B0EDD6B
:1054E000342BDEBF203B4FF0FF3202FA03F34FF0C4
:1054F0000008CCBF4FF05C7903EA010905E04FF0EA
:10550000FF3202FA03F303EA0808002200234046B0
:10551000494603F065FA0028B5D117E0B29D0000B6
:10552000649F0000BA9D00000C9E0000789F000060
:1055300050A000000000A07C389E00000000F07F1A
:105540000000F8FFFFFFEF7F00230393049B5A4600
:10555000009306992B46504601F07AFF05900028EB
:105560003FF434AF002FC7F10003A8BF00230D9311
:105570004FF0000B27EAE7731293CDF808B0059BB4
:105580005046596801F0DDFE049000283FF426AF34
:10559000059B0C301A6903F10C0102329200FEF7F0
:1055A00057F81AAB019319AB009342464B4650464D
:1055B000CDE9088902F0FBF9189000283FF40EAFFE
:1055C0000121504601F0CFFF029000283FF406AFC2
:1055D000199B0399002BACBF0D9A129A1A9CACBF71
:1055E000D618D21AA3EB01032344B14903F1FF33C8
:1055F000ACBF129A0D9E8B42C4F1360480F28580B6
:10560000C91A1F29C8BFAB4D4FF00107D4BF07FA15
:1056100001F3ED1AA4EB0104D9BF0793002507FAA3
:1056200005F507973719039BBE4214441C443346C3
:10563000A8BF3B46A342A8BF2346002BC2BFFF1A08
:10564000E41AF61A0D9B002B63D1002F7ADC129B13
:10565000002B40F08180002C00F38880002E00F3A6
:105660008F80049A1899504602F0D1F8834600289A
:105670003FF4B4AEC3680024C4600299069302F0FC
:10568000AAF8A04280F28B80069B002B40F0028299
:10569000B8F1000F40F0FE81C9F31303002B40F076
:1056A000F98129F000431B0D1B05B3F1D66F40F2C1
:1056B000F181DBF81430002B6CD0594601225046A2
:1056C00002F038F80299834602F085F8002840F38A
:1056D000E18129F00043039A1B0D1B05002A00F00D
:1056E0008D80B3F1D66F00F38980B3F15C7F00F356
:1056F000D38122234FF000084FF00009CAF8003090
:10570000059B002B40F0D981EBE101230025079395
:1057100088E71A460299504601F0BEFF0290002821
:105720003FF45CAE0146189A504601F025FF069002
:1057300000283FF453AE1899504601F037FE069BFF
:10574000189382E73A461899504601F0F3FF1890F3
:1057500000287FF47CAF41E6129A0499504601F08C
:105760009BFF049000287FF476AF37E62246049929
:10577000504601F0DFFF049000287FF46FAF2DE664
:1057800032460299504601F0D5FF029000287FF47E
:1057900068AF23E6DBF81030012B8EDC7AE161D1B3
:1057A000069AC9F3130322B343494A468B422ED1CA
:1057B000039B414663B1414B1340B3F1D46F07D80B
:1057C0001B0DC3F16B034FF0FF3000FA03F301E050
:1057D0004FF0FF338B421AD139498A4202D101334B
:1057E0003FF4FCAD354B4FF00008134003F5801932
:1057F00050E163B9B8F1000F09D16AE7A3F580134E
:105800006FEA13594FF0FF386FEA095942E115B1B9
:1058100015EA090F02E0079B13EA080F00F03A812E
:10582000069B039A4046494653B1FFF76DFB02467B
:105830000B46DDE9080102F0B9FC8046894629E102
:10584000FFF762FB02460B46DDE9080102F0ACFC03
:10585000002200238046894603F0C2F800287FF426
:1058600048AF17E10299584602F0EFF800224FF0D6
:10587000804306460F4603F0C7F800283FD0069B3A
:1058800013B100260F4F10E0B8F1000F03D1C9F398
:1058900013033BB91AE0B8F1010F03D1B9F1000FBE
:1058A0003FF427AF084F00260024064D3CE000BF20
:1058B00002FCFFFFE2FBFFFFFFFF0F000000F07F95
:1058C000FFFFEF7F0000F03F0000F0BF00229A4B87
:1058D0003046394603F08EF840B90022974B3046E7
:1058E000394602F015FE04460D4601E0069C934D34
:1058F00005F1004314941593DDE9146714E08F4B10
:1059000000223046394602F003FE069B04460D464F
:1059100023B901F100430E900F9303E002460B46BA
:10592000CDE90E23DDE90E6729F000431B0D1B05B1
:105930000793079A824B9A422BD1DDE90823A9F1FC
:10594000547940464946CDE90A2301F0BFFF02469B
:105950000B463046394602F0DBFD42464B4602F02C
:1059600025FC21F000431B0D764A1B05934280461F
:105970000CD9754B0B9A9A4203D10A9B01333FF421
:105980002DADDFF8C4914FF0FF3872E001F154798A
:1059900039E0039B3BB3079BB3F1D46F23D85EA3DD
:1059A000D3E900232046294603F02EF8B8B1294652
:1059B000204603F06FF8002808BF012002F032FDF6
:1059C000069B04460D4623B901F100431090119344
:1059D00003E002460B46CDE91023DDE91067079A84
:1059E00007F1D6639F1ADDE9080101F06FFF024657
:1059F0000B463046394602F08BFDDDE9082302F004
:105A0000D5FB80468946039B9BBB29F000431B0DB9
:105A1000079A1B059A424E462BD12946204603F091
:105A200011F802F00FFD0B4602462946204602F00F
:105A3000BBFB069B04460D462BB9B8F1000F02D103
:105A4000C9F313067EB136A3D3E9002320462946C5
:105A500002F0D0FF88BB34A3D3E9002320462946B7
:105A600002F0E6FF04E032A3D3E9002302F0C2FF14
:105A700018BB1899504601F099FC0499504601F062
:105A800095FC0299504601F091FC5946504601F0B0
:105A90008DFC74E5039B83B12C4B40460B93002394
:105AA0000A934946DDE90A2302F032FD8046894621
:105AB00019B910B92223CAF800301899504601F0DC
:105AC00075FC0499504601F071FC0299504601F0B2
:105AD0006DFC0599504601F069FC5946504601F0AD
