:100000000080001039150000691500006B15000014
:100010006D1500006F150000711500000000000054
:100020000000000000000000000000007315000048
:10003000751500000000000077150000791500001C
:100040007B1500007B1500007B1500007B15000070
:100050007B1500007B1500007B1500007B15000060
:100060007B1500007B1500007B1500007B15000050
:100070007B1500007B1500007B1500007B15000040
:100080007B1500007B1500007B1500007B15000030
:100090007B1500007B1500007B1500007B15000020
:1000A0007B1500007B1500007B1500007B15000010
:1000B0007B1500007B1500007B1500007B15000000
:1000C0007B1500007B1500007B150000044B0548E4
:1000D0001B1A062B02D9044B03B11847704700BF07
:1000E0009F6000109C600010000000000549064859
:1000F000091A891001EBD171491002D0034B03B1E9
:10010000184770479C6000109C60001000000000C1
:1001100010B5064C237843B9FFF7D8FF044B13B151
:100120000448AFF300800123237010BD9C600010D1
:1001300000000000909C000008B5084B1BB1084966
:100140000848AFF300800848036813B9BDE80840C9
:10015000CCE7064B002BF9D09847F7E700000000EA
:10016000A0600010909C00009C6000100000000047
:10017000154B002B08BF134B9D46A3F5803A002179
:100180008B460F461348144A121A03F07EF90F4BA0
:10019000002B00D098470E4B002B00D09847002032
:1001A000002104000D000D48002802D00C48AFF3D8
:1001B000008003F0CFF82000290001F083F902F05D
:1001C000F7FD00BF000008000080001000000000E4
:1001D000000000009C60001070640010000000002F
:1001E000000000007047000010B50446064B403088
:1001F00003F1180240F8403C4C330260436002F0C7
:100200001FF9204610BD00BFD0950000A0F14000AE
:10021000EAE7A0F14400E7E710B5044602F08BFDE1
:10022000204610BD2DE9F74F8046894692469B46F1
:100230000024444522DA00265E451DDAB700002579
:1002400000234D4512DA01930C9B5AF8240053F811
:10025000251050F82500C95908F0E2FB019B014622
:10026000184608F0D5FA01350346EAE70D9A01363B
:1002700052F82410CB51DFE70134DAE703B0BDE8D0
:10028000F08F00002DE970431149054608F084FD08
:10029000D0B904460F4E36F9140007F01BFF0022B8
:1002A0000D4B08F0A7F880462846894607F024FF42
:1002B00002460B464046494608F0E4F908B10134CD
:1002C000E9E7601EBDE870833220BDE8708300BF9F
:1002D00000009841CC0000100000594010B50021EA
:1002E000044608F059FD30B90021204608F036FDDB
:1002F00020B9002010BD4FF07E5010BD004810BD49
:10030000000080BF0000000008B5FFF7BBFF084BEE
:1003100033F9100007F0DEFE03A3D3E9002307F052
:100320003FFF08F01FFA08BD7250C24CDBBFF93F17
:10033000A60F00100000000008B5FFF7A3FF084B50
:1003400033F9100007F0C6FE03A3D3E9002307F03A
:1003500027FF08F007FA08BD7250C24CDBBFF93F17
:1003600020400010F8B51546184C06460F462046AA
:10037000174902F077F82846FFF7C6FF01463046D6
:1003800008F044FA06462846FFF7D6FF01463846ED
:1003900008F03CFA0F490546304608F041FB01469B
:1003A000284608F035FAFFF799FF05460A49204626
:1003B00002F058F84FF07E51284608F029FA4FF025
:1003C0007C5108F02DFB08F0F1FCF8BD40620010F4
:1003D000708E0000CDCCCC3D788E00002DE97043AE
:1003E0001149054608F0D8FCD0B904460F4E36F93D
:1003F000140007F06FFE00220D4B07F0FBFF804654
:100400002846894607F078FE02460B464046494694
:1004100008F038F908B10134E9E7601EBDE87083DF
:100420003220BDE8708300BF00009841801E00109C
:10043000000059400000000008B5FFF7CFFF084B4F
:1004400033F9100007F046FE03A3D3E9002307F0B9
:10045000A7FE08F087F908BD7250C24CDBBFF93F18
:10046000FA4E001010B5084801F054FFFFF7E4FF02
:10047000044607F041FE02460B460448044901F0D9
:10048000F1FF204610BD00BFD06100104062001097
:100490007E8E000008B5FFF7A1FF064B33F9100070
:1004A00007F018FE0022044B07F0A4FF08F05AF9E9
:1004B00008BD00BF502F00100000594010B508487B
:1004C00001F028FFFFF7E6FF044607F015FE02469D
:1004D0000B460448044901F0C5FF204610BD00BF8B
:1004E000D061001040620010918E0000012808B514
:1004F0000DD10021114800F0E9FD0021104800F065
:10050000E5FD00210F4800F0E1FD002110E04FF073
:100510007E510A4800F0DAFD4FF07E51084800F0A5
:10052000D5FD4FF07E51074800F0D0FD4FF07E51D1
:100530000548BDE8084000F0C9BD00BF506100108B
:1005400064610010AC6100101C6100102DE9F041E5
:100550004E4801F0D3FE0020FFF7C8FFDFF884818A
:1005600000240820D8F8005002F0F8FB484E28512B
:100570000820356802F0F2FB2851464D08202F680C
:1005800002F0ECFB444B385108201F6802F0E6FBF8
:10059000424B385108201F6802F0E0FB404B3851B5
:1005A00004201F6802F0DAFB3E4B385104201F681C
:1005B00002F0D4FB3C4B385104201F6802F0CEFB04
:1005C0003A4B385108201F6802F0C8FB384B3851AD
:1005D00008201F6802F0C2FB364B385108201F6804
:1005E00002F0BCFB344B385108201F6802F0B6FB08
:1005F000324B385108201F6802F0B0FB304B3851A5
:1006000008201F6802F0AAFB2E4B385104201F68F7
:1006100002F0A4FB2C4B385104201F6802F09EFB13
:100620002A4B385104201F6802F098FB284B3851A0
:1006300004201F6802F092FB264B385108201F68E7
:1006400002F08CFB38510434082C8AD13368224ADA
:10065000196822480A605A68214B536000234B6096
:1006600013602A68116852680B6050604B60136019
:100670001C4A4FF07E501268116852680860506042
:100680004B6000201360BDE8F08100BFC061001026
:10069000E061001034610010C06000104061001083
:1006A000E4610010A4610010906100109C610010D2
:1006B000BC60001030610010A861001038610010AB
:1006C0003C6100109461001044610010486100100A
:1006D0004C610010B86000109F1EEB4400001041F8
:1006E00064691A46A06100102DE9F0470646884665
:1006F00091469A460024B44212DA002545450DDAA7
:10070000089B514653F8247059F8243053F82500BB
:1007100008F086F947F825000135EFE70134EAE7EC
:10072000BDE8F0872DE9F0470646884691469A468F
:100730000024B44215DA0025454510DA089B5AF822
:10074000242053F8247059F8243052F8251053F817
:10075000250008F05DF847F825000135ECE7013485
:10076000E7E7BDE8F087F0B500248C4210DA4FEAE5
:10077000840E0025854209DA52F8256056F80E707D
:1007800053F8246046F825700135F3E70134ECE7AF
:10079000F0BD2DE9F84F0368D1F800A05D681E6830
:1007A00043688946D3F804B0304659461C6808F0BF
:1007B00037F9804605F10040414608F031F92146FD
:1007C00008F02EF901460746584608F0DDF9414683
:1007D000CAF80000284608F023F9214608F020F95D
:1007E00001468046284608F0CFF94146CAF8040081
:1007F000204608F0C9F9D9F8045039462860304637
:1008000008F0C2F96860BDE8F88F00002DE9F04FEC
:100810001E4689B0129B904D0593139B90460693FC
:100820002B684FF07E541A685B6814605C608B4CD8
:10083000566000221A6022680027136883461F60F2
:100840005368DFF85CA21E6007F0E0FF314608F055
:100850009BF98146304607F04FFC064648460F4656
:1008600007F04AFCCDE90201584607F045FC324644
:10087000CDE900013B467A497A4801F0F3FD7A4B15
:100880007A4F1B6802211A680846C2F800B05A68FD
:10089000774EC2F800903A68009301922A680123CB
:1008A000FFF7C0FCDAF800300121009322684346CC
:1008B0000220FFF719FF6F4B6F4C1B68012100935B
:1008C0003A68DAF800300220FFF72CFF2368DFF8DF
:1008D000D4810193694B1B68009302232A6819464F
:1008E0001846FFF79FFC0221D8F800302A68084616
:1008F000FFF739FF3368624D0193D8F80030DFF815
:10090000A88100930223226819461846FFF78AFC43
:100910002B68022100935B4B32685B4E08461B68D4
:10092000FFF700FF336802210093584B2A680846FE
:100930001B68FFF7F7FE564B306819680793FFF7FF
:1009400028FFD8F80020079B01921B680093022320
:100950002A6819461846FFF765FC4E4B01211B68B3
:1009600002201A685B68C2F800B0DFF840B1C3F833
:100970000090DBF80030DFF838913E4A00931268AF
:100980004B46FFF7B1FE3B68424A0093DBF800306C
:10099000126801210220FFF7C5FEDAF800300221BB
:1009A00001933B6808460093D8F800200123FFF725
:1009B00039FC2D4BDAF800201B68012100932D4BE8
:1009C00002201B68FFF7AEFE274B05991B68324FCC
:1009D0001A685B6812680A601B68069A4FF07E51BD
:1009E000136033681A685B681160002151604FF032
:1009F0007E5219605A603B6802210093D8F80020AB
:100A00004B460846FFF770FE2368022100933B68BF
:100A100032680846FFF786FE184B1B6801932B6867
:100A200000930223226819461846FFF7FBFB059B3B
:100A3000186807F061FB04460D46069B186807F02E
:100A40005BFB22462B46CDE912011449054809B04B
:100A5000BDE8F04F01F006BDC0600010E461001079
:100A6000988E0000406200109061001094610010A8
:100A7000A8610010A461001030610010A061001096
:100A80009C6100103461001038610010E0610010BA
:100A9000B8600010486100103C610010B48E000086
:100AA0004461001040610010BC6000104C610010F7
:100AB000000080BF2DE9F04F89B0002404A8029403
:100AC000039401F00BFC04A801F018FC2646A04694
:100AD0002546DFF8AC900027FFF7C4FC00211FFA81
:100AE00087FA834608F058F940B104A801F012FCD7
:100AF000064604A8A84601F01DFC5D460021022020
:100B0000FFF7DCFC0021834608F046F900B15C46A3
:100B10000021304608F018F948B903AB019302AB45
:100B200000932246334641462846FFF76FFE0A22CD
:100B3000BAFBF2F302FB13A39BB2BBB90E4801F060
:100B4000E9FBD9F8001007F061FE0399024602980C
:100B5000FFF708FCFFF7CAFC084B5A6911685A688E
:100B6000114201D1DB6800E01B691A60642001F0CA
:100B7000FFFD0137B0E700BFC0610010E861001061
:100B8000986100100000000038B51B4801F0B6FB6A
:100B90001A491B4801F066FCFFF7D8FC00281DDB52
:100BA000184D002400210220FFF788FC07F0A4FA6A
:100BB0000FA3D3E9002307F079FD08B90446F1E754
:100BC0001CB9114801F0A6FB286001340A2CE9DDAC
:100BD0000E490B4801F046FCFFF76CFF0C49084832
:100BE00001F040FC4FF0FF3038BD00BFAFF3008094
:100BF0001F85EB51B89E3340D0610010C18E0000BC
:100C00004062001098610010C0610010E58E000085
:100C1000CF8E000010B50446FFF7E6FA204602F03A
:100C20008AF8204610BDA0F14000F3E7A0F144008F
:100C3000F0E7000070B55348534D01F04FFB5348A7
:100C400001F04CFB524C0023524A53492846534E64
:100C500001F086FB2846524D2246314602F066F8E6
:100C60000023504A5049284601F07AFB28464F4D50
:100C70002246314602F05AF84D4B4E4A4E4928461C
:100C800000F084F922464D49284602F04FF84C49BD
:100C90004C4800F007FA4C494C4800F003FA4C4C21
:100CA0004C494D4800F0FEF94C494D4800F0FAF926
:100CB00018220021204602F0E8FB4A49204601F0B4
:100CC0005BFC082002F04AF8474B1860082002F04D
:100CD00045F8464B1860082002F040F8444B186075
:100CE000082002F03BF8434B1860082002F036F869
:100CF000414B1860082002F031F8404B1860082082
:100D000002F02CF83E4B1860082002F027F83D4B0B
:100D10001860082002F022F83B4B1860082002F00F
:100D20001DF83A4B1860082002F018F8384B18608C
:100D3000082002F013F8374B1860082002F00EF874
:100D4000354B1860082002F009F8344B1860082071
:100D500002F004F8324B1860082001F0FFFF314B1D
:100D60001860082001F0FAFF2F4B1860082001F0EE
:100D7000F5FF2E4B1860082001F0F0FF2C4B186097
:100D800070BD00BFC061001000620010D061001093
:100D9000C800001003C0092002C00920E9010000BA
:100DA000C460001010C009200FC009207861001035
:100DB000A086010001C0092000C00920350E0000F6
:100DC00045C009205061001044C009206461001032
:100DD000E861001043C00920AC61001042C0092046
:100DE0001C61001032C00920A0610010E0610010F9
:100DF00034610010C060001040610010E461001018
:100E0000A4610010906100109C610010BC60001093
:100E100030610010A8610010386100103C610010C2
:100E20009461001044610010486100104C61001092
:100E3000B860001070471FB500238DF80C108DF8B6
:100E40000D20009303AA02233A2101F045F905B0D1
:100E50005DF804FBF0B585B00124164604AA02F83B
:100E6000011D1F46009423463A21054601F034F93E
:100E700038B900903B4632463A21284601F046F9FF
:100E800000E0204605B0F0BD0123FFF7E3BFF7B552
:100E90001746002402AA02F8014D05460E46FFF748
:100EA000F3FF48B99DF8072031463A4028468DF8AF
:100EB0000720FFF7C0FF00E0204603B0F0BDFE2290
:100EC0002A21FFF7E4BFF7B51746002402AA02F86B
:100ED000014D05460E46FFF7D7FF48B99DF807209C
:100EE00031463A4328468DF80720FFF7A4FF00E07B
:100EF000204603B0F0BD01222A21FFF7E4BF2DE90F
:100F0000F341089D04460E4690461F464DB902AA7D
:100F1000002302F8013D31462046FFF7B5FF20B916
:100F200005E0FFF7CCFF0028F1D0012013E09DF889
:100F30000720314608EA02023A4320468DF807208E
:100F4000FFF779FF0028F0D12DB12046FFF7D3FF3E
:100F5000003018BF012002B0BDE8F08107B50B4694
:100F6000417500920E21FC22FFF7C9FF03B05DF826
:100F700004FB07B54B00017503F0FE0300922A2124
:100F8000FD22FFF7BCFF03B05DF804FB70B504461B
:100F90001D4601F079F8A560144D154E15492846F7
:100FA00001F060FA3146284601F05CFAA16820465B
:100FB00001F07AF83B23E3603A232361022323758F
:100FC000012200212046FFF7D4FF0323637501228D
:100FD00000212046FFF7C2FF0749284601F042FAE8
:100FE0003146284601F03EFA204670BD40620010AE
:100FF000008F0000EF8E0000038F00000000000053
:101000002DE9F8438568064628460C4607F074F833
:1010100002460B4606F012FF80462046894607F03E
:101020006BF800221E4B06F007FF02460B464046B7
:10103000494607F0B5F807F095FB05F1004739463A
:10104000804607F08BFE30B94146284607F086FE01
:1010500010B9454600E03D46284607F04DF80EA37E
:10106000D3E9002306F0EAFE07F07CFB0146304698
:1010700000F084FB0021204607F070FE40B94FF0DD
:101080007E51204607F088FE18B14FF07E5400E0F4
:1010900000243461BDE8F883FA7E6ABC7493583F3B
:1010A0000000E03F10B5044600F012FB054B20465F
:1010B000A360054B4FF07C51E360FFF7A1FF204692
:1010C00010BD00BF6F12033A0000344210B5044651
:1010D000FFF796FF204610BD00B599B072B63B49A8
:1010E000684601F049FA06A8394901F045FA0CA80A
:1010F000384901F041FA12A8374901F03DFA32E0CF
:10110000069B039A01990133116059D00C9B0A9AEE
:101110000799013311604DD0129B109A0D9901333C
:10112000116041D0159B139A96201A6001F020FBA4
:10113000009B013332D0069B049A01990133116060
:1011400026D00C9B099A0799013311601AD0129B83
:101150000F9A0D99013311600ED0169B139A9620A9
:101160001A6001F005FB009B0133C9D11B481C49E3
:10117000242201F0D1F9C3E718481949242201F0CB
:10118000CBF9EAE715481649242201F0C5F9DEE754
:1011900012481349242201F0BFF9D2E70F48104941
:1011A000242201F0B9F9C6E70C480D49242201F0C8
:1011B000B3F9B7E709480A49242201F0ADF9ABE7D2
:1011C00006480749242201F0A7F99FE732C0092009
:1011D00034C0092035C0092037C009202091000003
:1011E000389100000C4B30B49D689A682B46B2F1E0
:1011F000805F0CD2094AC43553F8044BAB4242F825
:10120000044FF9D14FF080521346034CA2601030C6
:1012100043F8201030BC704700ED00E0FCFFFF0FEA
:10122000036870B51B690021012204469847431CDE
:1012300006460ED0236820461B69002102229847EB
:101240002368054631461B692046002298472846F8
:1012500070BD70BD02480349034A00F037BE00BFAD
:101260006464001002C0092003C00920084A094B29
:1012700010B4026003F58071002453F8042F8242F9
:1012800008BF1C608B42F8D15DF8044B704700BF6B
:10129000C091000054620010F0B50E4685B036498A
:1012A000054603F060FC20B9344B1B6863B105B000
:1012B000F0BD2846324903F056FC78B92F4B1B6825
:1012C00043B1012005B0F0BD0190FFF7C3FF0198C5
:1012D00005B0F0BDFFF7BEFF0120E8E72846294929
:1012E00003F041FC10B3284B002402E00134402CF1
:1012F00021D053F8042F002AF8D12B783A2B33D081
:10130000294602A800F01CFF02A800F06FFF90B170
:1013100002A800F051FF88B102A800F057FF034671
:101320004BB11A4AE01C42F82430C0E7134B1B684B
:10133000B3B10220BBE74FF0FF30B8E702A800F0DE
:101340002BFF05460028F6D0036802A89F6800F02E
:1013500021FF26F4803201462846B8470346DFE7DE
:10136000FFF778FF0220A2E72846094902AA03F006
:101370008BFB029BD4E700BFA09100005C630010D0
:10138000B0910000A8910000546200105862001053
:10139000E491000002280ADD074AC31E52F8230028
:1013A000002142F8231020B103685B681847002031
:1013B00070474FF0FF30704758620010022812DC6F
:1013C0000E4B70B51B680C4616460BB9FFF742FF73
:1013D000A51936B114F8011B094800F0C5FCAC4250
:1013E000F8D1304670BD074B033853F8200010B1D8
:1013F00003681B6818474FF0FF3070475C630010AC
:10140000646400105862001002280DDC0C4B10B50B
:101410001B680C460BB9FFF71DFF0A4800F062FC81
:1014200001232070184610BD074B033853F82000E5
:1014300010B103689B6818474FF0FF331846704798
:101440005C6300106464001058620010022807DD1D
:10145000064B033853F8200020B10368DB681847B7
:10146000012070474FF0FF30704700BF58620010F6
:10147000022807DD064B033853F8200020B103682B
:101480001B691847002070474FF0FF30704700BFBE
:1014900058620010022808B504D84FF400534B607E
:1014A000002008BD01F07EFC092303604FF0FF30EF
:1014B00008BD00BF08B5012001F07AFC704700BFED
:1014C000704700BF08B5FFF7FBFFFFF7F7FFBDE868
:1014D0000840FFF759BB00BF074A13681918EFF31C
:1014E0000880814202D2184611607047034B0C22DB
:1014F0001A604FF0FF307047CC5F00106C64001032
:101500000A4C08B523680546986801F06FFD23680A
:10151000D86801F06BFD01F07BF820B905B9FEE752
:10152000FFF7DAFDFBE701F0CFF8F7E750600010B6
:10153000002103F0ABB900BF0649074A074B9A42A6
:10154000BEBF51F8040B42F8040BF8E7044880478B
:10155000044800479C9C0000C80000109C600010DC
:101560007D15000071010000FEE7FEE7FEE7FEE7E3
:10157000FEE7FEE7FEE7FEE7FEE7FEE72B4A202355
:10158000F0B4C2F8A031D2F8A031980645D4274B68
:10159000002519460124AA20552202270B26C3F84C
:1015A0000471C3F8A851C3F8AC51C3F80C41C3F897
:1015B0008460C3F88C00C3F88C20C3F88040C3F863
:1015C0008C00C3F88C20D1F88830184A5B01FAD51A
:1015D00011460324AA205523C2F88040C2F88C008B
:1015E000C2F88C30D1F88830104A13F0407FF9D01F
:1015F0000F4900230520C2F80801C2F8C410C2F840
:10160000C8311368F0BC23F4704323F03A0343F469
:10161000405343F03A0313607047D2F8A0315906A3
:10162000B5D4D2F8A0315906F7D5B0E700C00F40C5
:10163000DE87280470B50C4605460021204607F0D9
:101640008DFBF0B920464FF07E5107F0A5FB08B1A5
:101650004FF07E540C4EB06907F08AF9214607F02E
:10166000DFF907F0C9FBB369074983422B6808BF5C
:101670000130186028790A6D0123834013430B65FC
:1016800070BD0024E6E700BF008001400E4B0F4A0A
:101690001B6810B403FB01F102245460916193694B
:1016A0003BB100680368926903FB01F1B1FBF2F101
:1016B0000160064B09211A6D5DF8044B42F00102EE
:1016C0001A655960704700BF5863001000800140E0
:1016D000F8B50E4605462049304600F0DBFFC4B29F
:1016E000FF2C33D01D4A1E49D2F8C43051F82410C3
:1016F00043F040032C712960C2F8C430D2F8A8111D
:10170000184B21F4405100270220C2F8A811DF60D5
:101710005861D96C08340122A2400A431249DA64A4
:101720000B681249124AA1FB031328461B0D44F60D
:1017300020611360FFF7AAFF28460021FFF77AFF18
:101740003046BDE8F840044900F064BF09480A4942
:101750003C2200F0E1FEC5E7F491000000C00F401C
:10176000D45F001000800140D05F001083DE1B4377
:1017700058630010A8920000BC92000010B5044607
:1017800008460C4907F04CF907F010FB0A4B0B4ACE
:101790001B68926903FB00F02368904208BF013088
:1017A0000649186020790A6D0123834013430B65B5
:1017B00010BD00BF00247449586300100080014030
:1017C000144B9968C1F3420101291BD0022917D19A
:1017D000114AD16B013109D0916C106C086092F8FC
:1017E0006E1019B9596821F001015960906B0A4BCC
:1017F00078B193F86E3023B1084B00211B6818476D
:1018000070477047044B986B0028FAD0034B1B6855
:1018100018477047000001406463001060630010C7
:1018200070B50368284CA34247D03FDD274CA34244
:1018300029D004F58044A34242D1254C082632BB6E
:1018400001290BD04268234CC2EBC20204EBC20256
:1018500092F8364030325279D44213D1B1FA81F441
:101860005D68012202FA01F125EA0101596003686D
:1018700064095B6802FA04F1194203D1164BB240C5
:10188000C3F8802070BD154C0726002AD8D05A68AE
:10189000012505FA01F10A4376B25A602146304625
:1018A000FFF7A0FC0C4BB5401D6070BDA4F5804453
:1018B000A34205D10A4C0526C1E70A4C0626BEE71D
:1018C00000242646BBE700BF00000140008009401D
:1018D000E91800006463001000E100E05519000001
:1018E000B9190000C1170000174B9968C1F34201F4
:1018F00001291FD002291BD1144AD2F8AC100131A2
:101900000BD0D2F8B810D2F8B000086092F8DE1010
:1019100019B9596821F001015960D2F8A8000B4BA0
:1019200080B193F8DE3023B1094B00211B681847C2
:1019300070477047054BD3F8A8000028F9D0044B36
:101940001B681847704700BF00C00940646300105F
:1019500060630010154B9968C1F3420101291CD046
:10196000022918D1124A516F01310AD0D2F88010E1
:10197000906F086092F8A61019B9596821F001011A
:101980005960106F0A4B78B193F8A63023B1094B18
:1019900000211B68184770477047054B186F0028D7
:1019A000FAD0044B1B681847704700BF00800940FD
:1019B0006463001060630010144B9968C1F3420126
:1019C00001291BD0022917D1114A5168013109D0D0
:1019D00011699068086092F8361019B9596821F0B9
:1019E0000101596010680A4B78B193F8363023B181
:1019F000084B00211B68184770477047044B186854
:101A00000028FAD0034B1B681847704700C00040FD
:101A100064630010606300102DE9F04F844A03688E
:101A20008DB093420B908B4600F3E680814A93423F
:101A300000F0ED8040F3CD807F4A934200F0A38018
:101A400002F5804293420CD17C4AD2F8AC1121F4C9
:101A50004021C2F8AC11D2F8AC1141F48021C2F897
:101A6000AC1177494FEA0B120968B1FBF2F402FBA3
:101A700014120891A4B2002A00F0A9805E46DA464A
:101A8000089B4FF001085A009900019300230A9225
:101A90000991059406920291CDF81080CDF81CB002
:101AA00003935346DDF81C900027CA469946BB466F
:101AB0005FFA88F5CDF80080B846069F002F76DBE8
:101AC000029BB3FBFAF4009B64090134C4F34F0496
:101AD00003EB0B0E002C64D1BBF1000F00F0A580CE
:101AE0000224204600FB0EF0019BC000B3FBF0F087
:101AF0000130C9EB500001F042F9B04206DA484526
:101B00005FD00646CDF80C80059404950BF1010BCF
:101B10005FFA8BF8A845CA44D0D3019B089ADDF838
:101B20000080134401930A9A069B08F101081344AC
:101B30000693099A029BB8F1100F13440293079B76
:101B4000CA464B440793ACD1039B049A059C43EAD5
:101B500002150B9BEDB21B681A7BC4F3072142F000
:101B600080021A730B9AE4B21368197113681C701F
:101B7000136883F828501268137B03F07F031373F4
:101B80000DB0BDE8F08F2D4AD2F8AC1121F44031F0
:101B9000C2F8AC11D2F8AC1141F48031C2F8AC11EA
:101BA0005FE7BBF1000F9CD0012C9AD898E7B7FBF8
:101BB000FAF4009B24090134C4F34F0403EB0B0E29
:101BC00088E70B9B48EA0515EDB21B68C4E71025B2
:101BD000C2E7A2F5804293427FF443AF174AD2F89E
:101BE000A81121F0C001C2F8A811D2F8A81141F043
:101BF0004001C2F8A81134E79B221248124900F0B4
:101C00008BFC0B9B0B4A1B6893427FF413AF0B4A70
:101C1000D2F8A81121F44071C2F8A811D2F8A81185
:101C200041F48071C2F8A8111BE70124204659E74E
:101C300000C00940000001400080094000C00F4082
:101C4000D05F0010C4930000E0930000F8B55F1E61
:101C5000012F05460E46144604D915481549FB22A6
:101C600000F05AFC053E032E1CD8042C14D8013C6D
:101C7000E4B2032C0DD8104B082153F824000001C6
:101C8000C2B246EA87060E4332432B68D2B21A73B9
:101C9000F8BD00221146F4E708480649FE2200F08C
:101CA0003BFCE4E706480349FC2200F035FCDCE796
:101CB00048940000E09300004893000094940000D2
:101CC00070940000436810B40448054CC3EBC30390
:101CD00044F8332001605DF8044B704760630010E6
:101CE000646300100268137DDB07FCD54368094973
:101CF000C3EBC30301EBC303596810780131C0B2D1
:101D000006D059699B680B60536843F00103536028
:101D1000704700BF646300104368124AC3EBC303FB
:101D200002EBC303D96901310BD0196B1B6A0A6836
:101D30001A4204D10368187DC0F380107047002058
:101D400070470268127D920606D493F834000F287B
:101D50008CBF002001207047002283F8342001202E
:101D6000704700BF6463001038B504460D46204636
:101D7000FFF7D2FF0028FAD02368EDB21D70636828
:101D8000054AC3EBC30302EBC30393F834200132CB
:101D900083F8342038BD00BF646300102DE9F04F94
:101DA00004464648256883B085420F469146019314
:101DB00043D0D4F804A000255346414E4FEACA0848
:101DC000C3EBC303CAEB080E002006EBCE0E4FF0A8
:101DD000FF3B06EBC3030146024683F83500CEF80D
:101DE0001CB02046CEF804B0FFF71AFD17B903B0B7
:101DF000BDE8F08F3349484600F03EFC3249834647
:101E0000019800F039FCBB1E012B37D9012FEED110
:101E1000B9F1FF3FEBD0294B226807219B45117296
:101E200013D195B148462B7C264943F040032B74CF
:101E300003B0BDE8F04F00F0EDBB2B7CD4F804A05C
:101E400003F03F032B746368B7E7CAEB080806EB9F
:101E5000C800494601250430002200F0AFFB2046AF
:101E60002A4663680021C3EBC30306EBC30686F86A
:101E7000355003B0BDE8F04FFFF7D2BC019B0133F2
:101E80000AD00E4B98420DD0CAEB080006EBC000FA
:101E900001991C3000F05EFB032FA8D1B9F1FF3F80
:101EA000B9D1A4E7002DEFD02B7C019843F080033B
:101EB0002B74054900F0AEFBEEE700BF00000140C7
:101EC0006463001024930000949500002DE9F0470E
:101ED0000F46054608466149164600F0DBFB60499F
:101EE0000446304600F0D6FB0146204600F0B2FB27
:101EF000411C044600F0AB805A4B2860984200F029
:101F0000838053D9584B984276D003F5804398424A
:101F100006D1564AD2F8C43043F00073C2F8C43038
:101F20004FF0010984F808902B684FF00008C3F8BF
:101F3000048028464FF41651FFF76EFD42464B468B
:101F400028460821FFF782FE3846444900F062FB2C
:101F50003046434900F05EFB7A1C03D038464146C8
:101F600000F022FE731C03D03046002100F01CFE5E
:101F70003C4B9C4250D025D93B4B9C4264D003F54E
:101F800080439C424BD103236B60394CC3EBC303AA
:101F90004FF0FF3604EBC3042846324633466660F2
:101FA000E6610021BDE8F047FFF7F8BEA3F58043E6
:101FB0009842B5D12D4AD2F8C43043F00803C2F894
:101FC000C430ADE7A3F580439C4228D1284E4FF0A2
:101FD000FF34002169602246234628467460F4617C
:101FE000FFF7DCFE234B012429461C60224808220F
:101FF000BDE8F04701F03EBA1C4AD2F8C43043F0C5
:102000008073C2F8C4308BE7184AD2F8C43043F06A
:102010001003C2F8C43083E701236B60B5E76E6834
:10202000134BC6EBC6064FF0FF3703EBC6063A4626
:102030003B46284600217760F761FFF7AFFE0F4B64
:102040009C42CFD0BDE8F08702236B609DE70C482F
:102050000C495C2200F060FA2C6061E728950000D2
:1020600058930000000001400080094000C00F406C
:10207000646300105C6300106464001000C00040E2
:1020800018950000E093000038B50446044B002585
:102090000560436000F0C8FB024B20461C6038BD61
:1020A000A08601004464001010B50446416000F0B1
:1020B00021FC014B1C6010BD4464001038B5054D77
:1020C0002A68824204D00446416800F013FC2C6068
:1020D00038BD00BF446400102DE9F0411D460F4695
:1020E0001646804682B09DF82040FFF7E7FF84F057
:1020F000010400944046394632462B4600F0B8FCB5
:10210000281A18BF012002B0BDE8F0812DE9F04186
:102110001D460F461646804682B09DF82040FFF7C8
:10212000CDFF84F0010400944046394632462B46E8
:1021300000F0ECFB281A18BF012002B0BDE8F081C6
:1021400038B50023036043600A7804462F2A01D083
:10215000204638BD4A78002AFAD0481C20604D78C5
:102160002F2D13D085B1034600E06AB15D1A01330B
:1021700023601A782F2AF8D129460133236000F012
:1021800085F86060204638BD2946F8E719460346C1
:10219000F3E700BF00687047436843B110B50446D9
:1021A000184600F091F8012803D1606810BD0020A6
:1021B0007047002010BD00BF406830B108B500F086
:1021C00083F8B0FA80F0400908BD704743684BB10E
:1021D00010B50446184600F077F828B9606818B1C1
:1021E000043810BD00207047002010BD406800304A
:1021F00018BF0120704700BF094A8368026053B1CD
:10220000084B1A68824201D106E01A46536883429D
:10221000FBD143685360704742681A60704700BF43
:10222000C0950000486400100C4A836810B504464D
:10223000026053B10A4B1A68904201D10AE01A4673
:1022400053689C42FBD163685360204600F073FDE5
:10225000204610BD42681A60F7E700BFC095000035
:102260004864001010B4074C0023027381600460BE
:10227000436019B1044B1A68186042605DF8044B62
:10228000704700BFC0950000486400100D4B70B54A
:102290001C6806460D4614B911E064687CB1A0685C
:1022A0000028FAD031462A4602F06FFC0028F4D10B
:1022B000A06802F062FCA842EFD1204670BD002069
:1022C00070BD00BF48640010007B704710B5044625
:1022D000C06800F033FA6368C01A10BD38B5002535
:1022E000056045608560044600F02CFAE06000F06F
:1022F00025FAA5606060204638BD00BF036803B1C1
:10230000704710B50446C06800F018FA01236060F9
:10231000236010BD036810B5846813B1FFF7D6FFC2
:102320000346E01806F028FB014906F02DFC10BD1D
:102330000024744910B50446C06800F0FFF900237A
:102340006060A36010BD00BF00F0DAB8A0F14000EB
:10235000FFF7FABF00F0D8B8A0F14000FFF7FABFCE
:1023600038B504461D4600F0ADF8294604F140009A
:1023700000F044F8054B204603F1080103F1200268
:10238000543321602264636438BD00BFC8950000E7
:1023900000207047F8B58E18B1420F460ED00546A2
:1023A0000C4601E0A64207D02B6828465B6A14F869
:1023B000011B98470130F5D1E01BF8BD0C46FBE747
:1023C000F8B58E18B1420F460ED005460C4603E014
:1023D00004F8010BA64205D02B6828469B6A984753
:1023E000431CF5D1E01BF8BD0C46FBE7002070470D
:1023F00000207047002070470020704710B5044649
:1024000084B000F06DFC0B4B002203F108013C335B
:1024100084E80A00626101A82246074902F010FB25
:10242000064901A800F0E2FE6061FFF781F820464E
:1024300004B010BD28960000E49100006C960000E6
:1024400010B50446064B406903F108023C3384E8AA
:102450000C0000F013FD204600F056FC204610BD95
:10246000289600000EB430B5044682B005AB53F890
:10247000045B4069019300F0B9FD29466069019A47
:1024800001F0E8F902B0BDE8304003B0704700BF8A
:102490004A1C02EB420200EBC202936853B101EB0B
:1024A0004101C9004218D2681AB1014410311046E6
:1024B0001847704701EB410300EBC301CB68002BC9
:1024C000F7D0184770B504460B4E0023251D4FF476
:1024D0001650E06363602846A360E3602362636292
:1024E000A3632660FFF7F2FC284622460349FFF764
:1024F000E9FB204670BD00BF7896000091240000E3
:102500000430FFF7EFBB00BF10B50C460430FFF7F7
:102510002BFC204610BD00BF10B40C4613460146EC
:10252000224602485DF8044B00F002B88096000095
:102530000FB400B5064A83B004AB53F8041B10680F
:102540001A46C068019301F085F9012000F030FCC3
:102550005060001038B50D46044600F027F90135EB
:1025600009D02046002100F03DF92046BDE8384062
:10257000032100F033B938BD38B50D46044600F0EC
:1025800015F901350FD0236801330DD02369626836
:1025900020461A60012100F025F92046BDE83840A8
:1025A000022100F01BB938BD024803492422FFF77D
:1025B000B3FFEBE7209100003891000070B50D46A5
:1025C0001646044600F0F2F8013514D023680133B2
:1025D00012D066B9236962681A602046012100F0B2
:1025E00001F92046BDE87040022100F0F7B8E36829
:1025F00062681A60F1E770BD034804492422FFF7BE
:102600008BFF002EE6D0F2E7209100003891000009
:1026100000F066B8431C10B5044618D00B68581C6F
:1026200004D10FE051F80C3F5A1C0BD09C42F9D159
:102630002046896800F090FA2046BDE8104002214B
:1026400000F0B2BA0248BDE81040FFF771BF10BDFC
:10265000B496000088420AD0421C09D0013106D04D
:1026600008B50448FFF764FF4FF0FF3008BD70471E
:1026700008467047C89600000B685A1C04D107E052
:1026800051F80C3F5A1C03D08342F9D14868704777
:1026900018467047421C0ED008B50B685A1C04D16E
:1026A0000AE051F80C3F5A1C06D09842F9D148680C
:1026B000411C01D008BD70470248FFF739FF4FF0B9
:1026C000FF30F7E7DC96000030B585B018246D4682
:1026D00020462946ABBE0446204605B030BD00BFAB
:1026E000024B186800F00100704700BFF0ED00E0F9
:1026F000036870B5DB68054698476B685B6883B113
:102700002A681C6853689847201A00286A680DDCFC
:1027100050681168836853600029F0D0406888478A
:10272000EBE72B68BDE870409B6818472B68526840
:102730001B691068BDE87040184700BF03685B68FC
:10274000184700BF00487047309700000148FFF766
:10275000CFBF00BF3097000038B5054600F09AFAA9
:10276000044600F097FA001BA842FAD338BD00BF18
:102770004FF47A7303FB00F0FFF7EEBF431C10B574
:10278000044608D02046002100F0E6F904F01F04BA
:102790000120A04010BD034803491522FFF7BCFEED
:1027A000F0E700BF389700004C9700004A1C01601A
:1027B00013D038B50C4605460846FFF7DFFF24F076
:1027C0001F0101F1180401F11C0201F114036860FA
:1027D000A960EC602A616B6138BD7047006800F049
:1027E000E3B900BF38B50368044601330D4610D085
:1027F00045B1012D05D1A268636811680B431360D0
:1028000038BD38BDA2686168136823EA010313600C
:1028100038BD034803492C22FFF77EFEE8E700BFDE
:10282000209100004C970000F8B506460D4608467A
:1028300028491446FFF72EFF274907462046FFF791
:1028400029FF01463846FFF705FF421C034630606A
:1028500039D0224A93422ED002F58822934222D0C8
:10286000A2F50422934216D01D4A1E4912683C2745
:10287000120AA1FB0212402692095A6128461A61E7
:1028800014499F611E60FFF7C5FE2046BDE8F84071
:102890001149FFF7BFBE1449D1F8C42042F08002AD
:1028A000C1F8C420E0E71049D1F8C42042F08062AA
:1028B000C1F8C420D8E70C49D1F8C42042F4002262
:1028C000C1F8C420D0E7094809496322FFF724FE74
:1028D0003368BEE7B49700006C98000000C0054064
:1028E000D05F0010632D3E0500C00F40F097000040
:1028F00004980000044B49001B6802689B08B3FB66
:10290000F1F1516111617047D05F00102DE9F04382
:1029100004683C2507462420A561A6462060534D47
:1029200001E0013D02D026683607FAD5606820250F
:102930001028A56110D008280ED01023082223608B
:102940004A4BA26101E0013B02D02268D506FAD4CD
:102950006FF00100BDE8F08341F001010820A160A3
:102960004249A06101E0013902D025682807FAD563
:10297000616840290ED01023082223603B4BA261DE
:1029800001E0013B02D02268D606FAD44FF0FF30B6
:10299000BDE8F083581E0028D8BF4FF0000C1FDDA3
:1029A000844602F1FF3E00264FF004094FF008086C
:1029B000C4F800902D49C4F8188001E0013902D014
:1029C00025682D07FAD5A568616850292CD10136F4
:1029D00086420EF8015F01D03C68E9E7D7F800E0D5
:1029E00004210824CEF818102049CEF8184001E040
:1029F000013903D0DEF800402507F9D5DEF808409C
:102A0000DEF8041058291DD010230822CEF800301B
:102A1000164BCEF8182001E0013B11D0DEF8002063
:102A2000D406F9D4BDE8F0831023082223600F4BAD
:102A3000A26101E0013B02D02268D706FAD43046F9
:102A4000BDE8F08302F80C40079A5AB138681022AA
:102A500008210260054A816101E0013A02D0016863
:102A6000C906FAD41846BDE8F08300BFA18601006C
:102A700070B404683C252420A561364D206001E037
:102A8000013D02D026683007FAD56068202510285D
:102A9000A56110D008280ED01023082223602D4BEA
:102AA000A26101E0013B02D02268D606FAD46FF0A1
:102AB000010070BC704701F0FE010820A1602549AB
:102AC000A06101E0013902D025682D07FAD56168BF
:102AD00018290ED01023082223601E4BA26101E0AA
:102AE000013B02D02268D006FAD44FF0FF3070BC10
:102AF0007047002B13DD551E0020082615F8011F16
:102B0000144AA160A66101E0013A02D021680907D8
:102B1000FAD56268282A11D101309842EED1039A81
:102B200052B11022082122600A4AA16101E0013A53
:102B300002D02168C906FAD41846BAE71023082241
:102B40002360044BA26101E0013BB2D02268D506AC
:102B5000FAD4AEE7A186010038B5431C04460D4601
:102B600018D004F16040A0F51C2003099B0003F17C
:102B7000804303F5303300F00F0019684000032252
:102B8000824021EA02021A601A68854045EA020181
:102B9000196038BD024803491522FFF7BDFCE0E784
:102BA00038970000A898000038B5431C05460C462D
:102BB0002BD005F16040A0F51C2043099B0003F1D8
:102BC000804303F53033996E00F01F02C4F3800593
:102BD00005FA02F221EA02019966996E0A439A66A1
:102BE00095B903099B0003F1804303F5303300F0EE
:102BF0000F00196C40000322824021EA02021A648D
:102C00001A6C844014431C6438BD034803492022D5
:102C1000FFF782FCCDE700BF38970000A8980000BE
:102C200038B51249124B01241C60D1F8C430114A46
:102C300043F4000310480025C1F8C4301567036849
:102C400001F1437101F5F45103319B08A1FB03131A
:102C50009B0C013B022151600420D3600749546062
:102C6000FEF7C0FA064B10221A6038BD00C00F40B4
:102C70005464001000400940D05F00104D27000050
:102C800000E100E0024B1B6803B17047FFF7C8BFCB
:102C90005464001008B5044B1B680BB9FFF7C0FF64
:102CA000024B986808BD00BF546400100040094002
:102CB000034B98615A6942F001025A61704700BFA4
:102CC00000400940024A536923F0010353617047F1
:102CD00000400940014B01221A6070470040094042
:102CE00010B50446064B002240F8043BFFF7BAFA41
:102CF000044B204603F10802343384E80C0010BD75
:102D0000C09100001099000010B50446064B03F175
:102D100008023433226040F8043FFFF76DFA204682
:102D2000FEF7A4FA204610BD109900000B4601469C
:102D3000184600F029B800F087BB10B5002814BF72
:102D400004460124204600F077FB30B900F008F873
:102D500008B900F00DF88047F4E710BDFFF7EDBFAC
:102D6000024B1868BFF35F8F704700BF58640010B4
:102D700008B5062001F048FE0120FEF7C1FB00283F
:102D8000B8BF40427047000010B5054C13462CB147
:102D90000A4601460220AFF3008010BD204610BD58
:102DA00000000000014B1868704700BF5060001021
:102DB00008B5074B044613B10021AFF30080054B63
:102DC0001868836A03B198472046FEF799FB00BF55
:102DD00000000000B099000070B505460C4609B926
:102DE000002070BD18B183690BB900F051F9204B78
:102DF0009C4201D16C6808E01E4B9C4201D1AC683A
:102E000003E01D4B9C4208BFEC68B4F90C30002B6A
:102E1000E6D02146284600F039F8236B064633B148
:102E2000216A284698470028B8BF4FF0FF36A3898B
:102E30001B0603D52169284600F030FB616B41B1C8
:102E400004F14403994202D0284600F027FB0023F6
:102E50006363A16C21B1284600F020FB0023A3642A
:102E600000F082F90023A38100F07FF9304670BDA5
:102E70004C9900006C9900008C990000024B0146AF
:102E80001868FFF7A9BF00BF506000108A892DE9BC
:102E9000F041054610070C4659D44B68002B02DC64
:102EA0000B6C002B17DDE66AAEB102F480520023F2
:102EB00092B22F682B600AB1606D15E0216A012380
:102EC0002846B047411C0FD12B686BB11D2B01D098
:102ED000162B03D12F600020BDE8F081A38943F0B9
:102EE0004003A381BDE8F081A3895A0705D5636833
:102EF000C01A636B0BB1236CC01A00230246E66A4A
:102F0000216A2846B047431CA38906D129681D2998
:102F100039D8204ACA40D60735D5002262602269D6
:102F2000D904226004D5421C01D12B6803B9606525
:102F3000616B2F600029CED004F14403994202D086
:102F4000284600F0ABFA00206063BDE8F0810F690D
:102F5000002FC0D093070E680CBF4B690023C7EB4E
:102F600006080F608B6002E00744C0EB0808B8F168
:102F7000000FB0DD43463A46216A2846A66AB047AC
:102F80000028F1DCA38943F04003A3814FF0FF3018
:102F9000BDE8F0810100402038B50B6905460C46BC
:102FA000DBB118B183690BB900F072F80C4B9C428D
:102FB00001D16C6808E00B4B9C4201D1AC6803E086
:102FC000094B9C4208BFEC68B4F90C302BB1214688
:102FD0002846BDE83840FFF759BF002038BD00BF84
:102FE0004C9900006C9900008C990000014620B9B2
:102FF000044B0549186800F08FB9044B1868FFF7B7
:10300000CBBF00BFB0990000992F000050600010A6
:10301000014900F081B900BF992F000010B50446A6
:10302000002303604360836081814366C281036142
:1030300043618361194608225C3000F026FA054B93
:1030400024626362044BA362044BE362044B236378
:1030500010BD00BFDD4A0000034B00003B4B0000E9
:103060005F4B000070B568234D1E5D430E4605F1B1
:10307000740100F057FA044640B1002180E8420094
:103080000C30A06005F1680200F0FFF9204670BD29
:10309000836910B5044633BB8364C3640365124B74
:1030A000124A1B688262984204BF0123836100F0C8
:1030B0001FF86060204600F01BF8A060204600F07A
:1030C00017F80022E06004216068FFF7A7FF0122E3
:1030D0000921A068FFF7A2FF02221221E068FFF792
:1030E0009DFF0123A36110BDB099000011300000C5
:1030F000F8B51C4B07461E68B36913B93046FFF795
:10310000C7FF4836B4687368013B04D4B4F90C5067
:103110007DB16834F8E733680BB13668F2E7042113
:103120003846FFF79FFF30600028F6D10C233B6044
:10313000F8BD4FF6FF73E3810123A3816566256027
:10314000A560656025616561A5610822294604F1D5
:103150005C0000F09AF96563A563A564E564204608
:10316000F8BD00BFB099000070477047F7B50F4633
:10317000114601AA054603F083FB064608B9002064
:1031800029E02846FFF7B4FF04460028F7D04FF4A3
:10319000DB73019A3946284601F0FEFA002806DA68
:1031A0000025FFF7E1FFA581FFF7DFFFE7E70B4B06
:1031B000E08163620A4BA681A3620A4B2462E36248
:1031C000094B2363F30505D5022300222146284637
:1031D00000F014F8204603B0F0BD00BFDD4A000047
:1031E000034B00003B4B00005F4B0000024B0A46C4
:1031F00001461868FFF7BABF5060001000F000B831
:103200002DE9F8430C4690461E46054618B18369E1
:103210000BB9FFF73DFF3D4B9C4201D16C6808E0C4
:103220003B4B9C4201D1AC6803E03A4B9C4208BF47
:10323000EC68A38903F48473B3F5847F03D121463A
:103240002846FFF7A9FEE76A0FB91D232BE0012EE0
:1032500004D0022E2BD056B3162324E02146284654
:10326000FFF79AFEA28902F4805292B20AB1606D11
:1032700005E0216A33462846B847411C14D0A3898B
:103280005A0706D56368C01A636B4BB1236CC01A2A
:1032900006E01B0704D5236813B122699B1A184462
:1032A0008044002603E02B604FF0FF392BE02369B8
:1032B0001BB92146284600F073F821462846FFF73F
:1032C0006BFE81460028EFD133464246216A2846EC
:1032D000B8470130E8D0616B41B104F14403994231
:1032E00002D0284600F0DAF8002363632369002146
:1032F0002360A389616023F40263A381082204F19F
:103300005C0000F0C2F84846BDE8F8834C99000024
:103310006C9900008C9900002DE9F843804689469D
:1033200000F14804002694B1A5686768013F0CD4F9
:10333000AB89012B07D9B5F90E30013303D02946EB
:103340004046C84706436835F0E72468EBE7304657
:10335000BDE8F8830E4B70B51E460E4C0025E41AEE
:10336000A410A54204D056F8253098470135F8E757
:1033700005F072FD084B094C1E46E41AA410002506
:10338000A54204D056F8253098470135F8E770BDBE
:103390009060001090600010906000109860001025
:1033A000F0B58B8991B09D0706460C4625D4B1F93E
:1033B0000E10002908DAA389002513F0800F14BF2E
:1033C00040274FF480670DE001AA03F091FA00282E
:1033D000F1DB029D4FF4806705F47045A5F50051BF
:1033E0004D424D413946304600F09CF860B9A38902
:1033F0009A051DD443F00203A38104F1470323601F
:1034000023610123636113E00A4BB362A389206047
:1034100043F08003A381206167614DB1B4F90E10C0
:10342000304603F095FD18B1A38943F00103A38151
:1034300011B0F0BD11300000024B0146186800F0D9
:1034400071B800BF50600010024B0146186800F0D0
:1034500025B800BF5060001010B5C9B202449042B8
:10346000034605D01C7801308C42F8D1184610BDB7
:10347000002010BD10B5431E0A44914204D011F83B
:10348000014B03F8014FF8E710BD03460244934295
:1034900002D003F8011BFAE77047000030B500299D
:1034A0003CD051F8042C0B1F1D49002AB8BF9B18B3
:1034B0000A680C4612B95A600B6030BD9A420DD9A9
:1034C00019685818824201BF1068526809181960BB
:1034D0005A60236030BD994203D80A4651680029DA
:1034E000F9D1146815199D420AD11B682344D018DC
:1034F0008142136012D10868034413604B680CE0EA
:1035000002D90C23036030BD18681C18A14201BF0A
:103510000C684968001918605960536030BD00BFDD
:103520006064001070B5CD1C25F0030508350C2D26
:1035300038BF0C25002D064603DA0C23336000202B
:1035400070BDA942F9D81F4B1C681A462146A1B18B
:103550000B685B1B0ED40B2B03D90B60CC18CD5022
:103560001EE08C420BBF63684B681360636018BF3A
:103570000C4615E00C464968E9E7134C23681BB973
:10358000304601F043F920602946304601F03EF90B
:10359000431CD2D0C41C24F00304A0420AD12560ED
:1035A00004F10B00231D20F00700C31A09D05A4272
:1035B000E25070BD211A304601F028F90130EED1F9
:1035C000BBE770BD606400105C640010936810B4C9
:1035D000013B002B936008DA9469A34202DBCBB273
:1035E0000A2B02D110BC02F045BA1368581C1060B7
:1035F0001970C8B210BC7047F8B506460F4614469D
:10360000D518AC4208D03A4614F8011B3046FFF7F3
:10361000DDFF431CF5D100E00020F8BD2DE9F04F9F
:103620009DB00C4617460393064618B183690BB943
:10363000FFF72EFD7F4B9C4201D1746808E07E4B62
:103640009C4201D1B46803E07C4B9C4208BFF46803
:10365000A38918070CD5236953B1002309932023AC
:103660008DF8293030238DF82A30DFF8D4B144E0CA
:103670002146304602F064FA0028EED04FF0FF30C9
:10368000D5E0039A111D12680391002A80F28C8004
:10369000524243F002000792049098F800302E2B1B
:1036A00000F08480032298F800106548FFF7D4FEEC
:1036B00048B14023CBEB000003FA00F0049B08F173
:1036C00001081843049098F8001006225D4808F19C
:1036D00001078DF82810FFF7BFFE002800F0958045
:1036E000594B002B40F08880039B073323F00703DE
:1036F00008330393099B53440993B846454615F88C
:10370000013B1BB9B8EB07090FD003E0252BF9D01B
:10371000A846F3E74B463A4621463046FFF76CFF92
:1037200001307FD0099B4B44099398F80030002B5F
:1037300078D000234FF0FF3204930793059206934D
:103740008DF853301A930127052229783F48FFF757
:1037500083FE05F10108049B38B13C4A4546801AB6
:1037600007FA00F018430490EEE7D90644BF202280
:103770008DF853201A0744BF2B228DF853202A7846
:103780002A2A3FF47EAF079A00210A20A84698F81B
:1037900000300135303B092B03D800FB02320121F8
:1037A000F4E700293FF479AF079276E798F8013003
:1037B0002A2B0BD1039B08F102081A1D1B680392E8
:1037C000002BB8BF4FF0FF3305936BE7002319467A
:1037D000059308F101000A25804698F80020013081
:1037E000303A092A03D805FB01210123F4E7002B15
:1037F0003FF458AF059155E703AB00932246144BB5
:1038000004A9304600F0C2F807E003AB009322465B
:103810000F4B04A9304600F065FBB0F1FF3F824634
:103820007FF468AFA3895B063FF528AF09981DB008
:10383000BDE8F08F4C9900006C9900008C99000055
:10384000BA990000BE9900008D390000B4990000BB
:10385000F935000013460A46014602480068FFF7A2
:10386000DDBE00BF506000102DE9F04788B0149F06
:10387000002B1E461299B8BF03F1004327F0200722
:10388000B6BF1E4600232D23462F1446109DDDF89B
:103890004CA00B7003D0452F03D1013501E0032369
:1038A00000E0022307AA049206AA03928DE82804E6
:1038B0002246334602F04CFA472F804602D1119B34
:1038C000DB0728D5462F08EB050911D198F8003001
:1038D000302B0AD1002200232046314604F0C8FED6
:1038E00018B9C5F10105CAF80050DAF8003099445A
:1038F000002200232046314604F0BAFE08B93022E7
:1039000002E0CDF81C9006E0079B994503D9591CAD
:1039100007911A70F8E74046079B159AC8EB030316
:10392000136008B0BDE8F087034673B50029B8BF3F
:10393000494203F8022BB4BF2D222B2209294270E1
:103940001ADD0DF1070216460A2591FBF5F405FB79
:103950001411092C01F1300102F8011D2146F4DC9B
:103960003031541E02F8011CB4421A460AD214F82F
:10397000012B03F8012BF7E71A463024214402F803
:10398000024B5970101A02B070BD00002DE9F04FC3
:103990008FB00C4616461F46DDF86080054603F0E2
:1039A000E7FAD0F800B0584601F0E7F800230C938E
:1039B000D8F800300890073323F0070303F108021A
:1039C00094F81890C8F80020D3E90023C4E9122322
:1039D000D4E9120100F0F2FE012819D1D4E9120154
:1039E0000022002304F04EFE10B12D2384F8433052
:1039F0009A4B9B4AB9F1470F8CBF904698460323D8
:103A00002361236823F0040323604FF0000A93E04E
:103A1000D4E9120100F0D2FE236848B9914A9249D4
:103A2000B9F1470F8CBF8846904603222261E9E72F
:103A3000D4F804E0D4E91201BEF1FF3F01D106221F
:103A40000AE0B9F1670F02D0B9F1470F05D1BEF115
:103A5000000F40F0B68101226260002243F48063CF
:103A600006920CAA2360059201930BAA6368039245
:103A70000DF12B020292009302460B46CDF81090F6
:103A80002846FFF7F1FE09F0DF03472B804609D1F6
:103A90000B9BD81C02DB6268934230DDA9F102095E
:103AA0005FFA89F9B9F1650F0B9912D801394A46C5
:103AB00004F150000B91FFF737FF0C9A82468318F0
:103AC000012A236102DC2268D1072FD5013323614B
:103AD0002CE0B9F1660F14D10029636807DD21617C
:103AE00013B92268D2071DD501330B4419E013B96D
:103AF0002268D00701D5023313E0012311E04FF013
:103B000067090B9B0C9A934205DB22682361D1075E
:103B100008D5013305E0002BD4BFC3F10203012314
:103B2000134423610B9B4FF0000AA3659DF82B30D3
:103B300013B12D2384F84330009733460DAA214654
:103B4000284600F059F9013002D14FF0FF3050E122
:103B500023685A0501D4236965E0B9F1650F40F285
:103B6000D580D4E912010022002304F081FD78B34E
:103B700001233E4A31462846B8470130E5D00C9B28
:103B80000B9A9A420BDB2368D80708D423689B075B
:103B900040F111814FF0000804F1190906E1089B7A
:103BA0005A4631462846B8470130CED04FF000087B
:103BB00004F11A090C9B013B9845E7DA01234A46B8
:103BC00031462846B8470130BFD008F10108F1E777
:103BD0000B9B002B29DC0123244A31462846B84799
:103BE0000130B2D00B9B23B90C9B13B92368D907C2
:103BF000CCD5089B5A4631462846B8470130A4D058
:103C00004FF0000904F11A0A0B9B5B42994509DA4F
:103C10000123524631462846B847013095D009F174
:103C20000109F1E70C9B4246A7E00C9AA36D9A426A
:103C3000A8BF1A46002A914607DC04F11A034FF088
:103C4000000A29EAE97909931CE013463146424605
:103C50002846B8470130F0D177E700BFC59900008A
:103C6000C9990000CD990000D19900001E9A00006A
:103C70000123099A31462846B84701303FF465AF21
:103C80000AF1010AA36DC9EB03029245F0DB08EBD0
:103C900003090B9A0C9B9A420FDB2368DA070CD4BA
:103CA0000C9B0B9A9844C9EB08089B1A9845A8BF2F
:103CB0009846B8F1000F08DC0FE0089B5A463146E1
:103CC0002846B8470130EBD13FE743464A463146E4
:103CD0002846B84701303FF438AF4FF0000928EAD2
:103CE000E87804F11A0A09E00123524631462846D1
:103CF000B84701303FF429AF09F101090B9A0C9B39
:103D00009B1AC8EB03039945EEDB3FE70C9A012AA7
:103D100001DCDB0738D50123424631462846B84747
:103D200001303FF412AF089B5A4631462846B84747
:103D300001303FF40AAFD4E912010022002304F05D
:103D400097FC20B14FF0000804F11A090EE00C9B1B
:103D500008F10102013B19E001234A463146284699
:103D6000B84701303FF4F1AE08F101080C9B013B6C
:103D70009845F1DB534604F1500231462846B847D6
:103D800001307FF403AFE0E6424601233146284686
:103D9000B8470130EED1D8E601234A4631462846DD
:103DA000B84701303FF4D1AE08F10108E3680D9A3D
:103DB0009B1A9845F0DBE0680D9B9842B8BF184607
:103DC00017E0002206920CAA05920BAA43F4806326
:103DD00003920DF12B022360029201930246CDF86B
:103DE0001090CDF800E00B462846FFF73DFD8046D9
:103DF0004EE60FB0BDE8F08F2DE9F04791461F4623
:103E00000A698B6806469342B8BF1346C9F800306A
:103E100091F843200C46DDF8208012B10133C9F837
:103E200000302368990642BFD9F800300233C9F840
:103E30000030256815F0060510D104F1190A07E0D5
:103E40000123524639463046C04701301AD0013569
:103E5000E368D9F800209B1A9D42F1DB94F84330C7
:103E60002268003318BF012392060FD5E1183020D5
:103E700081F843005A1C94F845102244023382F81A
:103E8000431003E04FF0FF30BDE8F08704F1430238
:103E900039463046C0470130F4D02268D9F8005086
:103EA000E36802F00602042A08BF5D1B2269A368CA
:103EB0000CBF25EAE57500259342C4BF9B1AED1897
:103EC0004FF000091A344D4509D0012322463946E6
:103ED0003046C0470130D5D009F10109F3E7002091
:103EE000BDE8F0872DE9F04317460A7E85B06E2ABB
:103EF000984606460C460C9B01F1430E00F0AE803E
:103F000011D8632A22D009D8002A00F0BB80582A91
:103F100040F0CA8081F84520834955E0642A1ED0CC
:103F2000692A1CD0C0E0732A00F0B08009D86F2A3B
:103F30002ED0702A40F0B8800A6842F020020A6051
:103F40003EE0752A24D0782A3AD0ADE01A6801F113
:103F50004205111D1960136884F84230A8E02168F9
:103F60001A6811F0800F02D0111D196008E011F0DD
:103F7000400F02F10401196002D0B2F9003000E0F4
:103F80001368002B3CDA2D225B4284F8432037E093
:103F900021681A6811F0800F02D0111D196007E026
:103FA00011F0400F02F10401196001D0138800E004
:103FB0001368227E5C496F2A14BF0A2208221BE084
:103FC00078225A4984F845202268186812F0800F38
:103FD00000F104051D6003D1550601D5038800E0FA
:103FE0000368D00744BF42F0200222601BB9226858
:103FF00022F0200222601022002084F8430001E019
:1040000049490A226568002DA56008DB206820F078
:10401000040020602BB9002D7DD175460CE0002BEB
:1040200079D07546B3FBF2F002FB1033CB5C05F898
:10403000013D03460028F5D1082A0BD12368DA0791
:1040400008D5236962689A42DEBF302305F8013C37
:1040500005F1FF35C5EB0E0323612EE008681A68F1
:1040600010F0800F496903D0101D1860136808E034
:1040700010F0400F02F104001860136801D019809D
:1040800000E0196000232361754616E01A68111DCF
:1040900019601568002162682846FFF7DDF908B14C
:1040A000401B6060636804E004F1420584F842202C
:1040B00001232361002384F84330CDF800803B4680
:1040C00003AA21463046FFF797FE013002D14FF098
:1040D000FF3026E023692A4639463046C047013082
:1040E000F5D023689B0710D5002504F1190907E0D6
:1040F00001234A4639463046C0470130E7D00135F2
:10410000E368039A9B1A9D42F2DBE068039B9842A6
:10411000B8BF184605E00B7804F1420584F8423038
:104120008AE705B0BDE8F083D5990000E699000064
:104130002DE9F04F9A468B6816465A1EB2F5AE7FAF
:1041400088BF6FF4AE7287B082BF9B18019340F2B4
:104150005D13884696BF00238B6001930B684FF078
:10416000000B43F4F06348F81C3B07460C464546F9
:104170005A46D946CDF810B0CDF80CB0CDF808B0FD
:10418000A168002900F0E58033681B78492B70D0C6
:1041900016D8392B0DD8312B40D22D2B46D002D832
:1041A0002B2B43D0D5E02E2B00F09280302B23D048
:1041B000CFE0452B00F09580462B77D0412B0CE0CB
:1041C000652B00F08E800AD8542B75D002D84E2B68
:1041D00034D0BEE0592B75D0612B46D0B9E06E2BA0
:1041E0002CD004D8662B61D0692B42D0B1E0742B5F
:1041F00062D0792B66D0ACE0206810F4807F0DD0BF
:10420000019B20F08000206009F10109002B00F0E3
:104210008780013B01310193A16081E012EB0B0F1C
:1042200040F09780216821F4C07105E021680806FC
:1042300040F18F8021F0800121606FE06AB9B9F10F
:10424000000F0CD1216801F4E060B0F5E06F06D1F9
:1042500021F4F0612160012260E0022A5DD0BBF10F
:10426000010F1ED0BBF1040F1AE0012A71D1022206
:1042700054E0BBF1000F0ED1B9F1000F6CD12168F1
:1042800001F4E060B0F5E06F6AD121F4F0612160E3
:104290004FF0010B42E0BBF1030F02D0BBF1050F61
:1042A00057D10BF1010B5FFA8BFB37E0BBF1020F2B
:1042B0004FD14FF0030B31E0BBF1060F49D14FF066
:1042C000070B2BE0BBF1070F43D14FF0080B25E0A4
:1042D000216888053DD521F420712160CDF8089032
:1042E0001CE0216801F4A060B0F5806F04D048059F
:1042F0002FD5B9F1000F33D0880558BF029821F4AB
:10430000F06158BFC0EB090041F4C0715CBF03907D
:10431000049521604FF0000900E003222B70013565
:10432000A368013BA3602369013323617368013BE8
:10433000002B736003DD33680133336020E7D4F86A
:1043400080313146384605929847059A00283FF457
:1043500017AFB9F1000F03D0236823F480732360F3
:10436000013A012A0ED845450AD9D4F87C313246A3
:1043700015F8011D384698472369013B2361F2E790
:104380000126AAE00BF1FF33062B22D8BBF1020F66
:1043900012D9ABF1030B5FFA8BFBCBEB050B5D4541
:1043A00017D0D4F87C31324615F8011D38469847AD
:1043B0002369013B2361F2E74545E1D9D4F87C311B
:1043C000324615F8011D384698472369013B2361A1
:1043D000F2E72368DA052CD55B050CD54545CFD926
:1043E000D4F87C31324615F8011D384698472369C8
:1043F000013B2361F2E715F8011C2369652903F1EC
:10440000FF3305F1FF3B23610DD045290BD0D4F8D4
:104410007C31324638469847236915F8021C013B27
:10442000A5F1020B2361D4F87C3132463846984717
:104430005D46266816F010064ED12E70236803F4F0
:10444000C063B3F5806F05D1029BC3EB09035A42E9
:1044500063B915E0039B9BB104990A2332460131ED
:10446000384601F0C9F9039B049DC21A04F26F1388
:104470009D4228BF04F5B7751A49284600F0E0FAB6
:1044800000224146384600F0B7FB2268804612F011
:10449000020F8946DAF8003003D01A1DCAF800204E
:1044A00006E012F0040F03F10402CAF8002003D062
:1044B0001B68C3E900890BE01D6800F07FF910B9A3
:1044C00000F074FA03E04046494604F04BF92860D6
:1044D000E3680133E36000E00026304607B0BDE842
:1044E000F08F00BFF79900002DE9F84315468A6860
:1044F00080460C4632B98A69002A0CBF01224FF06F
:10450000FF328A602268DFF8A890D10658BF1A6887
:104510004FF000065EBF111D19601768A069F8B959
:1045200023680136DA065EBF2B681B783B702A6869
:104530006B6802F101022A60A26803F1FF3302F105
:10454000FF326B6058BF0137A260E2B1002BE5DC9F
:10455000D4F880312946404698470028DED012E042
:10456000012806D12B681A7863699B5C002BD7D190
:1045700019E0022807D12B68D9F800201B781344D2
:104580005B781B07CCD5236813F0100305D1E268D4
:104590000132E260A26902B13B70236900201E442F
:1045A0002661BDE8F883002EEDD1BDE8F88300BF99
:1045B000546000102DE9F04F0C469A46724B87B0BC
:1045C0008346164693E8070003ABA76883E8070015
:1045D0006E4BA1696E4A04F11C09032918BF1A46E3
:1045E0007B1EB3F5AE7F84BF40F25D13A3602368EA
:1045F00088BF6FF4AE7543F4506323604B4600925E
:104600008CBF7F1900274FF000083168019303AB7E
:1046100053F8280002220978FEF71EFF019B0028AC
:1046200033D0B8F1010F0BD162682AB90822626059
:10463000226842F400722260226822F4A0620CE038
:10464000B8F1020F0AD1226802F4C061B1F5007F0F
:104650001BD11021616042F480722260A268511E59
:10466000A16092B132685D1C511C316012781A70E1
:104670007368013B002B736006DCD4F8803131464F
:1046800058469847002841D12B4608F10108B8F157
:10469000030FBAD162680AB90A22626062683D49B2
:1046A0006069891A019300F0C1F8019B4FF000087E
:1046B0001D46A36863B3316860690A78805C38B3CB
:1046C000302A226808D1100506D508F1010857B133
:1046D0000133013FA36006E022F4106222600B78F0
:1046E000013505F8013C7368013B002B736003DD65
:1046F00033680133336005E0D4F8803131465846E1
:10470000984728B9A368013BA360D2E74FF000089F
:104710002368D9050CD54D4508D915F8011C6F1E25
:10472000D4F87C313246584698473D464D4527D00F
:10473000226812F010021BD12A706368494658465D
:10474000009EB0472268DAF8003012F0200F07D13F
:10475000D20705D51A1DCAF800201B68188004E08E
:104760001A1DCAF800201B681860E3680133E36073
:104770002369C9EB050545441D442561002000E07F
:10478000012007B0BDE8F08FFC990000055900003A
:10479000F9570000189A000038B5074C054608463E
:1047A0001146002222601A46FCF776FD431C02D116
:1047B000236803B12B6038BD6C64001031F00043F6
:1047C00010B51BD00F4AA1F58014944210D901F105
:1047D000FF410C4A01F5E001914209D9B3F5801F70
:1047E00008D3094A934207D1B0FA80F0400910BDBE
:1047F000042010BD032010BD002010BD0028E6D10C
:10480000022010BDFFFFDF7F0000F07F38B5064CAF
:104810000023054608462360FCF75EFE431C02D1D8
:10482000236803B12B6038BD6C64001070B50B7841
:10483000441E5E2B13BF4A1C8A1C4B78002108BF04
:10484000012100F1FF0504F8011FAC42FBD10BB9B7
:10485000501E70BD81F001041146C4540D784A1CED
:104860002D2D06D05D2D0FD00DB12B46F4E7084657
:1048700070BD4E785D2EF8D0B342F6DC02310133C4
:104880009E42C454FBDCE9E7104670BD00294FF49A
:1048900080630CBF0222002200F000B82DE9F04135
:1048A0001D463D4B04461E680F46904626B1B3692F
:1048B00013B93046FEF7ECFB384B9C4201D17468CB
:1048C00008E0374B9C4201D1B46803E0354B9C4271
:1048D00008BFF468B8F1020F59D8002D57DB214604
:1048E0003046FEF759FB00236360A361A3891B06D2
:1048F00003D521693046FEF7D1FDA389B8F1020F37
:1049000023F08303A38112D037BB002D08BF4FF4DF
:1049100080652846FEF790FD0746C8B94FF48060D1
:10492000FEF78AFD074688B94FF0FF3000E000200F
:10493000A38943F00203A3810023A36004F147038A
:104940002360236101236361BDE8F0814FF480653A
:10495000A38943F08003A381B8F1010F05D1A38996
:1049600043F00103A3816B42A3610F4BB362A389A0
:10497000276003F0080080B22761656148B113F039
:10498000030F18BF0025A5600020BDE8F0814FF09F
:10499000FF30BDE8F08100BF506000104C9900006E
:1049A0006C9900008C99000011300000004870479D
:1049B0000000C07F1F2938B504460D4604D91623D0
:1049C00003604FF0FF3038BD426C12B152F8213015
:1049D0004BB9204600F032F82A4601462046BDE891
:1049E000384000F019B8012B0CD0591C03D1162304
:1049F0000360012038BD0024284642F8254098472E
:104A0000204638BD002038BD024B01461868FFF72C
:104A1000D1BF00BF5060001038B5074C00230546D9
:104A200008461146236004F00FFA431C02D12368A4
:104A300003B12B6038BD00BF6C64001004F0FCB9FA
:104A40000EB400B54FF402719CB0ADF814106FF0C5
:104A50000041049107914FF6FF711DAB0290069043
:104A6000084853F8042BADF81610006802A901930A
:104A700002F024FF029B00221A701CB05DF804EBC8
:104A800003B07047506000100EB430B59CB01FAC3E
:104A90004FF4017254F8045BADF8142002900690B4
:104AA00000F06BF80B4B03900B9300230F931493C0
:104AB0004FF6FF7307900848ADF816302A46234694
:104AC00002A90068019403F049F81CB0BDE8304029
:104AD00003B07047FF4A00005060001010B50C464C
:104AE000B1F90E1003F088F90028ABBF636DA389FC
:104AF0001B1823F48053ACBF6365A38110BD002055
:104B000070472DE9F0411F468B890546DB050C46B1
:104B1000164605D502230022B1F90E1002F02CFA38
:104B2000A389324623F48053A381B4F90E103B4687
:104B30002846BDE8F04100F0F1BF10B50C46B1F9D0
:104B40000E1002F019FA431CA38915BF606523F407
:104B5000805343F48053A38118BFA38110BDB1F9E2
:104B60000E1001F059B810F8012B11F8013B012A81
:104B700028BF9A42F7D0D01A7047034613F8012B8A
:104B8000002AFBD1181A0138704730B582B1451E92
:104B9000013915F8013F11F8014FA34206D1EC434A
:104BA0001444E04201D0002BF3D11C46181B30BD49
:104BB000104630BD2DE9F0410F46904602F0CEFC84
:104BC00004460D46B8F1000F11D0C7F30A53C3F1E4
:104BD0006B03002B0BDD1B0503F17F55002405F54E
:104BE000401522462B4603F0DBFABDE8F081204653
:104BF0002946BDE8F08100002DE9F04F82460C46C1
:104C00009DB00023139218934FF000084FF0000955
:104C10001791179B1A780D2A05D8092A13D2002A52
:104C200000F0AD8112E02B2A04D02D2A04D0202AD6
:104C30000CD108E0002200E001220C925A1C1792CD
:104C40005B782BB99BE101331793E2E700230C93C8
:104C5000179D2B78302B5CD16B78582B01D0782B9B
:104C60004CD10C9BA84A019318AB009317A919AB20
:104C7000504601F09AFE10F00706044600F08585C4
:104C8000062E05D10135002317950C9300F07DBD4C
:104C9000189A3AB135211AA802F047FD18995046E2
:104CA00002F0CCF9062E22D8DFE806F0040D081831
:104CB0001D0D04004FF00009C84618E0DDF86880BB
:104CC000DDF86C9013E01B9B199A23F4801302F219
:104CD0003342DDF8688043EA025908E0DFF82C929D
:104CE0004FF0000803E06FF000494FF0FF38210754
:104CF00040F14B8549F0004900F047BD179B5A1C15
:104D000017925B78302BF9D0002B00F03E85012301
:104D100000E000230593179B0A22069300239B467D
:104D200002930493179D2E78A6F13003D9B2092976
:104D300011D8BBF1080FD5BF0499029902FB0133CA
:104D400002FB013305F10105D4BF049302930BF17B
:104D5000010B1795E6E7504602F00AF9076850463E
:104D600002F006F90068FFF708FF394602462846B8
:104D7000FFF70BFF074628B1002033465D46024689
:104D800001465AE0504602F0F3F80068FFF7F5FEDE
:104D9000179B1A1817921B5CBBF1000F45D15846A0
:104DA000302B05D1179B01305A1C17925B78F7E71F
:104DB000A3F13102082A46D8179A0692024600202B
:104DC0000546303B00F1010129D00A44294605EB94
:104DD000000C0A2661450FD0013101F1FF3EBEF102
:104DE000080F03DC049F77430497F3E71029DEBF25
:104DF000029F77430297EDE72844082800F1010558
:104E000005DC04980A2101FB0033049306E0102D11
:104E1000DFBF02980A2101FB003302930021179B98
:104E2000581C17905B78084602E05D4638463A46C3
:104E3000A3F130010929C4D90121652B01D0452BEB
:104E40004FD16DB904E0652B40F0AD840022012103
:104E500028B9059B002B00F09280054600E0002554
:104E6000179C631C179363782B2B06D02D2B02D035
:104E70000026039606E0012300E000230393A31C11
:104E80001793A378A3F13006092E29D8302B04D12B
:104E9000179B5E1C17965B78F8E7A3F13106082E86
:104EA0001FD8A3F1300E179B1F46179B5E1C179649
:104EB0005B78A3F1300CBCF1090F05D80A2606FB7C
:104EC0000E3EAEF1300EF0E7F61B082E44F61F66DC
:104ED00002DC7645A8BF7646039F1FB1764201E00B
:104EE00017940026002D52D1002840F04E84059AD8
:104EF000002A40F04A84002941D14E2B20D007DC03
:104F0000492B0AD03BE000BF389A00000000F07F38
:104F1000692B02D06E2B13D031E0AA4917A801F0FB
:104F200075FF60B3179BA849013B17A8179301F0C1
:104F30006DFF10B9179B01331793DFF8A8921AE0A1
:104F4000A24917A801F062FFC8B1179B1B78282B54
:104F50000FD11AAA9E4917A801F06BFF052808D1A6
:104F60001B9BDDF8688043F0FF4949F4E00900F03D
:104F70000CBCDFF874924FF0000800F006BC139BE5
:104F80001794002B00F00C8400230C93FFE32C46B5
:104F9000BBF1000F08BFAB460498102DA8BF10242A
:104FA000B71A03F087F8092C8046894613DD894B30
:104FB00003EBC40353E9122303F0F2F8804602988E
:104FC000894603F077F802460B464046494602F010
:104FD00035FF804689460F2D33DC002F00F0D58346
:104FE00022DD162F07DC7B4D424605EBC7014B4601
:104FF000D1E9000113E0C5F125039F4221DC754C86
:10500000C5F10F0504EBC5017D1B4246D1E9000146
:105010004B4604EBC50403F0C3F8D4E9002303F0C6
:10502000BFF880468946B0E317F1160F09DB694DDA
:105030004046A5EBC703D3E90023494603F0DAF95C
:10504000EFE72C1B3C44002C5DDD14F00F010AD06F
:10505000604B424603EBC101D1E900014B4603F02E
:105060009FF88046894634F00F0400F0C180B4F503
:105070009A7F0FDD4FF0000BCDF808B0CDF814B0DB
:10508000CDF810B02223CAF80030DFF858914FF065
:10509000000889E14046494600234F4E24110293FF
:1050A000012C0CDDE20704D5D6E9002303F078F8E3
:1050B0000123029A6410013202920836F0E70BB124
:1050C00080468946444B029AA9F1547903EBC20108
:1050D000D1E9000142464B4603F062F821F000435B
:1050E00089460A461B0D3D491B058B428046C1D8A7
:1050F000A1F580118B4286BFDFF8F0904FF0FF38AA
:1051000002F1547974E073D0644214F00F020AD0B3
:10511000304B404603EBC2034946D3E9002303F07A
:1051200069F980468946241162D01F2C08DD4FF0B2
:10513000000BCDF808B0CDF814B0CDF810B02CE1CC
:105140004046494614F0100F0CBF00236A23244E3A
:1051500003930023002C09DDE20704D5D6E90023E0
:1051600003F01EF8012364100836F3E70BB1804604
:105170008946039BEBB1C9F30A53C3F16B03002BC0
:10518000494616DD1F2B0EDD342BDEBF203B4FF0D2
:10519000FF3202FA03F34FF00008CCBF4FF05C7906
:1051A00003EA010905E04FF0FF3202FA03F303EAD4
:1051B0000808002200234046494603F059FA002817
:1051C000B5D117E0CA9900007C9B0000D29900007D
:1051D000249A0000909B0000689C00000000A07CC6
:1051E000509A00000000F07F0000F8FFFFFFEF7F03
:1051F00000230393049B5A46009306992B4650467E
:1052000001F06EFF059000283FF434AF002FC7F186
:105210000003A8BF00230D934FF0000B27EAE773AC
:105220001293CDF808B0059B5046596801F0D1FEA5
:10523000049000283FF426AF059B0C301A6903F157
:105240000C0102329200FEF715F91AAB019319AB6B
:10525000009342464B465046CDE9088902F0EFF9EB
:10526000189000283FF40EAF0121504601F0C3FF13
:10527000029000283FF406AF199B0399002BACBFA6
:105280000D9A129A1A9CACBFD618D21AA3EB01033E
:105290002344B14903F1FF33ACBF129A0D9E8B42F8
:1052A000C4F1360480F28580C91A1F29C8BFAB4DEE
:1052B0004FF00107D4BF07FA01F3ED1AA4EB010484
:1052C000D9BF0793002507FA05F507973719039B00
:1052D000BE4214441C443346A8BF3B46A342A8BF69
:1052E0002346002BC2BFFF1AE41AF61A0D9B002BAF
:1052F00063D1002F7ADC129B002B40F08180002CC0
:1053000000F38880002E00F38F80049A189950468D
:1053100002F0C5F8834600283FF4B4AEC368002409
:10532000C4600299069302F09EF8A04280F28B803E
:10533000069B002B40F00282B8F1000F40F0FE8186
:10534000C9F31303002B40F0F98129F000431B0D32
:105350001B05B3F1D66F40F2F181DBF81430002B5E
:105360006CD059460122504602F02CF8029983462F
:1053700002F079F8002840F3E18129F00043039A14
:105380001B0D1B05002A00F08D80B3F1D66F00F3D2
:105390008980B3F15C7F00F3D38122234FF00008B2
:1053A0004FF00009CAF80030059B002B40F0D9816E
:1053B000EBE101230025079388E71A46029950463E
:1053C00001F0B2FF029000283FF45CAE0146189A4B
:1053D000504601F019FF069000283FF453AE18998B
:1053E000504601F02BFE069B189382E73A46189927
:1053F000504601F0E7FF189000287FF47CAF41E6AB
:10540000129A0499504601F08FFF049000287FF40F
:1054100076AF37E622460499504601F0D3FF049058
:1054200000287FF46FAF2DE632460299504601F016
:10543000C9FF029000287FF468AF23E6DBF8103044
:10544000012B8EDC7AE161D1069AC9F3130322B3F2
:1054500043494A468B422ED1039B414663B1414B9F
:105460001340B3F1D46F07D81B0DC3F16B034FF09A
:10547000FF3000FA03F301E04FF0FF338B421AD103
:1054800039498A4202D101333FF4FCAD354B4FF02C
:105490000008134003F5801950E163B9B8F1000F1B
:1054A00009D16AE7A3F580136FEA13594FF0FF386B
:1054B0006FEA095942E115B115EA090F02E0079BAD
:1054C00013EA080F00F03A81069B039A40464946CA
:1054D00053B1FFF76FFB02460B46DDE9080102F00E
:1054E000ADFC8046894629E1FFF764FB02460B4686
:1054F000DDE9080102F0A0FC002200238046894675
:1055000003F0B6F800287FF448AF17E10299584637
:1055100002F0E3F800224FF0804306460F4603F006
:10552000BBF800283FD0069B13B100260F4F10E0B8
:10553000B8F1000F03D1C9F313033BB91AE0B8F176
:10554000010F03D1B9F1000F3FF427AF084F002638
:105550000024064D3CE000BF02FCFFFFE2FBFFFF22
:10556000FFFF0F000000F07FFFFFEF7F0000F03F24
:105570000000F0BF00229A4B3046394603F082F813
:1055800040B90022974B3046394602F009FE0446E6
:105590000D4601E0069C934D05F1004314941593CC
:1055A000DDE9146714E08F4B00223046394602F0E3
:1055B000F7FD069B04460D4623B901F100430E900A
:1055C0000F9303E002460B46CDE90E23DDE90E679B
:1055D00029F000431B0D1B050793079A824B9A4243
:1055E0002BD1DDE90823A9F1547940464946CDE99C
:1055F0000A2301F0B3FF02460B463046394602F05B
:10560000CFFD42464B4602F019FC21F000431B0D32
:10561000764A1B05934280460CD9754B0B9A9A42E9
:1056200003D10A9B01333FF42DADDFF8C4914FF055
:10563000FF3872E001F1547939E0039B3BB3079BDB
:10564000B3F1D46F23D85EA3D3E9002320462946C3
:1056500003F022F8B8B12946204603F063F8002889
:1056600008BF012002F026FD069B04460D4623B923
:1056700001F100431090119303E002460B46CDE97F
:105680001023DDE91067079A07F1D6639F1ADDE959
:10569000080101F063FF02460B463046394602F02E
:1056A0007FFDDDE9082302F0C9FB80468946039BA4
:1056B0009BBB29F000431B0D079A1B059A424E46DF
:1056C0002BD12946204603F005F802F003FD0B46D6
:1056D00002462946204602F0AFFB069B04460D46D3
:1056E0002BB9B8F1000F02D1C9F313067EB136A36E
:1056F000D3E900232046294602F0C4FF88BB34A327
:10570000D3E900232046294602F0DAFF04E032A361
:10571000D3E9002302F0B6FF18BB1899504601F0F8
:105720008DFC0499504601F089FC0299504601F025
:1057300085FC5946504601F081FC74E5039B83B11A
:105740002C4B40460B9300230A934946DDE90A237C
:1057500002F026FD8046894619B910B92223CAF8FD
:1057600000301899504601F069FC0499504601F048
:1057700065FC0299504601F061FC0599504601F024
:105780005DFC5946504601F059FC139B13B1179B21
:10579000139A13600C9B1BB1424609F1004307E0CA
:1057A00042464B4604E000252A460121FFF747BB4D
:1057B000104619461DB0BDE8F08F00BFAFF3008062
:1057C0000000C0FFFFFFDF419535A094FFFFDF3FE2
:1057D00035E5AF350000E03F9535A094FFFFCF3FA2
:1057E0000000F03F0000E03F0000E07FFFFF9F7CF3
:1057F000FFFFEF7F000050392DE9F0470F4680464C
:105800003F48D0F800903D4615F8014B09EB0400E5
:10581000407800F0080000F0FF0608B12F46F2E7DC
:105820002D2C03D1BD1C7C78012603E02B2C04BF5A
:105830007C78BD1C13B1102B0AD15BE0302C57D102
:10584000287800F0DF0058284DD16C7810230235FD
:10585000002E14BF4FF0004C6FF0004CBCFBF3FA6D
:105860000027384603FB1ACC09EB040E9EF801E032
:105870001EF0040F01D0303C0BE01EF0030E1BD0D5
:10588000BEF1010F0CBF4FF0370E4FF0570ECEEBAD
:105890000404A34210DDB7F1FF3F0AD0504506D8FB
:1058A00001D1644503DC03FB0040012701E04FF018
:1058B000FF3715F8014BD7E77B1C0CD1002E4FF0BA
:1058C000220314BF4FF000406FF00040C8F80030D2
:1058D0002AB9BDE8F08706B1404272B107B1691E2E
:1058E0001160BDE8F0873024002BB1D10823AFE769
:1058F0000A23ADE7302CA3D0AAE7BDE8F08700BFAC
:10590000546000102DE9F0470E4680463B48D0F821
:105910000090354615F8014B09EB0400407800F083
:10592000080000F0FF0708B12E46F2E72D2C03D146
:10593000B51C7478012703E02B2C04BF7478B51CC8
:1059400013B1102B0AD153E0302C4FD1287800F03E
:10595000DF00582845D16C78102302354FF0FF3C0A
:10596000BCFBF3FC03FB0CFA00266FEA0A0A304684
:1059700009EB040E9EF801E01EF0040F01D0303C4C
:105980000BE01EF0030E1AD0BEF1010F0CBF4FF05A
:10599000370E4FF0570ECEEB0404A3420FDD002E5E
:1059A00008DB604506D801D1544503DC03FB004009
:1059B000012601E04FF0FF3615F8014BD8E7002E25
:1059C00007DA2223C8F800304FF0FF302AB9BDE8CB
:1059D000F08707B1404272B106B1691E1160BDE89F
:1059E000F0873024002BB9D10823B7E70A23B5E7A5
:1059F000302CABD0B2E7BDE8F08700BF5460001098
:105A00002DE9F0410C46496B04F1440399421AD147
:105A10004FF48061FDF786FD18B94FF0FF30BDE807
:105A2000F0814FF48063A36394F84630606380F89C
:105A3000FF3394F8453000F2FD30437094F8443061
:105A40000370206012E0A66B77003A4601F0B7FEC3
:105A500005460028E1D000EB0608014632464046E4
:105A6000FDF708FDC4F800806563A7630020BDE86A
:105A7000F0810000F8B50F461446064618B1836958
:105A80000BB9FDF705FB224B9C4201D1746808E07D
:105A9000204B9C4201D1B46803E01F4B9C4208BFDD
:105AA000F468A369A360A3891A0709D523693BB1E8
:105AB00023682069FDB2181A636998420FDB08E079
:105AC0002146304600F03CF80028F1D04FF0FF307E
:105AD000F8BD21463046FDF75FFA0028F6D1A368ED
